:100000000C94B8070C94AD120C9486120C94E00773
:100010000C94E0070C94E0070C94E0070C94E007C4
:100020000C94E0070C94E0070C94E0070C94E007B4
:100030000C94E0070C94E0070C94E0070C94E007A4
:100040000C94DC200C94E0070C94AB130C948513F7
:100050000C94E0070C94E0070C94E0070C94E00784
:100060000C94DD130C94E0073E3E204C6F676765EF
:10007000723A20496E76616C6964206465766963C2
:100080006520636F6E66696775726174696F6E2E45
:1000900020526573657420636F6E6669677572615F
:1000A00074696F6E207769746820636F6D6D616E1F
:1000B00064202767270A000A3E3E204C6F67676569
:1000C000723A20436F6E66696775726174696F6E0C
:1000D00020556E7375636365737366756C2E20545B
:1000E000727920616761696E0A000A3E3E204C6F9A
:1000F000676765723A20436F6E66696775726174EF
:10010000696F6E205375636365737366756C0A005F
:100110000A3E3E204C6F676765723A205741524E47
:10012000494E473A20494E56414C4944204D65744A
:1001300065722073657474696E670A000A3E3E201A
:100140004C6F676765723A20352F3822204D6574F1
:1001500065720A000A3E3E204C6F676765723A205E
:100160003122204D657465720A003E3E205573654C
:10017000723A202020002020202035202D2D2035EF
:100180002F3822204D657465720A0020202020310E
:10019000202D2D203122204D657465720A000A3E03
:1001A0003E204C6F676765723A2053656C656374D7
:1001B000204D657465720A003E3E20557365723AA3
:1001C000202020000A3E3E204C6F676765723A206F
:1001D000496E70757420446174616C6F67676572F5
:1001E000204944204E756D6265722E2043757272EF
:1001F000656E7420494420697320003E3E2055738B
:1002000065723A202020003E3E204C6F6767657281
:100210003A20496E7075742053697465204E756D6F
:100220006265722E2043757272656E742053697414
:1002300065204E756D62657220697320000A3E3E2E
:10024000204C6F676765723A20436F6E6669677509
:1002500072696E670A003E3E204C6F676765723AAE
:100260002053442043617264206E6F7420696E696C
:100270007469616C697A65642E003E3E204C6F673C
:100280006765723A2043616E6E6F7420636C6561BE
:100290006E2053442043617264207768696C652046
:1002A0006C6F6767696E672E003E3E204C6F676714
:1002B00065723A2046696C652072656D6F7665647B
:1002C0002E00646174616C6F672E637376000A3E62
:1002D0003E204C6F676765723A204578697474698F
:1002E0006E672E0A0A003E3E204C6F676765723AC1
:1002F000205344204361726420627573792E205527
:10030000736520636F6D6D616E64202753272074C1
:100310006F2073746F7020646174616C6F676769BC
:100320006E6720616E642074727920616761696E06
:100330002E003E3E204C6F676765723A2053442082
:1003400043617264206D6179206E6F772062652051
:1003500072656D6F7665642E003E3E204C6F676758
:1003600065723A205344204361726420616C726567
:1003700061647920656A65637465642E00202020BD
:1003800020202020202020207720202D2D2050727A
:10039000696E7420776174657220666C6F77206473
:1003A0006174612066726F6D206C61737420636F7D
:1003B0006D706C6574652073616D706C650A0020EA
:1003C000202020202020202020207520202D2D20BE
:1003D00055706461746520646174652F74696D651E
:1003E0000A00202020202020202020202053202010
:1003F0002D2D2053746F7020646174616C6F67677A
:10040000696E670A00202020202020202020202044
:100410007320202D2D2053746172742064617461E7
:100420006C6F6767696E67202877696C6C206170F4
:1004300070656E6420746F20616E792065786973D1
:1004400074696E6720646174616C6F672E63737684
:10045000290A002020202020202020202020522097
:10046000202D2D20446961676E6F73652074686567
:10047000205254430A002020202020202020202029
:10048000207020202D2D205072696E7420636F6EB5
:1004900066696775726174696F6E20646174610A60
:1004A0000020202020202020202020206920202D16
:1004B0002D20496E697469616C697A65207468657C
:1004C00020534420636172640A00202020202020F1
:1004D00020202020206820202D2D20446973706C5E
:1004E00061792068656C700A00202020202020207F
:1004F000202020206720202D2D2053657420646546
:100500007669636520636F6E666967757261746989
:100510006F6E0A002020202020202020202020454F
:1005200020202D2D20456A6563742053442063618B
:1005300072640A0020202020202020202020206516
:1005400020202D2D20457869742073657269616CB7
:1005500020696E746572666163650A002020202040
:10056000202020202020206420202D2D2056696569
:100570007720646174652F74696D650A00202020FE
:1005800020202020202020206320202D2D20436C9F
:1005900065616E20534420636172640A003E3E2010
:1005A0004C6F676765723A204C697374206F6620E0
:1005B000636F6D6D616E64733A0A003E3E204C6F4E
:1005C000676765723A204572726F722E20497320F8
:1005D000746865205344204361726420696E7365BA
:1005E000727465643F003E3E204C6F676765723AE7
:1005F0002053442052656164792E00494E56414C87
:10060000494400352F3822003122003E3E204C6FF5
:10061000676765723A204D657465722053697A6523
:100620003A202020202020003E3E204C6F67676546
:10063000723A20446174616C6F6767657220494447
:1006400020233A20003E3E204C6F676765723A20B7
:100650005369746520233A20202020202020202068
:100660002000476F6F6462796521000A3E3E205288
:10067000544320446F63746F723A20000A3E3E2058
:1006800052544320446F63746F723A204920646F60
:100690006E277420756E6465727374616E64207960
:1006A0006F757220696E7075742E20547279207384
:1006B0006F6D657468696E672066726F6D2074680F
:1006C00065206C6973742E000A3E3E20525443200C
:1006D000446F63746F723A2046696E69736865642B
:1006E0002120436865636B207468652072656769C3
:1006F000737465727320746F206D616B6520737500
:100700007265207468657927726520636F727265FF
:1007100063743A0A000A3E3E2052544320446F63F9
:10072000746F723A20576861742076616C75652029
:10073000776F756C6420796F75206C696B652074B8
:100740006F2077726974653F2028737065636966EE
:100750007920696E2068657861646563696D616C94
:10076000293A203078000A3E3E2052544320446FFC
:1007700063746F723A2057686963682072656769AD
:100780007374657220776F756C6420796F75206C57
:10079000696B6520746F20616C7465723F202872EC
:1007A00072293A20000A3E3E2052544320446F638F
:1007B000746F723A2049276C6C20777269746520D7
:1007C000776861746576657220796F752074656CE1
:1007D0006C206D6520746F2C20736F206265207310
:1007E00075726520746F20646F75626C6520636834
:1007F00065636B2E000A3E3E2052544320446F63D3
:10080000746F723A20486572652061726520746861
:100810006520636F6E74656E7473206F66207468F4
:100820006520525443205265676973746572732E54
:1008300020596F752077696C6C2070726F626162ED
:100840006C792077616E74206120636F7079206FFE
:100850006620746865205043463835323320446141
:100860007461736865657420746F20696E74657255
:10087000707265742074686573652E0A003E3E20B0
:1008800052544320446F63746F723A2054696D650B
:100890007220726573657421000A3E3E20525443F3
:1008A00020446F63746F723A205265736574746983
:1008B0006E672074686520525443277320496E7414
:1008C0006572727570742054696D65722E2E2E0AD1
:1008D000003E3E2052544320446F63746F723A20AE
:1008E000496E7465727275707420726573657421D7
:1008F000000A3E3E2052544320446F63746F723AA4
:1009000020526573657474696E672074686520523F
:100910005443277320496E746572727570742E2E5D
:100920002E0A003E3E20557365723A20202000209A
:1009300020202035202D2D2046696E6973680A001D
:100940002020202034202D2D20416C7465722061E0
:100950002072656769737465720A00202020203355
:10096000202D2D20446973706C6179207468652096
:1009700052544320526567697374657220636F6EC9
:1009800074656E74730A002020202032202D2D20E3
:10099000526573657420496E746572727570742047
:1009A00054696D65720A002020202031202D2D20F1
:1009B00052652D456E61626C6520746865205254E5
:1009C0004320496E746572727570740A00576861CD
:1009D000742077696C6C2069742062653F0A003E60
:1009E0003E2052544320446F63746F723A2049276B
:1009F0006D20747261696E656420746F2072756E0B
:100A0000206120636F75706C652070726F63656420
:100A100075726573206F6E20796F75722052544322
:100A20002E20003E3E2052544320446F63746F7268
:100A30003A204869212049276D2068657265207435
:100A40006F2068656C702066697820796F757220F8
:100A50005254432E0A0054696D652C5265636F72BF
:100A6000642C50756C7365730A00494E56414C49AD
:100A70004400352F3822003122004D657465722004
:100A800053697A653A2000446174616C6F676765E9
:100A90007220494420233A20005369746520233A88
:100AA00020003E3E204C6F676765723A204C6F67AE
:100AB00067696E6720737461727465642E003E3ED0
:100AC000204C6F676765723A2043616E6E6F7420C9
:100AD0006C6F6720776974686F7574205344204386
:100AE0006172642E003E3E204C6F676765723A204B
:100AF0004C6F6767696E672073746F707065642EE2
:100B0000003E3E204C6F676765723A204E6F74203E
:100B10006C6F6767696E672E000A3E3E204C6F67F8
:100B20006765723A204461746520616E642054697F
:100B30006D652072657365742E000A3E3E204C6F11
:100B4000676765723A20456E746572206E6577201E
:100B50006D696E75746520286D6D293A20000A3E16
:100B60003E204C6F676765723A20456E746572204F
:100B70006E657720686F7572202868682C20323483
:100B80002D686F757220636C6F636B293A20000AC1
:100B90003E3E204C6F676765723A20456E74657201
:100BA000206E6577207965617220287979293A204D
:100BB000000A3E3E204C6F676765723A20456E74AE
:100BC0006572206E65772064617920286464293A13
:100BD00020003E3E204C6F676765723A20456E7478
:100BE0006572206E6577206D6F6E746820286D6D5C
:100BF000293A20003E3E204C6F676765723A2055C7
:100C000070646174696E67206461746520616E64EC
:100C10002074696D652E2E2E0A003E3E204C6F67B3
:100C20006765723A20496E76616C6964206D6574FF
:100C3000657220636F6E66696775726174696F6E45
:100C40002E2043616E6E6F74207072696E74206D19
:100C50006F726520666C6F7720646174612E20521C
:100C60006573657420636F6E666967757261746918
:100C70006F6E2077697468202767272E00204761F0
:100C80006C0A003E3E204C6F676765723A20546FD5
:100C900074616C20466C6F772073696E6365206C9D
:100CA0006F6767696E672073746172743A202020E1
:100CB000003E3E204C6F676765723A20546F746146
:100CC0006C2050756C7365732073696E6365206C5E
:100CD0006F6767696E672073746172743A200020D1
:100CE00047616C2F6D696E0A0A003E3E204C6F67AB
:100CF0006765723A204176657261676520466C6F60
:100D0000773A20002047616C0A003E3E204C6F6716
:100D10006765723A20546F74616C20466C6F773A45
:100D2000202020003E3E204C6F676765723A2054B9
:100D30006F74616C2050756C7365733A20003E3E91
:100D4000204C6F676765723A204461746120667257
:100D50006F6D206C6173742073616D706C653A0007
:100D60003E3E204C6F676765723A20556E6B6E6F22
:100D7000776E20636F6D6D616E642E2055736520F4
:100D800074686520636F6D6D616E64202268222037
:100D9000666F722061206C697374206F6620636FC8
:100DA0006D6D616E64732E0A3E3E20557365723A16
:100DB000202020000A3E3E20557365723A202020F4
:100DC000000A3E3E20557365723A202020000A3EFC
:100DD0003E20557365723A202020000A3E3E205581
:100DE0007365723A202020000A3E3E2055736572DA
:100DF0003A202020003E3E204C6F676765723A2003
:100E000043616C6C696E672074686520525443209E
:100E1000446F63746F722E2E2E0A000A3E3E2055D8
:100E20007365723A202020000A3E3E205573657299
:100E30003A202020000A3E3E20557365723A202059
:100E400020000A3E3E20557365723A202020000A99
:100E50003E3E20557365723A202020000A3E3E2017
:100E6000557365723A202020000A3E3E2055736576
:100E7000723A202020003E3E204C6F676765723A30
:100E800020496E76616C69642064657669636520CB
:100E9000636F6E66696775726174696F6E2E20523A
:100EA0006573657420636F6E6669677572617469D6
:100EB0006F6E207769746820636F6D6D616E64205A
:100EC0002767270A003A20005265676973746572C4
:100ED00020003E3E204C6F676765723A204C6F677A
:100EE0006765722072656164792E0A3E3E205573F3
:100EF00065723A202020007C3C3E5E2B3D3F2F5BFC
:100F00005D3B2C2A225C0000000000250028002BFD
:100F1000003E3E204C6F676765723A20000000007B
:100F200000240027002A00000000002300260029DA
:100F30000004040404040404040202020202020382
:100F4000030303030301020408102040800102048C
:100F5000081020010204081020000000080002010F
:100F60000000030407000000000000000000C92981
:100F700011241FBECFEFD8E0DEBFCDBF25E0A2EB2E
:100F8000B1E001C01D92A33BB207E1F711E0A0E080
:100F9000B1E0E0E2FEE502C005900D92A23BB10790
:100FA000D9F717E0C8EBD7E004C02197FE010E94F3
:100FB000EC2CC73BD107C9F70E9426210C940E2FB9
:100FC0000C940000DC015996ED91FC915A973097F2
:100FD000B9F083899489A589B6894285538564854A
:100FE0007585841B950BA60BB70B811520E892071E
:100FF000A105B10538F08FEF9FE7A0E0B0E00895BC
:1010000080E090E00895CF93DF931F92CDB7DEB7D5
:101010006983DC01ED91FC910280F381E02D41E0D8
:1010200050E0BE016F5F7F4F09950F90DF91CF9128
:101030000895089580E090E0089581E080939105FF
:10104000089581E0809394050895CF93DF93EC0198
:101050008D81882319F18C8187FF1CC0CE010E94ED
:101060001F1FFC01892BD1F08D81823040F48B89C8
:101070009C89AD89BE89848F958FA68FB78F8F8904
:10108000988DA98DBA8D938F828FB58BA48B8C810F
:101090008F778C83DF91CF910C940B1580E0DF91DB
:1010A000CF910895FC01818D928D009711F00C94E1
:1010B000250808958F929F92AF92BF92CF92DF92B0
:1010C000EF92FF920F931F93CF93DF93EC018D81EB
:1010D000811102C080E078C00B891C892D893E896E
:1010E0000417150726073707A8F36A017B0182302A
:1010F00029F4CA86DB86EC86FD860DC0C114D104B6
:10110000E104F10451F41E821F82188619861A86A2
:101110001B861C861D8681E057C08A849B84AC8414
:10112000BD84EB8DFC8D258530E0275F3F4FB501F9
:10113000A4014150510961097109022E04C076953C
:101140006795579547950A94D2F7D701C60101973D
:10115000A109B10904C0B695A795979587952A95D9
:10116000D2F784179507A607B70720F089288A28A1
:101170008B2871F44F89588D698D7A8D4E835F83EA
:10118000688779874C015D018E010A5F1F4F16C089
:10119000841B950BA60BB70BF5CF4E815F8168853D
:1011A000798598018B8D9C8D0E94301691E0891A6B
:1011B0009108A108B108882309F48CCF8114910407
:1011C000A104B10451F795CFDF91CF911F910F91F9
:1011D000FF90EF90DF90CF90BF90AF909F908F9057
:1011E00008951F93CF93DF93EC0180E2689FF00195
:1011F0001124EE5FFD4F9385917129F0842F827445
:1012000011F080E04FC0142F6A8B809104019091FF
:101210000501A0910601B09107018E879F87A88BD9
:10122000B98B4489558960E070E0BA01552744279D
:10123000828D938DA0E0B0E0482B592B6A2B7B2B3D
:101240004F8B588F698F7A8F8385887151F4848D85
:10125000958DA68DB78D8B8B9C8BAD8BBE8B81E0D6
:101260000CC0803171F69E012D5E3F4F8B8D9C8DA1
:101270000E941320882329F284E08D83812F8F70B0
:101280008C831E821F82188619861A861B861C86EE
:101290001D8616FF06C0CE01DF91CF911F910C94E1
:1012A000861F81E0DF91CF911F910895CF93DF9347
:1012B000EC010E942508882311F01D8281E0DF9156
:1012C000CF9108953F924F925F926F927F928F924B
:1012D0009F92AF92BF92CF92DF92EF92FF920F93C5
:1012E0001F93CF93DF93CDB7DEB72C970FB6F8944B
:1012F000DEBF0FBECDBF5C01DC015B968D909C9084
:101300005C971696CD90DD90ED90FC901997C114E6
:10131000D104E104F10439F0BFEFCB1ADB0AEB0A88
:10132000FB0A312C07C0F401C080D180E280F38039
:1013300033243394F40181859285A385B4859C017F
:10134000AD012F5F3F4F4F4F5F4F29873A874B8744
:101350005C87260137011D821E821F821886F401D8
:1013600081859285A385B4852D813E814F815885E5
:10137000281739074A075B0708F063C089859A85F3
:10138000AB85BC858C159D05AE05BF0550F482E08C
:10139000C82ED12CE12CF12C92E0492E512C612C3D
:1013A000712C9E012F5F3F4FB701A601C4010E941F
:1013B0003016882309F445C089819A81AB81BC81AC
:1013C000892B8A2B8B2B41F0260137019FEF491A7D
:1013D000590A690A790A05C0C414D504E604F70459
:1013E00091F02D813E814F8158852F5F3F4F4F4FA8
:1013F0005F4F2D833E834F8358873FEFC31AD30A35
:10140000E30AF30AACCF0FEF1FEF2FEF3FE0B3017A
:10141000A201C4010E948F15882399F0D501169668
:101420004D915D916D917C91199741155105610523
:10143000710549F093018201C4010E948F15811149
:1014400002C080E02AC0D50116964D925D926D9241
:101450007C921997332051F0D301C2010196A11D4E
:10146000B11DF40180839183A283B383F501878941
:10147000908DA18DB28D892B8A2B8B2B69F4D50190
:1014800057964D925D926D927C925A9714968C91DC
:101490001497806814968C9381E02C960FB6F8947C
:1014A000DEBF0FBECDBFDF91CF911F910F91FF9097
:1014B000EF90DF90CF90BF90AF909F908F907F90F4
:1014C0006F905F904F903F9008958FB7F894809100
:1014D000B3018FBF089561E0FC0184810E94F01B7D
:1014E0008091B20181111092B20108958EBD000069
:1014F0000DB407FEFDCF8EB508958FEF0C94760ADC
:101500000F931F93CF93DF93EB010E94D0208B01A9
:101510000E947D0A8F3F49F00E94D020601B710B12
:101520006C177D07A8F380E001C081E0DF91CF91C7
:101530001F910F910895CF93DF93EC018E81882343
:1015400089F08F8198859C012F5F3F4F38872F83CB
:101550008230924018F40E947D0AF3CFCE010E949F
:101560006B0A1E82DF91CF9108958CBD9DBD0895B9
:10157000CF93DF93EC018091B201811109C081E02A
:101580008093B20180912205909123050E94B50AB3
:1015900060E08C81DF91CF910C94F01B8F929F9231
:1015A000AF92BF92FF920F931F93CF93DF93EC0103
:1015B000F62E49015A010E949B0ACE010E94B80AE8
:1015C0006CE271E0CE010E94800A8F2D80640E943F
:1015D000760A08E110E0D501C401002E04C0B695DA
:1015E000A795979587950A94D2F70E94760A085096
:1015F0001109083F8FEF180771F7FF2029F088E0E5
:10160000F81204C087E803C085E901C08FEF0E948B
:10161000760A10E00E947D0A8A8787FF04C01F3F78
:1016200011F01F5FF7CFDF91CF911F910F91FF90C6
:10163000BF90AF909F908F900895AF92BF92CF923E
:10164000DF92EF92FF920F931F93CF93DF93EC0102
:101650006901C801820F931F8130924008F070C069
:101660008E81882371F088819981AA81BB8184173A
:101670009507A607B70729F48F819885C816D9065C
:10168000B0F5488359836A837B838B85833039F037
:1016900089E0440F551F661F771F8A95D1F79A017D
:1016A000AB0161E1CE010E94CE0A882319F083E0EC
:1016B0008D8346C00E94D0205B010E947D0A8A87EC
:1016C0008F3F49F40E94D0206A197B096D32714026
:1016D000A0F38FE003C08E3F31F08DE08D83CE010B
:1016E0000E946B0A2DC018861F8281E08E838F8135
:1016F00098858C159D0540F40E947D0A8F81988500
:10170000019698878F83F3CF6701E00EF11EEC14EA
:10171000FD0431F00E947D0AF60181936F01F7CF3D
:101720008F819885080F191F18870F838985882353
:1017300019F00115124048F0CE010E949B0A05C025
:10174000CE010E946B0A80E001C081E0DF91CF9161
:101750001F910F91FF90EF90DF90CF90BF90AF90CF
:101760000895EF92FF920F931F93CF93DF93EC01B5
:101770007901411551056105710511F482E13CC003
:101780008B85833039F089E0440F551F661F771F22
:101790008A95D1F79A01AB0168E1CE010E94CE0A89
:1017A000882311F084E028C08EEF0E94760A87011A
:1017B0008EEFF81AF80181918F010E94760AE016E7
:1017C000F106C1F78FEF0E94760A8FEF0E94760A2A
:1017D0000E947D0A8A878F71853031F081E18D8387
:1017E000CE010E946B0A09C068E572E0CE010E943A
:1017F000800A811107C085E18D83CE010E946B0AAA
:1018000080E014C020E030E0A9016DE0CE010E942C
:10181000CE0A811109C00E947D0A811105C0CE0146
:101820000E946B0A81E002C084E1E6CFDF91CF9194
:101830001F910F91FF90EF9008952F923F924F923A
:101840005F926F927F928F929F92AF92BF92CF9250
:10185000DF92EF92FF920F931F93CF93DF9300D00D
:1018600000D0CDB7DEB78C015B011A01DC01159603
:101870008C9115978130C9F414968C9181FF15C015
:1018800082FF1DC0F8014389548965897689828564
:101890009385A485B58584179507A607B70779F0C2
:1018A000C8010E945A0881110AC081E090E0D80165
:1018B00013969C938E93129780E090E036C161015D
:1018C00083C05B968D919C915C97FC0174802FEF97
:1018D000270D2A013B0139E0769467945794479489
:1018E0003A95D1F7722E74207A01F1E0FF22772029
:1018F00009F476C080E092E08E199F0946018C15AC
:101900009D0508F44C01D8015B962D913C915C97A4
:1019100016968D919D910D90BC91A02D0297A109D5
:10192000B109F901058404C0880F991FAA1FBB1FC4
:101930000A94D2F74685578560897189840F951F6F
:10194000A61FB71F9C01AD01270D311D411D511D63
:1019500029013A01811432E0930609F088C0809190
:10196000040190910501A0910601B091070148166C
:1019700059066A067B0659F48FEF9FEFDC018093CE
:10198000040190930501A0930601B093070195010E
:10199000B301A2018091FC019091FD010E94B10B65
:1019A000882309F482CF9EEFB91AC818D908F80124
:1019B00082859385A485B585880D991DA11DB11DCE
:1019C00082879387A487B587D8011A964D915D9138
:1019D0006D917C911D97C114D10409F072CF87C01D
:1019E000E114F10409F086CF16964D915D916D9149
:1019F0007C911997411551056105710559F4579668
:101A00008D919D910D90BC91A02D0097A105B105E0
:101A100041F521C09E012F5F3F4F0E943016882361
:101A200009F44BCF89819A81AB81BC81F801238D68
:101A3000348DF9012789203129F048EF5FEF6FEFEE
:101A40007FE004C048EF5FEF60E070E08417950727
:101A5000A607B70730F0C8010E94620981114ACF7A
:101A600024CFF80186839783A087B18743CFE11401
:101A7000F10429F5D8011A964D915D916D917C91F3
:101A80001D9753968D919D910D90BC91A02D481757
:101A900059076A077B0798F00E940B15882309F401
:101AA00004CF4092040150920501609206017092A9
:101AB00007018091B40181608093B40108C041E0C6
:101AC000C301B2010E944615882309F4EECED50168
:101AD000F701EE5FFD4F9F01280D391D2E173F07BF
:101AE00019F08D918193FACFA80CB91C5ECFF80143
:101AF00083899489A589B68984179507A607B707AE
:101B000038F4438B548B658B768B84818068848317
:101B1000F801848183FD02C0C10107C0C8010E9491
:101B20002508882309F4C1CEF7CF0F900F900F90AE
:101B30000F90DF91CF911F910F91FF90EF90DF9069
:101B4000CF90BF90AF909F908F907F906F905F905D
:101B50004F903F902F900895CF93DF93EC01898DA4
:101B60009A8D009739F481E090E09B838A8380E02E
:101B700090E00BC0FC01138212820E941D0CE98DC3
:101B8000FA8D22813381232B71F7DF91CF91089554
:101B9000FC01DB0112968D919C91139793838283B4
:101BA0008DE591E09183808314968C9114978483C2
:101BB00015968C911597858316964D915D916D9133
:101BC0007C91199746835783608771871A964D9148
:101BD0005D916D917C911D974287538764877587CE
:101BE0001E964D915D916D917C91519746875787D7
:101BF000608B718B52968C915297828B53964D913C
:101C00005D916D917C915697438B548B658B768B50
:101C100057964D915D916D917C915A97478B508F5E
:101C2000618F728F5B968D919C915C97948F838F5F
:101C300008954F925F926F927F92AF92BF92CF9230
:101C4000DF92EF92FF920F931F93CF93DF931F9238
:101C5000CDB7DEB7FC012581222309F4C1C0848100
:101C600080FFBEC083899489A589B6894284538444
:101C70006484758484159505A605B70509F4B0C07C
:101C80006F015201F1E0BF22D6015B968D919C91CC
:101C90005C97B301A20139E0769567955795479512
:101CA0003A95D1F7223071F4FC01828D938DA48D89
:101CB000B58D8A019B01080F191F2A1F3B1FC901FF
:101CC000B8014AC0DC0114961C9111501423A114D0
:101CD000B104F9F411111DC045284628472851F4D4
:101CE000F6018789908DA18DB28D86839783A08719
:101CF000B1870FC0D60116964D915D916D917C9183
:101D0000199796012A5F3F4F0E943016882309F4E5
:101D100067C0F601238D348D86819781A085B185BA
:101D20000297A109B109AC01BD01F901058404C004
:101D3000440F551F661F771F0A94D2F78685978533
:101D4000A089B189840F951FA61FB71FBC01CD01C3
:101D5000610F711D811D911DD60114962C9126FFD6
:101D60000DC04090040150900501609006017090F4
:101D70000701461657066806790699F440E00E9466
:101D80004615882369F1F501EE5FFD4FDE011196DE
:101D90009F012F5F3F4F2E173F0799F081918D9341
:101DA000FACFFE0131967F0101E010E09501AB0111
:101DB000BC018091FC019091FD010E941D0B8823C4
:101DC00079F0F60182859385A485B5850196A11DDC
:101DD000B11D82879387A487B587898190E002C06F
:101DE0008FEF9FEF0F90DF91CF911F910F91FF9099
:101DF000EF90DF90CF90BF90AF907F906F905F900B
:101E00004F900895FC01818D928D009711F00C94F4
:101E1000190E8FEF9FEF08950F931F93CF93DF93CA
:101E2000FC01818D928D0097B9F0EF010E94190E8F
:101E30008C010F3F8FEF180791F0898D9A8DFC016F
:101E40004285538564857585415051096109710941
:101E50000E945A08C80105C080E090E002C08FEFE0
:101E60009FEFDF91CF911F910F910895E4E6F0E08D
:101E70008081846080830895E4E6F0E080818B7F38
:101E800080830895E4E6F0E080818D7F80838FE198
:101E90009EE40197F1F700C00000E9E7F4E0A089B3
:101EA000B18982E08C93A485B5851C92A685B785FF
:101EB00087E68C93108EA489B58986E08C93A289DD
:101EC000B3898C9180618C93A289B3898C9188604D
:101ED0008C93A289B3898C9180688C930288F38952
:101EE000E02D80818F7D80838FE19EE40197F1F763
:101EF00000C0000062ED7EE089E794E00C94DB1204
:101F0000E4E6F0E080818F77808382E08A95F1F7C4
:101F100000C00E94361E82E08A95F1F700C0089545
:101F2000FF920F931F93CF93DF93F82E092F142F57
:101F300081E080930E048EE18093300410920F04B0
:101F40001092310486E195E00E9444120E94DA1D4D
:101F5000612F113208F060E28EE10E94981D10920C
:101F60000D0480930C04CF2DD02FCE01810F911D35
:101F70008C010C171D0731F086E195E00E94FB11E2
:101F80008993F7CFDF91CF911F910F91FF90089523
:101F9000CF9389E794E00E94E410C82F8A3029F09B
:101FA000682F89E794E00E94D4128C2FCF91089576
:101FB00089E794E00E94061118161906CCF70E94D2
:101FC000C80F8A30A9F30895F999FECF90E092BD29
:101FD00081BD60BDFA9AF99A0895F999FECF90E013
:101FE00092BD81BDF89A80B50895EF92FF921F933C
:101FF000CF93DF9300D000D0CDB7DEB7CE010196EE
:102000007C0116E0812F0E94ED0FF70181937F0183
:102010001F5F1A30B9F79A8189813C812B81230F88
:102020002F3F21F4980F81E09F3F09F080E00F904F
:102030000F900F900F90DF91CF911F91FF90EF9035
:102040000895CF93DF930E94800F81E080930E0468
:1020500088E68093300410920F041092310460E0FF
:1020600086E195E00E9444120E94DA1D64E188E650
:102070000E94981D10920D0480930C04C0E0909172
:102080000C0480910D04981721F186E195E00E94DF
:10209000FB11D82F68EC7EE089E794E00E94DB1208
:1020A000CA3028F460E389E794E00E94D4126C2FD0
:1020B00089E794E00E94381F65EC7EE089E794E0B0
:1020C0000E94DB126D2F89E794E00E943F1FCF5FD3
:1020D000D6CF80916400806880936400DF91CF91B7
:1020E00008951F93CF93DF93182FD62FC42F0E94EC
:1020F000800F81E080930E0488E680933004109274
:102100000F0410923104612F86E195E00E94441281
:10211000D11105C06C2F86E195E00E9444120E9407
:10212000DA1DD13069F461E088E60E94981D1092B2
:102130000D0480930C0486E195E00E94FB11C82FEA
:10214000809164008068809364008C2FDF91CF9130
:102150001F9108950895CF92DF92EF92FF920F930F
:102160001F93CF93DF936C017A018B01C0E0D0E025
:10217000CE15DF0581F0D8016D918D01D601ED916D
:10218000FC910190F081E02DC6010995892B11F099
:102190002196EECF7E01C701DF91CF911F910F9164
:1021A000FF90EF90DF90CF900895FC01538D448D08
:1021B000252F30E0842F90E0821B930B541710F0F2
:1021C000CF96089501970895FC01918D828D9817FF
:1021D00061F0828DDF01A80FB11D5D968C91928D0B
:1021E0009F5F9F73928F90E008958FEF9FEF089508
:1021F000FC01918D828D981731F0828DE80FF11DD1
:10220000858D90E008958FEF9FEF0895FC01918DEB
:10221000228D892F90E0805C9F4F821B91098F73E4
:102220009927089589E794E00E94061121E0892BFF
:1022300009F420E0822F0895FC01848DDF01A80FAE
:10224000B11DA35ABF4F2C91848D90E001968F73DE
:102250009927848FA689B7892C93A089B1898C91FD
:10226000837080648C93938D848D981306C002884C
:10227000F389E02D80818F7D80830895EF92FF9216
:102280000F931F93CF93DF93EC0181E0888F9B8D99
:102290008C8D981305C0E889F989808185FD26C059
:1022A000F62E0B8D10E00F5F1F4F0F731127E02EDE
:1022B0008C8DE8120CC00FB607FCFACFE889F989BB
:1022C000808185FFF5CFCE010E941C11F1CF8B8D4F
:1022D000FE01E80FF11DE35AFF4FF0829FB7F8941B
:1022E0000B8FEA89FB89808180620AC09FB7F894CE
:1022F000EE89FF896083E889F98980818370806431
:1023000080839FBF81E090E0DF91CF911F910F917B
:10231000FF90EF900895CF93DF93EC01888D882391
:10232000C9F0EA89FB89808185FD05C0A889B98942
:102330008C9186FD0FC00FB607FCF5CF808185FF1D
:10234000F2CFA889B9898C9185FFEDCFCE010E948B
:102350001C11E7CFDF91CF91089580E090E0892BA9
:1023600029F00E94121181110C940000089585ED4E
:102370008093BC008091BC0084FDFCCF1092780457
:1023800008954091D901262F30E0240F311D2132CC
:102390003105DCF4209178042430C9F4FC0180E09C
:1023A00090E0861758F43091D9012191DC01A754AF
:1023B000BE4FA30FB11D2C930196F3CF8091D9018D
:1023C000680F6093D90180E0089581E0089582E06C
:1023D0000895089508950895E0910D0480910C04E6
:1023E000E81730F4F0E0EE5CFB4F808190E0089558
:1023F0008FEF9FEF089590910D0480910C04981732
:1024000050F4E92FF0E0EE5CFB4F208130E09F5F5D
:1024100090930D0402C02FEF3FEFC9010895809102
:102420000C0490E020910D04821B91090895CF9235
:10243000DF92EF92FF920F931F93CF93DF937C0174
:10244000CB018A0120910E04222389F0EB016B015C
:10245000C40ED51ECC15DD0569F06991D701ED914B
:10246000FC910190F081E02DC7010995F3CF642F15
:102470000E94C111C801DF91CF911F910F91FF9070
:10248000EF90DF90CF900895CF93DF931F92CDB759
:10249000DEB7698320910E042223D1F0209131040C
:1024A000203240F021E030E0FC013383228380E0E1
:1024B00090E015C080910F04E82FF0E0E05FFB4F43
:1024C000998190838F5F80930F048093310405C0BE
:1024D00061E0CE0101960E94C11181E090E00F9071
:1024E000DF91CF9108950E94D92ECF93DF931F9251
:1024F000CDB7DEB7698341E050E0BE016F5F7F4F2B
:102500000E941D0C0F90DF91CF9108951F920F92A2
:102510000FB60F9211242F933F934F935F936F93B6
:102520007F938F939F93AF93BF93EF93FF93E0912C
:102530000201F09103010995FF91EF91BF91AF91D5
:102540009F918F917F916F915F914F913F912F91CB
:102550000F900FBE0F901F9018951F920F920FB6FD
:102560000F9211242F933F934F935F936F937F9319
:102570008F939F93AF93BF93EF93FF93E0910001ED
:10258000F09101010995FF91EF91BF91AF919F915A
:102590008F917F916F915F914F913F912F910F900C
:1025A0000FBE0F901F901895DC01ED91FC910190EA
:1025B000F081E02D0994EF92FF920F931F93CF9338
:1025C000DF938C017B01C0E0D0E0F701EC0FFD1F31
:1025D0006491662361F0D801ED91FC910190F08146
:1025E000E02DC8010995892B11F02196EECFCE017F
:1025F000DF91CF911F910F91FF90EF90089561159A
:10260000710579F0FB0101900020E9F73197AF01E6
:10261000461B570BDC01ED91FC910280F381E02D0C
:10262000099480E090E008958F929F92AF92BF92BC
:10263000EF92FF920F931F93CF93DF93CDB7DEB747
:10264000A1970FB6F894DEBF0FBECDBF7C01FA0193
:10265000CB0119A2223008F42AE08E010F5D1F4F32
:10266000822E912CA12CB12CBF01A50194010E94B6
:10267000CA2CF901CA01015011096A3014F4605DD5
:1026800001C0695CD8016C93232B242B252B61F7A7
:10269000B801C7010E94FF12A1960FB6F894DEBFE1
:1026A0000FBECDBFDF91CF911F910F91FF90EF90A3
:1026B000BF90AF909F908F90089565E971E00C9462
:1026C000FF120F931F93CF93DF93EC010E94D4125C
:1026D0008C01CE010E945D13800F911FDF91CF917D
:1026E0001F910F9108950F931F93CF93DF93EC01E8
:1026F0000E94DB128C01CE010E945D13800F911F9E
:10270000DF91CF911F910F9108951F920F920FB6F5
:102710000F9211242F933F934F935F936F937F9367
:102720008F939F93AF93BF93EF93FF9389E794E0C9
:102730000E941C11FF91EF91BF91AF919F918F91DA
:102740007F916F915F914F913F912F910F900FBEAD
:102750000F901F9018951F920F920FB60F92112491
:102760002F938F939F93EF93FF93E0918904F091C0
:102770008A048081E0918F04F091900482FD12C060
:102780009081809192048F5F8F73209193048217C0
:1027900051F0E0919204F0E0E758FB4F958F809361
:1027A000920401C08081FF91EF919F918F912F91B1
:1027B0000F900FBE0F901F9018951F920F920FB69B
:1027C0000F9211242F933F934F935F936F937F93B7
:1027D0008F939F93AF93BF93EF93FF938091B90033
:1027E000887F803609F49CC068F5883209F45BC0A4
:1027F00090F4803109F454C038F4882309F4F6C009
:10280000883009F44DC0F6C0883109F44CC08032DC
:1028100009F45DC0EFC0803409F468C048F4803327
:1028200009F455C0883309F0E5C080937604D8C018
:10283000803509F44FC0883509F45DC0883409F04B
:10284000D9C0D6C0883909F4C7C0A8F4883709F4BC
:1028500067C038F4883609F463C0803709F460C073
:10286000C9C0883809F4B8C0803909F45FC080381D
:1028700009F0C0C05BC0803B09F486C038F4803AE0
:1028800009F466C0883A09F47FC0B4C0803C09F4FA
:10289000A7C0883C09F4A4C0883B09F48AC0AAC038
:1028A0008091730410C090917504809174049817FE
:1028B00070F5E091750481E08E0F80937504F0E06F
:1028C000EE5AFB4F80818093BB0085EC86C08093DD
:1028D00076048EC0E091750481E08E0F80937504BC
:1028E0008091BB00F0E0EE5AFB4F8083909175041D
:1028F000809174046EC0E091750481E08E0F809326
:1029000075048091BB00F0E0EE5AFB4F808380910C
:10291000770481116DC081E08093720484EA61C004
:1029200083E0809378041092FB01CFCF8091FB016C
:10293000803208F051C0E091FB0181E08E0F80935E
:10294000FB018091BB00F0E0E552FE4F8083BDCFDC
:1029500085EC8093BC00109278048091FB0180325A
:1029600030F4E091FB01F0E0E552FE4F10826091FF
:10297000FB0170E0E0910804F09109048BED91E017
:1029800009951092FB0136C084E080937804109280
:10299000DA011092D901E0910A04F0910B04099533
:1029A0008091D901811105C081E08093D9011092F5
:1029B000B901E091DA0181E08E0F8093DA01F0E055
:1029C000E754FE4F80818093BB009091DA018091A3
:1029D000D901981708F479CF85E88093BC000AC024
:1029E00085EC8093BC001092780404C010927604A9
:1029F0000E94B711FF91EF91BF91AF919F918F917D
:102A00007F916F915F914F913F912F910F900FBEEA
:102A10000F901F9018958091B4018823A9F14091DF
:102A2000040150910501609106017091070122E0B7
:102A300032E08091FC019091FD010E94B10B811167
:102A400002C080E008954091B5015091B6016091B7
:102A5000B7017091B801411551056105710591F0FB
:102A600022E032E08091FC019091FD010E94B10BC7
:102A7000882339F31092B5011092B6011092B70174
:102A80001092B8011092B40181E008958F929F9244
:102A9000AF92BF92EF92FF920F931F93CF934B0190
:102AA0005C01C42F8091040190910501A091060161
:102AB000B091070188159905AA05BB0501F10E948F
:102AC0000B15811102C080E020C082E0E82E82E078
:102AD000F82E00E012E020E030E0B501A401809182
:102AE000FC019091FD010E941D0B882361F38092EF
:102AF000040190920501A0920601B0920701809115
:102B0000B401C82BC093B40181E0CF911F910F9104
:102B1000FF90EF90BF90AF909F908F9008954F924D
:102B20005F926F927F928F929F92AF92BF92CF925D
:102B3000DF92EF92FF920F931F93CF93DF93EC01FD
:102B4000423051056105710510F480E078C0898537
:102B50009A85AB85BC850196A11DB11D841795078B
:102B6000A607B70790F3CB88DC88ED88FE888F89AD
:102B7000803129F4BB27A72F962F852F09C0DB01B1
:102B8000CA01E7E0B695A79597958795EA95D1F79D
:102B9000480159012A013B01C80ED91EEA1EFB1E3D
:102BA0008091040190910501A0910601B091070167
:102BB000C816D906EA06FB0681F48F898031A9F48C
:102BC000B301A201552766277727440F551FFA0145
:102BD000EE5FFD4F9182808219C040E0C701B601CF
:102BE0000E9446158111E9CFB0CFB301A2014F7702
:102BF000552766277727440F551F440F551FFA01A5
:102C0000EE5FFD4F80829182A282B3828091B401F7
:102C100081608093B4018A89823080F08D819E81A9
:102C2000AF81B885C80ED91EEA1EFB1EC092B50141
:102C3000D092B601E092B701F092B80181E0DF9145
:102C4000CF911F910F91FF90EF90DF90CF90BF90A9
:102C5000AF909F908F907F906F905F904F9008956E
:102C60008F929F92AF92BF92CF92DF92EF92FF929C
:102C70000F931F93CF93DF93FC0181859285A385EA
:102C8000B4850196A11DB11D84179507A607B70746
:102C900010F480E05BC083889488A588B688878913
:102CA000803129F4BB27A72F962F852F09C0DB0180
:102CB000CA01C7E0B695A79597958795CA95D1F7AC
:102CC000E9016A017B018F01BC01CD01680D791D0D
:102CD0008A1D9B1D8090040190900501A090060123
:102CE000B0900701681579058A059B0591F4F801F4
:102CF00087898031A1F4DD24EE24FF24C601880FEA
:102D0000991FFC01EE5FFD4F80819181A0E0B0E052
:102D100018C040E00E9446158111E9CFBACFE8946F
:102D2000C7F8DD24EE24FF24C601880F991F880F01
:102D3000991FFC01EE5FFD4F80819181A281B381DB
:102D4000BF7088839983AA83BB8381E0DF91CF9191
:102D50001F910F91FF90EF90DF90CF90BF90AF90B9
:102D60009F908F9008952F923F924F925F926F9213
:102D70007F928F929F92AF92BF92CF92DF92EF920B
:102D8000FF920F931F93CF93DF93CDB7DEB72B97AF
:102D90000FB6F894DEBF0FBECDBF7C01FE013196A9
:102DA000CE010C966F0130E231938E179F07E1F749
:102DB000DA0130E087E09D91992331F19E3231F4C0
:102DC0008A3009F45AC138E08AE0F5CFE7EFFEE037
:102DD0004491442321F031969413FACF4EC18317C6
:102DE00008F44BC14FED490F4E3508F046C141E0A4
:102DF000430FF601E30FF11D3FE9390F3A3108F4B3
:102E000090529083342FD7CF8981803209F435C115
:102E1000322E8B01DB015B968D919C915C97F701C3
:102E2000948F838F16961D921D921D921C92199756
:102E3000FB011286138614861586B12CF801828553
:102E40009385A485B58543895489658976898417D6
:102E50009507A607B70708F05BC025E0B695A795CC
:102E6000979587952A95D1F7F82FFF70AF2ED80147
:102E700015968C91823008F400C1C8010E94190E89
:102E800097FDFBC0F80182859385A485B5854F9693
:102E9000A11DB11D82879387A487B587F0E2AF9EFD
:102EA000B00111246E5F7D4F6115710509F4E5C015
:102EB000DB018C91882319F0853EC1F4E0C0B1108C
:102EC0000EC0F701A28A8091040190910501A091A2
:102ED0000601B091070186879787A08BB18BDB0134
:102EE0008C91882399F0BB24B394A8CF4BE050E099
:102EF000C6010E94DE2E892B09F0A0CF832D80739E
:102F0000803309F4BAC0432D6A2DB3C0BB24B394F7
:102F1000832D8271823109F0B0C0BB2039F0C70126
:102F20000E941F1F009709F078C0A7C0F801858193
:102F3000823009F4A2C0C8010E946209882309F402
:102F40009CC0D8015B96ED91FC915C9716968D9094
:102F50009D90AD90BC901997B2E08B1A9108A10892
:102F6000B108058404C0880C991CAA1CBB1C0A94D7
:102F7000D2F786859785A089B189880E991EAA1EE9
:102F8000BB1E2480E1E08E1A9108A108B10822201E
:102F900009F124013501420C511C611C711C0E9475
:102FA0000B15882309F469C0E2E0F2E0119224E0F5
:102FB000E230F207D9F74092040150920501609285
:102FC0000601709207018091B40181608093B40181
:102FD0002A94DDCFD8015B96ED91FC915C9780E05F
:102FE00092E0A0E0B0E0058404C0880F991FAA1FFA
:102FF000BB1F0A94D2F7F801438954896589768901
:10300000840F951FA61FB71F838B948BA58BB68B40
:10301000D70152961C9282E092E020E2FC011192CC
:103020002A95E9F72BE0F601DC0101900D922A9533
:10303000E1F721E238E2DC0151963C932E93509760
:1030400040E058E01F965C934E931E9753963C9336
:103050002E93529759963C932E93589757965C937C
:103060004E9356970E940B15882339F0432DF70194
:103070006289C7010E94F10805C080E003C0B11059
:1030800032CF1FCF2B960FB6F894DEBF0FBECDBF49
:10309000DF91CF911F910F91FF90EF90DF90CF9034
:1030A000BF90AF909F908F907F906F905F904F9068
:1030B0003F902F9008958F929F92AF92BF92CF92A0
:1030C000DF92EF92FF92CF93DF93C82F84E295E0D7
:1030D0009093FD018093FC01CC2369F1C53010F081
:1030E00080E00CC140E060E070E0CB010E9446153A
:1030F0008823B1F320E1C29FC00111248E509E4F5E
:10310000FC01E254FE4F20812F7751F73C9640811D
:10311000518162817381443651056105710500F367
:103120003497C080D180E280F380C114D104E104DF
:10313000F10421F4D5CFC12CD12C760140E0C70198
:10314000B6010E944615882359F280910D02909194
:103150000E028115924021F6A0911202AA2309F4D1
:10316000BFCF60911002709111026115710509F4D1
:10317000B7CF20910F02222309F4B2CFA0934205CA
:103180002093340580E030E041E050E0C82FFA01A0
:10319000082E02C0EE0FFF1F0A94E2F72E173F071A
:1031A00039F08F5FC83091F789E080933D0598CF63
:1031B00080933D05209118023091190221153105A7
:1031C00019F040E050E008C020912602309127021B
:1031D00040912802509129022093350530933605FD
:1031E000409337055093380546015701860E971EC8
:1031F000A11CB11C8092430590924405A092450504
:10320000B0924605E0911302F0911402F093490543
:10321000E0934805B0E00E94612B860E971EA81E21
:10322000B91E80924A0590924B05A0924C05B0922F
:103230004D0585E0EE0FFF1F8A95E1F7E150FE4F47
:10324000EF2FFF27E6958E0E9F1EA11CB11C8092CA
:103250003E0590923F05A0924005B0924105209115
:103260001502309116022115310521F0A90160E007
:1032700070E008C040912202509123026091240224
:1032800070912502D701C60188199909AA09BB09BD
:10329000840F951FA61FB71F04C0B695A7959795D5
:1032A0008795CA95D2F78093390590933A05A093F4
:1032B0003B05B0933C05853F2FE09207A105B10582
:1032C00010F48CE018C0853F9F4FA105B10510F4A4
:1032D00080E111C080912E0290912F02A0913002C6
:1032E000B091310280934A0590934B05A0934C0511
:1032F000B0934D0580E28093470581E0DF91CF9147
:10330000FF90EF90DF90CF90BF90AF909F908F9005
:1033100008952F923F924F925F926F927F928F9279
:103320009F92AF92BF92CF92DF92EF92FF920F9354
:103330001F93CF93DF93CDB7DEB7C656D1090FB633
:10334000F894DEBF0FBECDBF6C015B0119A218A2BD
:103350008DE591E09F8F8E8F1BA21C821B829A832A
:1033600089831E824E018EE1880E911CC4010E9449
:103370007C2075018E010F5F1F4F240118016FE241
:1033800070E0C7010E94F42E009709F442C0F701D3
:1033900020812F3221F4FFEFEF1AFF0AF0CF8E19B0
:1033A0008D3008F08CE0682E712CA301B701CE019E
:1033B000885A9F4F0E94FF2EE8E5F0E0EC0FFD1FBA
:1033C000E60DF71D1082C8010E945609F80185819B
:1033D000882351F01EAE1DAE8DE591E09CAF8BAF02
:1033E00021961FAE219721C021E0AE01485A5F4FC0
:1033F000B201C8010E94B316882361F3E60CF71CE2
:10340000C2010E945609942D852D2801092F182FDD
:10341000B6CFC7018A199B09A7969FAF8EAFA79712
:10342000B201CE01CB960E94C80DA796EEADFFADBE
:10343000A797AE0EBF1EF5018081811109C0BE01A4
:10344000655C7F4FC1010E94C80D48E951E039C059
:1034500019A218A28DE591E09F8F8E8F1BA2219655
:103460008FAD2197811113C0F6011382128288EE6D
:1034700093E0A0E0B0E084839583A683B78387E8D8
:1034800091E091838083128E118E14861EC027E1F5
:10349000A501BE01655C7F4FC4010E94B31688235D
:1034A00019F3CE01CB960E94560949A95AA96BA9D6
:1034B0007CA9C4010E945A08B401C1010E94C80D30
:1034C000A501B101C6010E94511FC601CA59DF4FB3
:1034D0000FB6F894DEBF0FBECDBFDF91CF911F9125
:1034E0000F91FF90EF90DF90CF90BF90AF909F90A3
:1034F0008F907F906F905F904F903F902F900895A6
:103500000E94800F43E069E28FEF91E00E94900FEC
:103510006091FF01062E000C770B880B990B0E941F
:10352000442A60930C0170930D0180930E019093D7
:103530000F01E4E6F0E08081806880830895FF92C7
:103540000F931F93CF93DF93C0910304D091040492
:1035500000910504F09006041091070461E17FE0FA
:1035600089E794E00E94DB126F2D89E794E00E94C6
:10357000381F6FE289E794E00E94D412602F89E738
:1035800094E00E94381F6FE289E794E00E94D41211
:10359000612F89E794E00E94381F60E289E794E098
:1035A0000E94D4126D2F89E794E00E94381F6AE3CD
:1035B00089E794E00E94D412CA3028F460E389E7D6
:1035C00094E00E94D4126C2F89E794E0DF91CF91B0
:1035D0001F910F91FF900C94381F8F929F92AF9282
:1035E000BF92CF92DF92EF92FF920F931F93CF93F0
:1035F000DF936B017C01142F9B01AC010E94C52C51
:10360000882319F06AE971E027C046015701E89460
:10361000B7F82FEF3FEF4FE75FE7C501B4010E9416
:10362000C52C81110DC02FEF3FEF4FE75FE7C501BC
:10363000B4010E943D2A18161CF46EE971E00CC01A
:103640002FEF3FEF4FE75FE4C701B6010E94C02CA8
:10365000181694F462EA71E089E794E0DF91CF9163
:103660001F910F91FF90EF90DF90CF90BF90AF90A0
:103670009F908F900C94FF122FEF3FEF4FE75FEC7E
:10368000C701B6010E943D2A87FDE4CF20E030E06B
:10369000A901C701B6010E943D2A87FF0BC06DE258
:1036A00089E794E00E94D412EC01F7FAF094F7F85D
:1036B000F09402C0C0E0D0E000E060E070E080E0A4
:1036C0009FE3101741F020E030E040E251E40E9417
:1036D0001F2C0F5FF6CFA70196010E94B32B6B0141
:1036E0007C010E94912C4B015C012AE0AB01BC01E2
:1036F00089E794E00E941413C80FD91F1123C9F160
:10370000C501B4010E94422A9B01AC01C701B60168
:103710000E94B22B6B017C016EE289E794E00E946B
:10372000D412C80FD91F20E030E040E251E4C701B5
:10373000B6010E94A32A4B015C010E94912C6B01EF
:10374000E12CF12C2AE0B701A60189E794E00E9460
:103750001413C80FD91FC701B6010E94422A9B014A
:10376000AC01C501B4010E94B22B6B017C01115068
:10377000D1F6CE01DF91CF911F910F91FF90EF9085
:10378000DF90CF90BF90AF909F908F90089583303F
:1037900081F028F4813099F08230A1F008958730CB
:1037A000A9F08830B9F08430D1F4809180008F7D09
:1037B00003C0809180008F7780938000089584B546
:1037C0008F7702C084B58F7D84BD08958091B0004D
:1037D0008F7703C08091B0008F7D8093B0000895F3
:1037E0001F93CF93DF93282F30E0F901E75AF04F72
:1037F0008491F901EB5BF04FD491F901EF5CF04F4C
:10380000C491CC23C1F0162F81110E94C71BEC2F4D
:10381000F0E0EE0FFF1FE95FF04FA591B4919FB765
:10382000F894111104C08C91D095D82302C0EC916A
:10383000DE2BDC939FBFDF91CF911F910895CF9333
:10384000DF9390E0FC01EB5BF04F2491FC01EF5C17
:10385000F04F8491882361F190E0880F991FFC015B
:10386000E35EF04FC591D491FC01E95FF04FA59163
:10387000B491611109C09FB7F89488812095822383
:103880008883EC912E230BC0623061F49FB7F894CB
:103890008881322F309583238883EC912E2B2C93B3
:1038A0009FBF06C08FB7F894E8812E2B28838FBF67
:1038B000DF91CF9108958F929F92AF92BF92CF9256
:1038C000DF92EF92FF92CF9380915305882321F0EE
:1038D0008EE495E00E94560910922F0510922D0556
:1038E00010922A05109229058AE0809328050E94EB
:1038F000D0206B017C0161E0809128050E941F1C93
:1039000061E0809128050E94F01BCFB7F894809168
:10391000FE01811127C0EBE3FFE08491EFE4FFE0BB
:103920009491E82FF0E0EE0FFF1FE35EF04FA591BA
:10393000B491EC91E92321F461E08AE00E94F01B4C
:1039400061E08AE00E941F1C8CB580618CBD8CB543
:1039500080648CBD61E08DE00E941F1C61E08BE003
:103960000E941F1C8091FE018F5F8093FE01CFBFDC
:1039700082E58093220581E08093230580912205D2
:10398000909123050E94B50ACAE08FEF0E94760A43
:10399000C150D9F784E295E00E94B80A20E030E0F7
:1039A000A90160E084E295E00E94CE0AC82F8093CE
:1039B0002E05813049F00E94D0206C197D09613DAF
:1039C000774060F381E054C02AEA31E040E050E003
:1039D00068E084E295E00E94CE0A82FF03C0C093B3
:1039E0002F050EC0C4E00E947D0A80932E05C150B1
:1039F000D1F78A3A11F082E03BC082E080932F0534
:103A000080912F05823021F0812C912C540105C02A
:103A1000812C912CA12C80E4B82E20E030E0A9016B
:103A200067E384E295E00E94CE0AA501940169E271
:103A300084E295E00E94CE0A80932E05882349F007
:103A40000E94D0206C197D09613D774030F388E0F9
:103A50000FC080912F05823001F520E030E0A901F0
:103A60006AE384E295E00E94CE0A882341F086E072
:103A70008093290584E295E00E946B0A29C00E9488
:103A80007D0A807C803C19F483E080932F050E949E
:103A90007D0A0E947D0A0E947D0A84E295E00E94D0
:103AA0006B0A80E58093220581E0809323050E94C4
:103AB0005B18882341F08EE495E00E947C2091E021
:103AC000811107C005C080E00E945B188111F3CF0F
:103AD00090E0892FCF91FF90EF90DF90CF90BF9033
:103AE000AF909F908F900895CF93DF93EEE5FFE026
:103AF0008491EAE4FFE0D491E6E3FFE0C491CC23B3
:103B000091F081110E94C71BEC2FF0E0EE0FFF1F18
:103B1000E95DF04FA591B491EC91ED2381E090E047
:103B200021F480E002C080E090E0DF91CF91089521
:103B3000909178049111FCCF91E090937804909348
:103B400077042FEF2093760410927504260F2093AC
:103B500074049093730490917304880F892B80935D
:103B6000730480917204813061F410927204809128
:103B700073048093BB008091BC0083FDF8CF85EC7B
:103B800001C085EE8093BC00809178048130E1F320
:103B900080917504861710F460917504A2E5B4E075
:103BA000E2E3F4E080E0861721F09D9191938F5F2E
:103BB000FACF089530913104313208F04BC0809132
:103BC00078048111FCCF9091300422E02093780496
:103BD00021E0209377042FEF209376041092750450
:103BE00030937404E0E1F4E0A2E5B4E020E03217A1
:103BF00021F041914D932F5FFACF109273042091E1
:103C00007304990F922B90937304909172049130E6
:103C100061F410927204909173049093BB009091A0
:103C2000BC0093FDF8CF95EC01C095EE9093BC00DD
:103C3000909178049230E1F3909176049F3F79F06F
:103C400080917604803241F080917604803331F0A7
:103C500084E005C081E003C082E001C083E01092EF
:103C60000F041092310410920E04089510920D0466
:103C700010920C0410920F041092310410927804E8
:103C800081E0809377041092720461E082E10E94E7
:103C9000F01B61E083E10E94F01BE9EBF0E0808122
:103CA0008E7F808380818D7F808380E28093B800C7
:103CB00085E48093BC0089EE91E190930B0480939E
:103CC0000A048AEE91E19093090480930804089510
:103CD000CF93DF9340E061E083E00E947110982F62
:103CE0009695969596959E70292F220F220F920FEA
:103CF0008F70890FC2E0D4E0888340E061E084E007
:103D00000E947110982F9695969596959E70292FE2
:103D1000220F220F920F8F70890F898340E061E09C
:103D200085E00E947110982F9695969596959670BD
:103D3000292F220F220F920F8F70890F8A8340E064
:103D400061E086E00E947110982F96959695969561
:103D50009670292F220F220F920F8F70890F8B835D
:103D600040E061E088E00E94711084FB992790F99F
:103D7000990F292F220F220F920F8F70890F8C839A
:103D800040E061E089E00E947110982F9695969529
:103D900096959E71292F220F220F920F8F70890FF7
:103DA0008D83DF91CF910895CF93DF93EC0181E074
:103DB00080930E048EE18093300410920F041092D1
:103DC000310486E195E00E944412688186E195E025
:103DD0000E944412DF91CF910C94DA1DCF93DF93B0
:103DE000FB0122813381DC0113963C932E931297C1
:103DF000448155816681778114964D935D936D93CF
:103E00007C931797408551856285738518964D93ED
:103E10005D936D937C931B971C96EF012C969C01F0
:103E2000275E3F4F49914D93A217B307D9F7218DD4
:103E3000328DFC01328F218FDF91CF910895CF9386
:103E4000DF93EC016E857F858889998941E00E9426
:103E50004615882341F08A8920E2829FC0011124FF
:103E60008E5F9D4F02C080E090E0DF91CF9108957A
:103E7000462F50E060E070E02AE00C9414130F939A
:103E80001F93CF93DF93EC010E94381F8C01CE016A
:103E90000E945D13800F911FDF91CF911F910F91B1
:103EA0000895EF92FF920F931F93CF93DF93EC014E
:103EB0007B018A011B821A8288EE93E0A0E0B0E0C9
:103EC0008C839D83AE83BF8387E891E09983888349
:103ED0008DE190E00E94F22C9A8F898F009779F003
:103EE0002DE1F701DC0101900D922A95E1F74CE0FC
:103EF00050E0B801CE010C960E94FF2E188EDF9183
:103F0000CF911F910F91FF90EF9008958F929F9204
:103F1000AF92BF92CF92DF92EF92FF920F931F93D7
:103F2000CF93DF9300D000D0CDB7DEB7FC01858101
:103F3000813079F5948191FF2CC04389548965893A
:103F40007689452B462B472B09F45CC07F0140E066
:103F500050E0BA01CF010E945A088823D1F0F7013E
:103F60008788908CA18CB28CC38CD48C82E090E03A
:103F7000A0E0B0E0F60180839183A283B3839E0129
:103F80002F5F3F4FB501A401C6010E943016811179
:103F900002C080E037C000E010E09801B501A40144
:103FA000C6010E948F158823A1F389809A80AB8077
:103FB000BC80F6018789803129F088EF9FEFAFEF51
:103FC000BFE004C088EF9FEFA0E0B0E0881699063C
:103FD000AA06BB06A0F2F701178A108E118E128E68
:103FE000138A148A158A168A848180688483C7019B
:103FF0000E942508882369F240E050E0BA01C70119
:104000000E945A080F900F900F900F90DF91CF9160
:104010001F910F91FF90EF90DF90CF90BF90AF90E6
:104020009F908F9008954F925F926F927F92AF9280
:10403000BF92CF92DF92EF92FF920F931F93CF9395
:10404000DF9300D000D0CDB7DEB78C0149835A830F
:104050006B837C835901C12CD12C7601412C82E0E9
:10406000582E612C712C49815A816B817C819E0173
:104070002F5F3F4FC8010E943016882351F1D301B2
:10408000C201F801058404C0880F991FAA1FBB1F35
:104090000A94D2F7C80ED91EEA1EFB1E49815A8126
:1040A0006B817C818789803129F088EF9FEFAFEFAA
:1040B000BFE004C088EF9FEFA0E0B0E048175907C9
:1040C0006A077B0780F2F501C082D182E282F38227
:1040D00081E00F900F900F900F90DF91CF911F9183
:1040E0000F91FF90EF90DF90CF90BF90AF907F90B7
:1040F0006F905F904F900895CF93DF93FC012581DF
:10410000222311F080E049C0EC0180914705803105
:10411000C1F482E08583178A108E118E128E8091F1
:10412000480590914905A0E0B0E025E0880F991F6F
:10413000AA1FBB1F2A95D1F7838B948BA58BB68BB7
:1041400019C08032F9F683E0858340914A05509189
:104150004B0560914C0570914D05478B508F618FD9
:10416000728F9F012D5E3F4F80E395E00E941320E8
:10417000882341F280E395E09C8F8B8F81E08C83D4
:104180001E821F82188619861A861B861C861D862B
:104190001E861F86188A198A1A8ADF91CF91089580
:1041A0002FB7F8946091AB057091AC058091AD0587
:1041B0009091AE052FBF08951F920F920FB60F92E8
:1041C00011242F933F938F939F93AF93BF9380912D
:1041D000AB059091AC05A091AD05B091AE053091C5
:1041E000AA0526E0230F2D3720F40296A11DB11D4C
:1041F00005C029E8230F0396A11DB11D2093AA0530
:104200008093AB059093AC05A093AD05B093AE053C
:104210008091A6059091A705A091A805B091A90548
:104220000196A11DB11D8093A6059093A705A093AB
:10423000A805B093A905BF91AF919F918F913F9130
:104240002F910F900FBE0F901F901895CF93DF9373
:10425000CDB7DEB7C456D1090FB6F894DEBF0FBE96
:10426000CDBF789484B5826084BD84B5816084BDFF
:1042700085B5826085BD85B5816085BD80916E0004
:10428000816080936E001092810080918100826035
:104290008093810080918100816080938100809172
:1042A00080008160809380008091B1008460809361
:1042B000B1008091B00081608093B00080917A005D
:1042C000846080937A0080917A00826080937A0083
:1042D00080917A008E7F80937A0080917A00806846
:1042E00080937A001092C10010928805109289057F
:1042F00010928B0510928A0581E090E0A0E0B0E07A
:1043000080938C0590938D05A0938E05B0938F05B7
:1043100010929005109291051092920510929305BB
:10432000109294051092950510929605109297059B
:10433000109298051092990560E082E00E941F1C7F
:1043400062E083E00E941F1C60E085E00E941F1C69
:1043500061E084E00E941F1C60E084E00E94F01B8A
:104360000E94800F0E94361E82E3898360E2CE01A4
:1043700001960E94D41E41E060E2CE0101960E94A7
:10438000900F8981823361F5198262E2CE01019634
:104390000E94D41E41E062E2CE0101960E94900F7D
:1043A000898181111DC084E0898363E2CE01019679
:1043B0000E94D41E41E063E2CE0101960E94900F5C
:1043C0008981843069F480E8898364E2CE010196B2
:1043D0000E94D41E41E064E2CE0101960E94900F3B
:1043E0004AE360E08FE00E94711042E060E080E10B
:1043F0000E94711044E060E081E10E94711042E08F
:1044000060E081E00E94711040E860E082E00E947C
:10441000711081E298E090930101809300018091F6
:104420006900836080936900E89A8DE198E0909339
:1044300003018093020180916900837F88608093EB
:104440006900E99AE898E99A0E94681E0E94F50FAF
:10445000882399F081E08093950580E00E94ED0F1C
:104460008093960581E00E94ED0F8093970582E08E
:104470000E94ED0F8093990502C01092950510924D
:104480007A00809164008160809364008091640070
:1044900080628093640080916400886080936400EF
:1044A00080916400806480936400809164008068DF
:1044B00080936400809164008260809364008091A6
:1044C00064008460809364000E94741D892B99F4B9
:1044D0008091920581110FC081E0809392050E9426
:1044E000420F80919505811106C068E670E089E76A
:1044F00094E00E94DB129924939427E8222E21E075
:10450000322E3DE5A32E31E0B32E0E94741D892B7F
:1045100091F48091920581110EC0909292050E94B3
:10452000420F80919505811106C066E77EE089E71C
:1045300094E00E94DB1280919205882309F43AC529
:1045400089E794E00E940611181619060CF032C58E
:104550000E94C80F182F8A3009F42CC589E794E00F
:104560000E945D131736F1F144F5133509F4D0C3F9
:10457000D4F4153409F4AEC1123509F015C565EF50
:104580007DE089E794E00E94DB12E99863E27AE03B
:1045900089E794E00E94DB126FED79E089E794E00F
:1045A0000E94DB1252C2143609F476C1153609F4A2
:1045B00078C1133609F0F8C4CBC0103709F412C221
:1045C0003CF4183609F49FC1193609F4F3C1ECC460
:1045D000153709F4B0C3173709F43BC4133709F092
:1045E000E3C40AC36DE372E089E794E00E94DB1242
:1045F00067E072E089E794E00E94DB126091960523
:1046000089E794E00E9461136BEF71E089E794E021
:104610000E94DB120E94D80F8093960564EC71E033
:1046200089E794E00E94DB126091990589E794E0A4
:104630000E94611368EB71E089E794E00E94DB124D
:104640000E94D80F809399056EE971E089E794E0A4
:104650000E94DB126BE871E089E794E00E94DB12B4
:1046600066E771E089E794E00E94DB126AE671E098
:1046700089E794E00E94DB120E94D80F182F813343
:1046800029F0853361F46CE371E002C064E571E008
:1046900089E794E00E94DB121093970508C060E15F
:1046A00071E089E794E00E94DB1210929705609117
:1046B000960580E00E94E40F6091990582E00E94D7
:1046C000E40F6091970581E00E94E40F80E00E9472
:1046D000ED0F182F81E00E94ED0F082F82E00E945D
:1046E000ED0F2091960590919705091302C091E076
:1046F000121390E020919905821327C0992329F184
:1047000065E989E00E94E40F6AE688E00E94E40F10
:104710006DEB87E00E94E40F62E486E00E94E40F04
:104720000E94F50F882349F06AEE70E089E794E073
:104730000E94DB129092950508C067EB70E089E754
:1047400094E00E94DB121092950569E67EE02EC48B
:1047500080919305811103C066E572E096C0809157
:104760009005811190C00E943C0F0E945B1C6CE080
:1047700070E080E090E00E94132E7C01009731F001
:10478000DC011C9262EC72E00E94362A1EAE1DAE65
:10479000BCAEABAE21961FAE219719A218A2BF8E58
:1047A000AE8E1BA2812C712CFE01FB966F010EE4D4
:1047B00015E0882D972DF701E80FF91F20812F3282
:1047C00009F40196D701A80FB91FFE01E85AFF4F5F
:1047D00020E030E0AF016D916F3249F0662339F08F
:1047E0002F5F3F4F019661932C303105A1F7FA01FD
:1047F000E20FF31F1082F701E80FF91F20812F321B
:1048000009F40196882E792EF701E80FF91F8081AF
:10481000811197C51C821B82BA82A9821E8222E066
:10482000B801CE0101960E94B3168823A1F0CE01F3
:1048300001960E94861F882371F0CE0101960E9486
:104840001F1F009741F0E5EEDC01EC931E820E94F1
:104850000B15811105C0F5E00E341F0729F407C0C0
:1048600025E00E34120719F0C8010E945609C7014D
:104870000E948A2D69EA72E089E794E00E94DB12C7
:104880000E94360F06C06AE772E089E794E00E9452
:10489000DB126CE57EE08AC30E949F1A6FE47EE023
:1048A00085C30E949F1A6EEC72E089E794E00E9433
:1048B000DB12109292058FEF99E6A8E181509040AB
:1048C000A040E1F700C00000809164008260809306
:1048D000640070C380919005882319F066EE72E041
:1048E0000BC080919305811103C069E573E004C09A
:1048F0001092930562E373E089E794E00E94DB1273
:1049000062E47EE053C36DE975E089E794E00E94BC
:10491000DB126DE775E089E794E00E94DB126CE53D
:1049200075E089E794E00E94DB1264E375E089E7B3
:1049300094E00E94DB1264E175E089E794E00E9454
:10494000DB1269EE74E089E794E00E94DB126AEC06
:1049500074E089E794E00E94DB1261EA74E089E781
:1049600094E00E94DB1266E774E089E794E00E941D
:10497000DB1263E574E089E794E00E94DB1265E0F6
:1049800074E089E794E00E94DB1262EE73E089E74D
:1049900094E00E94DB126FEB73E089E794E00E94E1
:1049A000DB126DE773E089E794E00E94DB1265E3B8
:1049B0007EE0FCC20E943C0F0E945B1C882329F011
:1049C0009092930566EE75E004C0109293056BEB30
:1049D00075E089E794E00E94DB120E94360F68E2DE
:1049E0007EE0E4C265E476E089E794E00E94DB12B1
:1049F0006091960589E794E00E94611368E276E091
:104A000089E794E00E94DB126091990589E794E0C0
:104A10000E9461136BE076E089E794E00E94DB126C
:104A200080919705813329F0853331F463E076E096
:104A300005C068E076E002C06BEF75E089E794E0BE
:104A40000E9473136BE17EE0B1C26DEC79E089E7FF
:104A500094E00E94DB1267EA79E089E794E00E9423
:104A6000DB1267E879E089E794E00E94DB126BE5EE
:104A700079E089E794E00E94DB1260E479E089E75D
:104A800094E00E94DB126FE279E089E794E00E94F3
:104A9000DB1263E279E089E794E00E94DB120E9476
:104AA000D80F8333B9F114F5813331F1823309F032
:104AB00087C069E978E089E794E00E94DB124AE365
:104AC00060E08FE00E94711042E060E080E10E94AF
:104AD000711044E060E081E10E94711042E060E00A
:104AE00081E00E9471106DE778E06CC08433A9F01A
:104AF000853309F46DC064C061EF78E089E794E024
:104B00000E94DB1242E060E081E00E94711061EDE2
:104B100078E058C065EF77E04CC065EA77E089E758
:104B200094E00E94DB1266E677E089E794E00E9459
:104B3000DB120E94D80F082F0E94D80F000F0056DA
:104B4000902F990F990F090F8053080F65E177E0B7
:104B500089E794E00E94DB120E94D80F182F0E9470
:104B6000D80F173434F4113444F410531A3030F0A1
:104B700008C09FE9910F963020F417531295107FCB
:104B800001C010E0873434F4813444F480538A3017
:104B900040F006C09FE9980F963010F4875301C08B
:104BA00080E0412F480F60E0802F0E94711068EC78
:104BB00076E089E794E00E94DB120E94211006C093
:104BC0006CE776E089E794E00E94DB1210E001C018
:104BD00011E06BE676E089E794E00E94DB12112396
:104BE00009F433CF62E676E089E794E00E94DB12B5
:104BF000E99A68EE7DE0DAC180919305882309F493
:104C00007EC09092900581E090E0A0E0B0E08093BB
:104C10008C0590938D05A0938E05B0938F0510920F
:104C200088051092890510928B0510928A050E94C2
:104C30003C0F19A218A288EE93E0A0E0B0E08AA38E
:104C40009BA3ACA3BDA33F8E2E8E18AE1FAA1AA69F
:104C50006AE975E0CE0101960E948919BE016F5F75
:104C60007F4FCE014E960E94EE1E69E97AE0CE019A
:104C70004E960E94DB1260919605CE014E960E94E0
:104C8000611367E87AE0CE014E960E94DB126091D4
:104C90009905CE014E960E9461136AE77AE0CE0133
:104CA0004E960E94DB1280919705813329F085335F
:104CB00031F462E77AE005C067E77AE002C06AE6AD
:104CC0007AE0CE014E960E94731366E57AE0CE013B
:104CD0004E960E94DB128FA998AD009741F00E947A
:104CE00056098FA998AD0E948A2D18AE1FAA0E945E
:104CF000360F0E94801AE89A62EA7AE002C06EEBF0
:104D00007AE089E794E00E94DB126BED7DE04EC112
:104D100080919005882331F010929005E89865EE17
:104D20007AE002C061E07BE089E794E00E94DB1258
:104D30006EEC7DE03BC164EF7BE089E794E00E948C
:104D4000DB1262ED7BE089E794E00E94DB120E94B7
:104D5000D80FC82E0E94D80FD82E61EB7BE089E7D0
:104D600094E00E94DB120E94D80F582E0E94D80FA8
:104D7000E82E6FE87BE089E794E00E94DB120E9456
:104D8000D80F682E0E94D80FF82E6EE57BE089E7D9
:104D900094E00E94DB120E94D80F782E0E94D80F58
:104DA000082F6AE37BE089E794E00E94DB120E940F
:104DB000D80F882E0E94D80F182F89E794E00E9400
:104DC0005D1380ED8E0DE82E90E1599EE00C1124CC
:104DD00080ED8F0DF82EA0E16A9EF00C1124005397
:104DE000B0E17B9E000D11241053E0E18E9E100D6A
:104DF000112440ED4D0DF0E1CF9E400D112460E0F7
:104E000088E00E9471104E2D60E086E00E947110D3
:104E10004F2D60E089E00E947110402F60E085E036
:104E20000E947110412F60E084E00E94711040E008
:104E300060E083E00E9471100E94681E0E949F1A29
:104E400069E17BE089E794E00E94DB1261EC7DE0A0
:104E5000ADC06EE37DE089E794E00E94731380901B
:104E6000890500918A0510918B0580919705813302
:104E700079F0853349F492E7C92E9AE8D92E9EE05D
:104E8000E92E9CE3F92E0CC0C12CD12C760108C070
:104E900082E0C82E8BE2D82E87E0E82E8DE3F82E34
:104EA00064E27DE089E794E00E94DB12682D89E7E7
:104EB00094E00E943F1F20E030E0A901C701B60145
:104EC0000E943D2A882309F466C0682D70E080E0C6
:104ED00090E00E94422AA70196010E94A32A2B017A
:104EE0003C016AE07DE089E794E00E94DB1242E049
:104EF000C301B2010E94ED1A64E07DE089E794E00D
:104F00000E94DB126AEE7CE089E794E00E94DB12EB
:104F100020E030E040E752E4C301B2010E94A32A3E
:104F200020E030E040E85EE30E94A32A42E00E94D5
:104F3000ED1A6FED7CE089E794E00E94DB1261EBF3
:104F40007CE089E794E00E94DB122801612C712C3F
:104F50002AE0B301A20189E794E00E94141389E7D3
:104F600094E00E945D1363E87CE089E794E00E948E
:104F7000DB12C301B2010E94422AA70196010E94DE
:104F8000A32A42E00E94ED1A6DE77CE089E794E0F5
:104F90000E94DB1206C06AE17CE089E794E00E948F
:104FA000731364EB7DE002C060E67DE089E794E086
:104FB0000E94DB1280919105882309F434C110927C
:104FC000910542E060E081E00E9471100E94681E3D
:104FD00080919005882309F426C1109188051092CC
:104FE00088051093890580918A0590918B05810F22
:104FF000911D90938B0580938A0540E061E089E0E4
:105000000E947110982F9695969596959E71292FCE
:10501000220F220F920F8F70890F8093070440E0B8
:1050200061E088E00E94711084FB992790F9990F44
:10503000292F220F220F920F8F70890F8093060461
:1050400040E061E086E00E947110982F9695969559
:1050500096959670292F220F220F920F8F70890F2D
:105060008093050440E061E085E00E947110982F74
:105070009695969596959670292F220F220F920F4E
:105080008F70890F8093040440E061E084E00E9407
:105090007110982F9695969596959E70292F220FB0
:1050A000220F920F8F70890F8093030440E061E01C
:1050B00083E00E947110982F9695969596959E7014
:1050C000292F220F220F920F8F70890F80930204D5
:1050D0000E943C0F6AE975E0CE0101960E94891991
:1050E000BE016F5F7F4F8DE695E00E94EE1E62E28B
:1050F0008DE695E00E94D412609107048DE695E05C
:105100000E94381F6DE28DE695E00E94D4126091F6
:1051100006048DE695E00E94381F6DE28DE695E06D
:105120000E94D412609105048DE695E00E94381F1C
:1051300060E28DE695E00E94D412609104048DE651
:1051400095E00E94381F6AE38DE695E00E94D41234
:10515000809103048A3028F460E38DE695E00E9494
:10516000D412609103048DE695E00E94381F6AE333
:105170008DE695E00E94D412809102048A3028F4D2
:1051800060E38DE695E00E94D412609102048DE602
:1051900095E00E94381F62E28DE695E00E94D412ED
:1051A0006CE28DE695E00E94D41240918C055091FE
:1051B0008D0560918E0570918F052AE08DE695E052
:1051C0000E9414136CE28DE695E00E94D412612FC8
:1051D0008DE695E00E943F1F80918605909187059E
:1051E000009761F00E94560980918605909187058D
:1051F0000E948A2D109287051092860580918C0559
:1052000090918D05A0918E05B0918F050196A11DFD
:10521000B11D80938C0590938D05A0938E05B0935E
:105220008F050E94360F80919405882309F486C06B
:10523000109294050E94801A60911C0170911D01CA
:1052400080911E0190911F01209120013091210138
:10525000409122015091230140900C0150900D018A
:1052600060900E0170900F01C0900801D09009016C
:10527000E0900A01F0900B010E94A32AA301920181
:105280000E94B32BA70196010E94B22B60932401C8
:10529000709325018093260190932701809124012A
:1052A00090912501A0912601B091270180932001C2
:1052B00090932101A0932201B093230180910C01CE
:1052C00090910D01A0910E01B0910F018093080102
:1052D00090930901A0930A01B0930B0180912E01D4
:1052E000882319F08130C9F029C0609124017091A0
:1052F0002501809126019091270120E030E040E8CF
:105300005FE30E94C02C1816CCF490922E0180917D
:1053100088058F5F8093880511C06091240170918A
:105320002501809126019091270120E030E040E89E
:105330005FEB0E943D2A87FD10922E010E94AD1165
:10534000E4C8D60115968C9181111DC021E0B801E9
:10535000C6010E94B316682E25E00E34120761F0D4
:10536000C8010E945609662009F481CA902F812F36
:105370008601C92ED82E1DCA882309F478CA8E0149
:10538000025E1F4FF3CFB5E00E341B0709F46FCA5E
:105390006BCAE9E7F4E01382128248EE53E060E062
:1053A00070E0448355836683778389E391E091833A
:1053B000808385EC90E09587848784EC90E09787E4
:1053C000868780EC90E0918B808B81EC90E0938BD2
:1053D000828B82EC90E0958B848B86EC90E0978BAF
:1053E000868B118E128E138E148EE6E1F5E01382F9
:1053F000128244835583668377838BE491E09183A3
:105400008083E2E2F5E080E5808381E08183E4E26D
:10541000F5E0158216821186138682E090E0A0E006
:10542000B0E084879587A687B78713A215A614A630
:105430008DE591E093A782A717A68CE0E6EAF1E05C
:10544000AAE9B5E001900D928A95E1F7EDE6F5E065
:1054500013821282448355836683778387E891E0C1
:1054600091838083128E118E14860895FB01DC01D6
:1054700005900D920020E1F708950E947F2A08F41C
:1054800081E00895E89409C097FB3EF490958095DB
:10549000709561957F4F8F4F9F4F9923A9F0F92FFA
:1054A00096E9BB279395F695879577956795B79578
:1054B000F111F8CFFAF4BB0F11F460FF1BC06F5F5E
:1054C0007F4F8F4F9F4F16C0882311F096E911C070
:1054D000772321F09EE8872F762F05C0662371F091
:1054E00096E8862F70E060E02AF09A95660F771FA5
:1054F000881FDAF7880F9695879597F90895990F81
:105500000008550FAA0BE0E8FEEF16161706E8078D
:10551000F907C0F012161306E407F50798F0621BAE
:10552000730B840B950B39F40A2661F0232B242B83
:10553000252B21F408950A2609F4A140A6958FEFA2
:10554000811D811D08950E94B62A0C94272B0E946C
:10555000192B38F00E94202B20F0952311F00C9489
:10556000102B0C94162B11240C945B2B0E94382BBF
:1055700070F3959FC1F3950F50E0551F629FF001A6
:10558000729FBB27F00DB11D639FAA27F00DB11DBF
:10559000AA1F649F6627B00DA11D661F829F222748
:1055A000B00DA11D621F739FB00DA11D621F839FCF
:1055B000A00D611D221F749F3327A00D611D231FA5
:1055C000849F600D211D822F762F6A2F11249F57F3
:1055D00050409AF0F1F088234AF0EE0FFF1FBB1FF6
:1055E000661F771F881F91505040A9F79E3F5105B5
:1055F00080F00C94102B0C945B2B5F3FE4F3983EEF
:10560000D4F3869577956795B795F795E7959F5F5E
:10561000C1F7FE2B880F911D9695879597F90895F0
:1056200097F99F6780E870E060E008959FEF80EC55
:10563000089500240A9416161706180609060895F8
:1056400000240A9412161306140605060895092E5E
:105650000394000C11F4882352F0BB0F40F4BF2BCD
:1056600011F460FF04C06F5F7F4F8F4F9F4F08950D
:1056700057FD9058440F551F59F05F3F71F0479503
:10568000880F97FB991F61F09F3F79F087950895E8
:10569000121613061406551FF2CF4695F1DF08C007
:1056A000161617061806991FF1CF86957105610524
:1056B00008940895E894BB2766277727CB0197F9CC
:1056C00008950E94A32BA59F900DB49F900DA49FB9
:1056D000800D911D112408952F923F924F925F9259
:1056E0006F927F928F929F92AF92BF92CF92DF92F2
:1056F000EF92FF920F931F93CF93DF93CDB7DEB757
:10570000CA1BDB0B0FB6F894DEBF0FBECDBF0994EA
:105710002A88398848885F846E847D848C849B8441
:10572000AA84B984C884DF80EE80FD800C811B814F
:10573000AA81B981CE0FD11D0FB6F894DEBF0FBE7E
:10574000CDBFED010895A29FB001B39FC001A39FFB
:10575000700D811D1124911DB29F700D811D1124AA
:10576000911D08955058BB27AA270E94CA2B0C945C
:10577000272B0E94192B38F00E94202B20F039F49F
:105780009F3F19F426F40C94162B0EF4E095E7FBDA
:105790000C94102BE92F0E94382B58F3BA1762078C
:1057A00073078407950720F079F4A6F50C945A2B1B
:1057B0000EF4E0950B2EBA2FA02D0B01B90190012C
:1057C0000C01CA01A0011124FF27591B99F0593F70
:1057D00050F4503E68F11A16F040A22F232F342FB8
:1057E0004427585FF3CF469537952795A795F04006
:1057F0005395C9F77EF41F16BA0B620B730B840B1B
:10580000BAF09150A1F0FF0FBB1F661F771F881FD2
:10581000C2F70EC0BA0F621F731F841F48F487952A
:1058200077956795B795F7959E3F08F0B0CF93951C
:10583000880F08F09927EE0F9795879508950E9495
:10584000332C0C94272B0E94202B58F00E94192BEC
:1058500040F029F45F3F29F00C94102B51110C9467
:105860005B2B0C94162B0E94382B68F39923B1F311
:10587000552391F3951B550BBB27AA276217730776
:10588000840738F09F5F5F4F220F331F441FAA1F0A
:10589000A9F335D00E2E3AF0E0E832D091505040C6
:1058A000E695001CCAF72BD0FE2F29D0660F771F74
:1058B000881FBB1F261737074807AB07B0E809F05A
:1058C000BB0B802DBF01FF2793585F4F3AF09E3FDF
:1058D000510578F00C94102B0C945B2B5F3FE4F394
:1058E000983ED4F3869577956795B795F7959F5F22
:1058F000C9F7880F911D9695879597F90895E1E06E
:10590000660F771F881FBB1F621773078407BA07CC
:1059100020F0621B730B840BBA0BEE1F88F7E09527
:1059200008950E94402B88F09F5798F0B92F99272F
:10593000B751B0F0E1F0660F771F881F991F1AF07A
:10594000BA95C9F714C0B13091F00E945A2BB1E05A
:1059500008950C945A2B672F782F8827B85F39F059
:10596000B93FCCF3869577956795B395D9F73EF413
:1059700090958095709561957F4F8F4F9F4F0895BB
:105980000E947F2A08F48FEF08950E947F2A880BD7
:10599000990B0895A1E21A2EAA1BBB1BFD010DC095
:1059A000AA1FBB1FEE1FFF1FA217B307E407F507CF
:1059B00020F0A21BB30BE40BF50B661F771F881FAB
:1059C000991F1A9469F760957095809590959B0141
:1059D000AC01BD01CF010895EE0FFF1F0590F491BA
:1059E000E02D09940F931F93CF93DF93823091059D
:1059F00010F482E090E0E091B105F091B20520E072
:105A000030E0A0E0B0E0309719F14081518102818F
:105A1000138148175907C8F08417950769F4109740
:105A200031F012960C93129713961C9327C0009393
:105A3000B1051093B20522C02115310519F04217A6
:105A4000530718F49A01BD01EF01DF01F801DBCF24
:105A500021153105F9F0281B390B2430310580F46C
:105A60008A819B816115710521F0FB0193838283FB
:105A700004C09093B2058093B105FE01329644C0F4
:105A8000FE01E20FF31F8193919322503109398374
:105A900028833AC02091AF053091B005232B41F403
:105AA00020913101309132013093B0052093AF0540
:105AB00020912F01309130012115310541F42DB78E
:105AC0003EB74091330150913401241B350BE091D6
:105AD000AF05F091B005E217F307A0F42E1B3F0BC2
