:100000000C9474080C94571D0C94301D0C949C088F
:100010000C949C080C949C080C949C080C949C08D0
:100020000C949C080C949C080C949C080C949C08C0
:100030000C949C080C949C080C949C080C949C08B0
:100040000C94C5240C949C080C94431E0C941D1E07
:100050000C949C080C949C080C949C080C949C0890
:100060000C94751E0C949C083E3E204C6F6767658F
:10007000723A20496E76616C6964206465766963C2
:100080006520636F6E66696775726174696F6E2E45
:1000900020526573657420636F6E6669677572615F
:1000A00074696F6E207769746820636F6D6D616E1F
:1000B00064202767270A000A3E3E204C6F67676569
:1000C000723A20436F6E66696775726174696F6E0C
:1000D00020556E7375636365737366756C2E20545B
:1000E000727920616761696E0A000A3E3E204C6F9A
:1000F000676765723A20436F6E66696775726174EF
:10010000696F6E205375636365737366756C0A005F
:100110000A3E3E204C6F676765723A205741524E47
:10012000494E473A20494E56414C4944204D65744A
:1001300065722073657474696E670A000A3E3E201A
:100140004C6F676765723A20352F3822204D6574F1
:1001500065720A000A3E3E204C6F676765723A205E
:100160003122204D657465720A003E3E205573654C
:10017000723A202020002020202035202D2D2035EF
:100180002F3822204D657465720A0020202020310E
:10019000202D2D203122204D657465720A000A3E03
:1001A0003E204C6F676765723A2053656C656374D7
:1001B000204D657465720A003E3E20557365723AA3
:1001C000202020000A3E3E204C6F676765723A206F
:1001D000496E70757420446174616C6F67676572F5
:1001E000204944204E756D6265722E2043757272EF
:1001F000656E7420494420697320003E3E2055738B
:1002000065723A202020003E3E204C6F6767657281
:100210003A20496E7075742053697465204E756D6F
:100220006265722E2043757272656E742053697414
:1002300065204E756D62657220697320000A3E3E2E
:10024000204C6F676765723A20436F6E6669677509
:1002500072696E670A002E20436F6E74696E756551
:100260003F28792F6E293A20000A3E3E204C6F67C6
:100270006765723A205741524E494E473A205468BA
:100280006973206F7065726174696F6E2077696C35
:100290006C207065726D616E656E746C792064653A
:1002A0006C65746520003E3E204C6F676765723A4E
:1002B0002046696C6520746F2072656D6F76653AB3
:1002C00020003E3E204C6F676765723A2043616EA6
:1002D0006E6F7420636C65616E20534420436172BD
:1002E00064207768696C65206C6F6767696E672E3C
:1002F000003E3E204C6F676765723A2053442043AE
:10030000617264206E6F7420696E697469616C69D2
:100310007A65642E000A3E3E204C6F676765723A2C
:10032000204578697474696E672E0A0A003E3E2083
:100330004C6F676765723A205344204361726420B2
:10034000627573792E2055736520636F6D6D616ED4
:10035000642027532720746F2073746F70206461AA
:1003600074616C6F6767696E6720616E6420747278
:100370007920616761696E2E003E3E204C6F676791
:1003800065723A2053442043617264206D61792084
:100390006E6F772062652072656D6F7665642E00E2
:1003A0003E3E204C6F676765723A2053442043619C
:1003B000726420616C726561647920656A6563743A
:1003C00065642E002020202020202020202020775F
:1003D00020202D2D205072696E7420776174657213
:1003E00020666C6F7720646174612066726F6D2087
:1003F0006C61737420636F6D706C657465207361DC
:100400006D706C650A0020202020202020202020F4
:10041000207520202D2D2055706461746520646145
:1004200074652F74696D650A00202020202020202B
:10043000202020205320202D2D2053746F70206405
:100440006174616C6F6767696E670A002020202005
:10045000202020202020207320202D2D2053746167
:10046000727420646174616C6F6767696E672028BD
:1004700077696C6C20617070656E6420746F2061A8
:100480006E79206578697374696E67206461746140
:100490006C6F672E637376290A00202020202020AD
:1004A00020202020205220202D2D20446961676EBD
:1004B0006F736520746865205254430A0020202021
:1004C00020202020202020207020202D2D20507240
:1004D000696E7420636F6E66696775726174696FA7
:1004E0006E20646174610A002020202020202020DA
:1004F0002020206C20202D2D204C697374206669EB
:100500006C6573206F6E20746865205344206361AE
:1005100072640A0020202020202020202020206932
:1005200020202D2D20496E697469616C697A6520DF
:1005300074686520534420636172640A002020209F
:1005400020202020202020206820202D2D204469DC
:1005500073706C61792068656C700A00202020201F
:10056000202020202020206720202D2D205365745E
:100570002064657669636520636F6E66696775726E
:100580006174696F6E0A0020202020202020202026
:1005900020204520202D2D20456A6563742053447A
:1005A00020636172640A0020202020202020202067
:1005B00020206520202D2D204578697420736572D8
:1005C00069616C20696E746572666163650A0020FA
:1005D000202020202020202020206420202D2D20BD
:1005E0005669657720646174652F74696D650A00CA
:1005F00020202020202020202020206320202D2D9E
:1006000020436C65616E20534420636172640A006C
:100610003E3E204C6F676765723A204C69737420C8
:100620006F6620636F6D6D616E64733A0A003E3EC3
:10063000204C6F676765723A204572726F722E2088
:1006400049732074686520534420436172642069B3
:100650006E7365727465643F003E3E204C6F676741
:1006600065723A2053442052656164792E00494EE8
:1006700056414C494400352F3822003122003E3E7D
:10068000204C6F676765723A204D65746572205320
:10069000697A653A202020202020003E3E204C6FC1
:1006A000676765723A20446174616C6F6767657251
:1006B00020494420233A20003E3E204C6F67676566
:1006C000723A205369746520233A2020202020208C
:1006D0002020202000476F6F6462796521000A3E68
:1006E0003E2052544320446F63746F723A20000AD4
:1006F0003E3E2052544320446F63746F723A204947
:1007000020646F6E277420756E6465727374616EF9
:100710006420796F757220696E7075742E20547222
:100720007920736F6D657468696E672066726F6D8E
:1007300020746865206C6973742E000A3E3E205256
:10074000544320446F63746F723A2046696E697334
:100750006865642120436865636B20746865207256
:10076000656769737465727320746F206D616B6562
:100770002073757265207468657927726520636FD0
:1007800072726563743A0A000A3E3E205254432056
:10079000446F63746F723A20576861742076616C9D
:1007A000756520776F756C6420796F75206C696B47
:1007B0006520746F2077726974653F2028737065B7
:1007C0006369667920696E2068657861646563692C
:1007D0006D616C293A203078000A3E3E2052544325
:1007E00020446F63746F723A20576869636820729F
:1007F0006567697374657220776F756C6420796FB3
:1008000075206C696B6520746F20616C7465723F34
:1008100020287272293A20000A3E3E20525443207A
:10082000446F63746F723A2049276C6C2077726949
:10083000746520776861746576657220796F7520BC
:1008400074656C6C206D6520746F2C20736F206252
:1008500065207375726520746F20646F75626C65B6
:1008600020636865636B2E000A3E3E20525443208D
:10087000446F63746F723A204865726520617265D7
:100880002074686520636F6E74656E7473206F6684
:1008900020746865205254432052656769737465FB
:1008A00072732E20596F752077696C6C2070726F8F
:1008B0006261626C792077616E74206120636F7071
:1008C00079206F662074686520504346383532338E
:1008D0002044617461736865657420746F20696E6B
:1008E000746572707265742074686573652E0A0091
:1008F0003E3E2052544320446F63746F723A20543A
:10090000696D657220726573657421000A3E3E2030
:1009100052544320446F63746F723A20526573657A
:100920007474696E6720746865205254432773207D
:10093000496E746572727570742054696D65722E9B
:100940002E2E0A003E3E2052544320446F63746FA3
:10095000723A20496E746572727570742072657394
:10096000657421000A3E3E2052544320446F637454
:100970006F723A20526573657474696E672074688B
:100980006520525443277320496E746572727570E6
:10099000742E2E2E0A003E3E20557365723A20209A
:1009A00020002020202035202D2D2046696E6973DF
:1009B000680A002020202034202D2D20416C7465F1
:1009C0007220612072656769737465720A00202065
:1009D000202033202D2D20446973706C61792074A0
:1009E00068652052544320526567697374657220AC
:1009F000636F6E74656E74730A00202020203220AD
:100A00002D2D20526573657420496E746572727560
:100A100070742054696D65720A00202020203120F6
:100A20002D2D2052652D456E61626C6520746865C0
:100A30002052544320496E746572727570740A00B6
:100A4000576861742077696C6C2069742062653F17
:100A50000A003E3E2052544320446F63746F723A42
:100A60002049276D20747261696E656420746F205F
:100A700072756E206120636F75706C652070726F87
:100A800063656475726573206F6E20796F7572206F
:100A90005254432E20003E3E2052544320446F6364
:100AA000746F723A204869212049276D2068657269
:100AB0006520746F2068656C702066697820796F96
:100AC0007572205254432E0A000A3E3E204C6F6736
:100AD0006765723A204C6F6767696E67207374614F
:100AE000727465642E000A3E3E204C6F6767657223
:100AF0003A204C6F6767696E672073746172746522
:100B0000642E003E3E204C6F676765723A20574165
:100B1000524E494E473A20436F6E666C6963746962
:100B20006E672066696C65206E616D652E2044617C
:100B300074612077696C6C20626520617070656EED
:100B400064656420746F206578697374696E6720CA
:100B500066696C652E20436F6E74696E75653F28FB
:100B6000792F6E293A20003E3E204C6F67676572F0
:100B70003A20003E3E204C6F676765723A20436121
:100B80006E6E6F74206C6F6720776974686F757410
:100B900020534420436172642E003E3E204C6F6718
:100BA0006765723A204C6F6767696E672073746F70
:100BB000707065642E003E3E204C6F676765723A28
:100BC000204E6F74206C6F6767696E672E000A3E57
:100BD0003E204C6F676765723A20446174652061FE
:100BE0006E642054696D652072657365742E000A09
:100BF0003E3E204C6F676765723A20456E746572A1
:100C0000206E6577206D696E75746520286D6D297D
:100C10003A20000A3E3E204C6F676765723A2045D5
:100C20006E746572206E657720686F757220286813
:100C3000682C2032342D686F757220636C6F636B83
:100C4000293A20000A3E3E204C6F676765723A20C1
:100C5000456E746572206E65772079656172202813
:100C60007979293A20000A3E3E204C6F6767657209
:100C70003A20456E746572206E6577206461792034
:100C8000286464293A20003E3E204C6F67676572F5
:100C90003A20456E746572206E6577206D6F6E74B4
:100CA0006820286D6D293A20003E3E204C6F676712
:100CB00065723A205570646174696E67206461746E
:100CC0006520616E642074696D652E2E2E0A003ECB
:100CD0003E204C6F676765723A20496E76616C6999
:100CE00064206D6574657220636F6E6669677572E6
:100CF0006174696F6E2E2043616E6E6F7420707226
:100D0000696E74206D6F726520666C6F7720646108
:100D100074612E20526573657420636F6E66696717
:100D200075726174696F6E20776974682027672710
:100D30002E002047616C0A003E3E204C6F676765BD
:100D4000723A20546F74616C20466C6F772073691F
:100D50006E6365206C6F6767696E6720737461727C
:100D6000743A202020003E3E204C6F676765723A3F
:100D700020546F74616C2050756C736573207369B7
:100D80006E6365206C6F6767696E6720737461724C
:100D9000743A20002047616C2F6D696E0A0A003E8C
:100DA0003E204C6F676765723A20417665726167D5
:100DB0006520466C6F773A20002047616C0A003E40
:100DC0003E204C6F676765723A20546F74616C20E7
:100DD000466C6F773A202020003E3E204C6F6767BC
:100DE00065723A20546F74616C2050756C73657332
:100DF0003A20003E3E204C6F676765723A2044619E
:100E000074612066726F6D206C6173742073616D04
:100E1000706C653A003E3E204C6F676765723A2001
:100E2000556E6B6E6F776E20636F6D6D616E642EA5
:100E3000205573652074686520636F6D6D616E6405
:100E40002022682220666F722061206C69737420F2
:100E50006F6620636F6D6D616E64732E0A3E3E2077
:100E6000557365723A202020000A3E3E2055736576
:100E7000723A202020000A3E3E20557365723A20C7
:100E80002020000A3E3E20557365723A2020200043
:100E90000A3E3E20557365723A202020000A3E3EED
:100EA00020557365723A202020003E3E204C6F672B
:100EB0006765723A2043616C6C696E67207468657F
:100EC0002052544320446F63746F722E2E2E0A00FA
:100ED0000A3E3E20557365723A202020000A3E3EAD
:100EE00020557365723A202020000A3E3E2055733B
:100EF00065723A202020000A3E3E20557365723A02
:100F0000202020000A3E3E20557365723A202020A2
:100F1000000A3E3E20557365723A202020000A3EAA
:100F20003E20557365723A202020000A3E3E20552F
:100F30007365723A202020003E3E204C6F67676543
:100F4000723A20496E76616C6964206465766963E3
:100F50006520636F6E66696775726174696F6E2E66
:100F600020526573657420636F6E66696775726180
:100F700074696F6E207769746820636F6D6D616E40
:100F800064202767270A007C3C3E5E2B3D3F2F5B99
:100F90005D3B2C2A225C0000000000250028002B6D
:100FA0000054696D652C5265636F72642C50756CCA
:100FB0007365730A00494E56414C494400352F3839
:100FC00022003122004D657465722053697A653ABA
:100FD0002000446174616C6F67676572204944202A
:100FE000233A20005369746520233A20003E3E20B6
:100FF0004C6F676765723A200000000000240027EC
:10100000002A003A200052656769737465722000F7
:101010002042797465730A00204D420A00206B4219
:101020000A000A3E3E204C6F676765723A20456EA3
:1010300064206F662066696C6573003E3E204C6FCD
:10104000676765723A2046696C6573206F6E20741D
:1010500068697320534420436172640A0A4E616DCB
:1010600065202020200953697A650A2D2D2D2D2D0C
:101070002D2D2D092D2D2D2D2D0A003E3E204C6F9E
:10108000676765723A204C6F6767657220726561A9
:1010900064792E0A3E3E20557365723A2020200066
:1010A00000000000230026002900040404040404B6
:1010B0000404020202020202030303030303010207
:1010C00004081020408001020408102001020408D6
:1010D00010200000000800020100000304070000C7
:1010E0000000000000007F2D11241FBECFEFD8E0CC
:1010F000DEBFCDBF11E0A0E0B1E0E0E6F3E602C064
:1011000005900D92A83AB107D9F725E0A8EAB1E019
:1011100001C01D92AA3AB207E1F718E0C4E7D8E08F
:1011200004C02197FE010E944C30C337D107C9F794
:101130000E940F250C94AE310C9400001F93CF93A6
:10114000DF93EC0180E2689FF0011124E95EFD4F1E
:101150009385917129F0842F827411F080E04FC043
:10116000142F6A8B80912B0190912C01A0912D015D
:10117000B0912E018E879F87A88BB98B44895589A2
:1011800060E070E0BA0155274427828D938DA0E07E
:10119000B0E0482B592B6A2B7B2B4F8B588F698FD4
:1011A0007A8F8385887151F4848D958DA68DB78D46
:1011B0008B8B9C8BAD8BBE8B81E00CC0803171F62C
:1011C0009E012D5E3F4F8B8D9C8D0E94FC238823BA
:1011D00029F284E08D83812F8F708C831E821F8281
:1011E000188619861A861B861C861D8616FF06C061
:1011F000CE01DF91CF911F910C946F2381E0DF919D
:10120000CF911F9108953F924F925F926F927F927C
:101210008F929F92AF92BF92CF92DF92EF92FF9206
:101220000F931F93CF93DF93CDB7DEB72C970FB6F5
:10123000F894DEBF0FBECDBF5C01DC015B968D90E4
:101240009C905C971696CD90DD90ED90FC90199750
:10125000C114D104E104F10439F0BFEFCB1ADB0A69
:10126000EB0AFB0A312C07C0F401C080D180E28078
:10127000F38033243394F40181859285A385B4856A
:101280009C01AD012F5F3F4F4F4F5F4F29873A873A
:101290004B875C87260137011D821E821F821886BC
:1012A000F40181859285A385B4852D813E814F818E
:1012B0005885281739074A075B0708F063C08985F6
:1012C0009A85AB85BC858C159D05AE05BF0550F490
:1012D00082E0C82ED12CE12CF12C92E0492E512C29
:1012E000612C712C9E012F5F3F4FB701A601C401F5
:1012F0000E94C820882309F445C089819A81AB8166
:10130000BC81892B8A2B8B2B41F0260137019FEF63
:10131000491A590A690A790A05C0C414D504E604B1
:10132000F70491F02D813E814F8158852F5F3F4F0B
:101330004F4F5F4F2D833E834F8358873FEFC31A34
:10134000D30AE30AF30AACCF0FEF1FEF2FEF3FE012
:10135000B301A201C4010E942720882399F0D5017E
:1013600016964D915D916D917C911997411551059E
:101370006105710549F093018201C4010E94272093
:10138000811102C080E02AC0D50116964D925D926F
:101390006D927C921997332051F0D301C2010196CE
:1013A000A11DB11DF40180839183A283B383F50154
:1013B0008789908DA18DB28D892B8A2B8B2B69F417
:1013C000D50157964D925D926D927C925A971496E4
:1013D0008C911497806814968C9381E02C960FB6AC
:1013E000F894DEBF0FBECDBFDF91CF911F910F915B
:1013F000FF90EF90DF90CF90BF90AF909F908F9035
:101400007F906F905F904F903F9008950F931F9340
:10141000CF93DF93EB010E94B9248B010E94C01788
:101420008F3F49F00E94B924601B710B6C177D0738
:10143000A8F380E001C081E0DF91CF911F910F916F
:101440000895CF93DF93EC018D81882319F18C816E
:1014500087FF1CC0CE010E94F622FC01892BD1F02F
:101460008D81823040F48B899C89AD89BE89848FBF
:10147000958FA68FB78F8F89988DA98DBA8D938FF1
:10148000828FB58BA48B8C818F778C83DF91CF91EA
:101490000C94A31F80E0DF91CF9108958F929F92CB
:1014A000AF92BF92CF92DF92EF92FF920F931F9372
:1014B000CF93DF93EC018D81811102C080E078C071
:1014C0000B891C892D893E890417150726073707C4
:1014D000A8F36A017B01823029F4CA86DB86EC8698
:1014E000FD860DC0C114D104E104F10451F41E8243
:1014F0001F82188619861A861B861C861D8681E027
:1015000057C08A849B84AC84BD84EB8DFC8D25857B
:1015100030E0275F3F4FB501A401415051096109F7
:101520007109022E04C076956795579547950A94E0
:10153000D2F7D701C6010197A109B10904C0B69538
:10154000A795979587952A95D2F784179507A607AB
:10155000B70720F089288A288B2871F44F89588D85
:10156000698D7A8D4E835F83688779874C015D0131
:101570008E010A5F1F4F16C0841B950BA60BB70B7D
:10158000F5CF4E815F816885798598018B8D9C8D23
:101590000E94C82091E0891A9108A108B108882307
:1015A00009F48CCF81149104A104B10451F795CFB3
:1015B000DF91CF911F910F91FF90EF90DF90CF902F
:1015C000BF90AF909F908F9008952F923F924F922F
:1015D0005F926F927F928F929F92AF92BF92CF92C3
:1015E000DF92EF92FF920F931F93CF93DF93CDB7CC
:1015F000DEB72C970FB6F894DEBF0FBECDBF7C01CF
:10160000DC0115962C9021106DC1FE013196CE01A2
:101610000C966F0130E231938E179F07E1F7DA01E4
:1016200030E087E09D91992331F19E3231F48A3088
:1016300009F45DC138E08AE0F5CFE7E8FFE04491C6
:10164000442321F031969413FACF51C1831708F443
:101650004EC14FED490F4E3508F049C141E0430FEF
:10166000F601E30FF11D3FE9390F3A3108F49052CA
:101670009083342FD7CF8981803209F438C12C87E9
:101680008B01FB01838D948DD7015C969C938E9387
:101690005B9716821782108611861286138614862F
:1016A0001586B12CF80182859385A485B58543897B
:1016B00054896589768984179507A607B70708F0C6
:1016C0005BC025E0B695A795979587952A95D1F7A4
:1016D000F82FFF70AF2ED80115968C91823008F448
:1016E00006C1C8010E942A1897FD01C1F801828530
:1016F0009385A485B5854F96A11DB11D82879387DB
:10170000A487B587F0E2AF9EB0011124695E7D4FDA
:101710006115710509F4EBC0DB018C91882319F088
:10172000853EC1F4E1C0B1100EC0F701A28A8091DC
:101730002B0190912C01A0912D01B0912E01868753
:101740009787A08BB18BDB018C91882399F0BB2408
:10175000B394A8CF4BE050E0C6010E948731892B9B
:1017600009F0A0CF8C858073803309F4C0C04C850C
:101770006A2DB3C0BB24B3948C858271823109F089
:10178000B6C0BB2039F0C7010E94F622009709F0CD
:1017900078C0ADC0F8018581823009F4A8C0C801C5
:1017A0000E940309882309F4A2C0D8015B96ED9139
:1017B000FC915C9716968D909D90AD90BC9019977A
:1017C000B2E08B1A9108A108B108058404C0880C06
:1017D000991CAA1CBB1C0A94D2F786859785A08900
:1017E000B189880E991EAA1EBB1E3480E1E08E1AB4
:1017F0009108A108B108332009F124013501430CF7
:10180000511C611C711C0E94A31F882309F46FC026
:10181000E7E1F2E0119224E0E731F207D9F74092D4
:101820002B0150922C0160922D0170922E0180911B
:10183000CF0181608093CF013A94DDCFD8015B96D0
:10184000ED91FC915C9780E092E0A0E0B0E005842F
:1018500004C0880F991FAA1FBB1F0A94D2F7F80172
:101860004389548965897689840F951FA61FB71F00
:10187000838B948BA58BB68BD70152961C9287E1F4
:1018800092E020E2FC0111922A95E9F72BE0F601A3
:10189000DC0101900D922A95E1F721E238E2DC01AA
:1018A00051963C932E93509740E058E01F965C93DE
:1018B0004E931E9753963C932E93529759963C9372
:1018C0002E93589757965C934E9356970E94A31F5A
:1018D000882369F04C85F7016289C7010E949E0840
:1018E000282E05C0212C03C0B11031CF1ECF822D70
:1018F0002C960FB6F894DEBF0FBECDBFDF91CF910F
:101900001F910F91FF90EF90DF90CF90BF90AF901D
:101910009F908F907F906F905F904F903F902F900F
:101920000895CF93DF93EC010E94210A882311F0E0
:101930001D8281E0DF91CF9108958FB7F894809157
:10194000A8018FBF0895CF93DF93EC018091A90187
:10195000811109C081E08093A901809137059091A0
:1019600038050E94C31760E08C81DF91CF910C9401
:10197000101461E0FC0184810E9410148091A9017F
:1019800081111092A9010895CF93DF93EC018E810C
:10199000882389F08F8198859C012F5F3F4F38877E
:1019A0002F838230924018F40E94C017F3CFCE01EB
:1019B0000E94B90C1E82DF91CF9108958F929F9261
:1019C000AF92BF92FF920F931F93CF93DF93EC01DF
:1019D000F62E49015A010E94C40CCE010E94A30CAC
:1019E0006CE271E0CE010E94060A8F2D80640E9495
:1019F000B91708E110E0D501C401002E04C0B69566
:101A0000A795979587950A94D2F70E94B917085021
:101A10001109083F8FEF180771F7FF2029F088E0C0
:101A2000F81204C087E803C085E901C08FEF0E9467
:101A3000B91710E00E94C0178A8787FF04C01F3FB4
:101A400011F01F5FF7CFDF91CF911F910F91FF90A2
:101A5000BF90AF909F908F900895AF92BF92CF921A
:101A6000DF92EF92FF920F931F93CF93DF93EC01DE
:101A70006901C801820F931F8130924008F070C045
:101A80008E81882371F088819981AA81BB81841716
:101A90009507A607B70729F48F819885C816D90638
:101AA000B0F5488359836A837B838B85833039F013
:101AB00089E0440F551F661F771F8A95D1F79A0159
:101AC000AB0161E1CE010E94DE0C882319F083E0B6
:101AD0008D8346C00E94B9245B010E94C0178A878B
:101AE0008F3F49F40E94B9246A197B096D32714015
:101AF000A0F38FE003C08E3F31F08DE08D83CE01E7
:101B00000E94B90C2DC018861F8281E08E838F81C0
:101B100098858C159D0540F40E94C0178F8198858B
:101B2000019698878F83F3CF6701E00EF11EEC14C6
:101B3000FD0431F00E94C017F60181936F01F7CFC9
:101B40008F819885080F191F18870F83898588232F
:101B500019F00115124048F0CE010E94C40C05C0D6
:101B6000CE010E94B90C80E001C081E0DF91CF91ED
:101B70001F910F91FF90EF90DF90CF90BF90AF90AB
:101B800008952F923F924F925F926F927F928F9221
:101B90009F92AF92BF92CF92DF92EF92FF920F93FC
:101BA0001F93CF93DF93EC016B014A018D8181116B
:101BB00003C08FEF9FEFD7C08C8180FFFACF4B8897
:101BC0005C886D887E884A855B856C857D85C401CF
:101BD000A0E0B0E093018201041B150B260B370B2C
:101BE000081719072A073B0718F44201841A950AB7
:101BF00054011E0126E0220E311CA114B10409F487
:101C00007EC04A855B856C857D852A0181E05822EE
:101C1000ED818B8D9C8D8A019B01F9E0369527958E
:101C200017950795FA95D1F7E23061F4FC01828DA2
:101C3000938DA48DB58DBC01CD01600F711F821FE6
:101C4000931F3FC0FC0174807A94702241145104A8
:101C5000C9F4711017C0452B462B472B49F48F89C7
:101C6000988DA98DBA8D8E839F83A887B9870AC066
:101C70004E815F816885798591010E94C820882303
:101C800009F497CFEB8DFC8D8E819F81A885B98556
:101C90000297A109B109058404C0880F991FAA1FE2
:101CA000BB1F0A94D2F74685578560897189840FD6
:101CB000951FA61FB71FBC01CD01670D711D811DAA
:101CC000911D20E032E02419350935012A153B0524
:101CD00008F439012C8126FD04C06114F2E07F066E
:101CE00081F400912B0110912C0120912D01309154
:101CF0002E016017710782079307B1F402C0C40177
:101D000032C040E00E94DE1F882309F452CFF20166
:101D1000E95EFD4FD601CF01860D971D8E179F07F7
:101D200089F021912D93FACF760183019201AB01C5
:101D3000BC018091C9019091CA010E942D0D882398
:101D400009F437CFC60CD71C8A859B85AC85BD8529
:101D5000860D971DA11DB11D8A879B87AC87BD8706
:101D6000A618B7084ACFDF91CF911F910F91FF902E
:101D7000EF90DF90CF90BF90AF909F908F907F902B
:101D80006F905F904F903F902F900895EF92FF9249
:101D90000F931F93CF93DF93EC0179014115510508
:101DA0006105710511F482E13CC08B85833039F007
:101DB00089E0440F551F661F771F8A95D1F79A0156
:101DC000AB0168E1CE010E94DE0C882311F084E0B3
:101DD00028C08EEF0E94B91787018EEFF81AF8011C
:101DE00081918F010E94B917E016F106C1F78FEFBC
:101DF0000E94B9178FEF0E94B9170E94C0178A87F7
:101E00008F71853031F081E18D83CE010E94B90C54
:101E100009C068E572E0CE010E94060A811107C080
:101E200085E18D83CE010E94B90C80E014C020E0D2
:101E300030E0A9016DE0CE010E94DE0C811109C0E5
:101E40000E94C017811105C0CE010E94B90C81E02B
:101E500002C084E1E6CFDF91CF911F910F91FF90F7
:101E6000EF9008952F923F924F925F926F927F92E0
:101E70008F929F92AF92BF92CF92DF92EF92FF929A
:101E80000F931F93CF93DF9300D000D0CDB7DEB771
:101E90008C015B011A01DC0115968C91159781303C
:101EA000C9F414968C9181FF15C082FF1DC0F80102
:101EB000438954896589768982859385A485B5850A
:101EC00084179507A607B70779F0C8010E944E0A44
:101ED00081110AC081E090E0D80113969C938E9303
:101EE000129780E090E036C1610183C05B968D91CE
:101EF0009C915C97FC0174802FEF270D2A013B0118
:101F000039E076946794579447943A95D1F7722EB6
:101F100074207A01F1E0FF22772009F476C080E096
:101F200092E08E199F0946018C159D0508F44C011D
:101F3000D8015B962D913C915C9716968D919D9161
:101F40000D90BC91A02D0297A109B109F90105845A
:101F500004C0880F991FAA1FBB1F0A94D2F7468599
:101F6000578560897189840F951FA61FB71F9C0133
:101F7000AD01270D311D411D511D29013A0181146B
:101F800032E0930609F088C080912B0190912C01DA
:101F9000A0912D01B0912E01481659066A067B06C4
:101FA00059F48FEF9FEFDC0180932B0190932C016C
:101FB000A0932D01B0932E019501B301A201809150
:101FC000C9019091CA010E94C60E882309F482CFEC
:101FD0009EEFB91AC818D908F80182859385A4859F
:101FE000B585880D991DA11DB11D82879387A48792
:101FF000B587D8011A964D915D916D917C911D9791
:10200000C114D10409F072CF87C0E114F10409F0C2
:1020100086CF16964D915D916D917C9119974115E2
:1020200051056105710559F457968D919D910D905B
:10203000BC91A02D0097A105B10541F521C09E01DD
:102040002F5F3F4F0E94C820882309F44BCF89811E
:102050009A81AB81BC81F801238D348DF9012789E8
:10206000203129F048EF5FEF6FEF7FE004C048EFC9
:102070005FEF60E070E084179507A607B70730F0C0
:10208000C8010E94030981114ACF24CFF801868339
:102090009783A087B18743CFE114F10429F5D801D4
:1020A0001A964D915D916D917C911D9753968D91EE
:1020B0009D910D90BC91A02D481759076A077B0789
:1020C00098F00E94A31F882309F404CF40922B01AB
:1020D00050922C0160922D0170922E018091CF01BF
:1020E00081608093CF0108C041E0C301B2010E942A
:1020F000DE1F882309F4EECED501F701E95EFD4F1E
:102100009F01280D391D2E173F0719F08D918193DE
:10211000FACFA80CB91C5ECFF80183899489A589F0
:10212000B68984179507A607B70738F4438B548BF5
:10213000658B768B848180688483F801848183FD3C
:1021400002C0C10107C0C8010E94210A882309F406
:10215000C1CEF7CF0F900F900F900F90DF91CF91DE
:102160001F910F91FF90EF90DF90CF90BF90AF90B5
:102170009F908F907F906F905F904F903F902F90A7
:1021800008958F929F92AF92BF92CF92DF92EF927B
:10219000FF92CF93DF93C82F89E395E09093CA0114
:1021A0008093C901CC2369F1C53010F080E00CC1E7
:1021B00040E060E070E0CB010E94DE1F8823B1F3B5
:1021C00020E1C29FC0011124895F9D4FFC01E254B0
:1021D000FE4F20812F7751F73C96408151816281DB
:1021E0007381443651056105710500F33497C08051
:1021F000D180E280F380C114D104E104F10421F420
:10220000D5CFC12CD12C760140E0C701B6010E9488
:10221000DE1F882359F280912202909123028115BA
:10222000924021F6A0912702AA2309F4BFCF609122
:102230002502709126026115710509F4B7CF20912E
:102240002402222309F4B2CFA09357052093490515
:1022500080E030E041E050E0C82FFA01082E02C0D3
:10226000EE0FFF1F0A94E2F72E173F0739F08F5F3A
:10227000C83091F789E08093520598CF809352053A
:1022800020912D0230912E022115310519F040E0E8
:1022900050E008C020913B0230913C0240913D0249
:1022A00050913E0220934A0530934B0540934C05D4
:1022B00050934D0546015701860E971EA11CB11C77
:1022C0008092580590925905A0925A05B0925B05EC
:1022D000E0912802F0912902F0935E05E0935D05FC
:1022E000B0E00E944130860E971EA81EB91E809253
:1022F0005F0590926005A0926105B092620585E04D
:10230000EE0FFF1F8A95E1F7E150FE4FEF2FFF27F9
:10231000E6958E0E9F1EA11CB11C809253059092D3
:102320005405A0925505B092560520912A0230918D
:102330002B022115310521F0A90160E070E008C0F1
:1023400040913702509138026091390270913A02FF
:10235000D701C60188199909AA09BB09840F951FDD
:10236000A61FB71F04C0B695A79597958795CA95E0
:10237000D2F780934E0590934F05A0935005B093EC
:102380005105853F2FE09207A105B10510F48CE0BF
:1023900018C0853F9F4FA105B10510F480E111C021
:1023A0008091430290914402A0914502B09146026F
:1023B00080935F0590936005A0936105B0936205DB
:1023C00080E280935C0581E0DF91CF91FF90EF90F8
:1023D000DF90CF90BF90AF909F908F9008950E9414
:1023E000BF1843E069E28CEC91E00E94CF18609145
:1023F000CC01062E000C770B880B990B0E94EC2E5B
:10240000609308017093090180930A0190930B0176
:10241000E4E6F0E080818068808308958F929F9247
:10242000AF92BF92CF92DF92EF92FF920F931F93E2
:10243000CF93DF936B017C01142F9B01AC010E94B1
:102440000E30882319F065E971E027C04601570175
:10245000E894B7F82FEF3FEF4FE75FE7C501B4010E
:102460000E940E3081110DC02FEF3FEF4FE75FE765
:10247000C501B4010E94442E18161CF469E971E0EC
:102480000CC02FEF3FEF4FE75FE4C701B6010E949A
:102490009C2F181694F46DE971E08EE894E0DF91BA
:1024A000CF911F910F91FF90EF90DF90CF90BF9051
:1024B000AF909F908F900C94A91D2FEF3FEF4FE7A7
:1024C0005FECC701B6010E94442E87FDE4CF20E0F7
:1024D00030E0A901C701B6010E94442E87FF0BC05E
:1024E0006DE28EE894E00E947E1DEC01F7FAF09414
:1024F000F7F8F09402C0C0E0D0E000E060E070E0E7
:1025000080E09FE3101741F020E030E040E251E42A
:102510000E94492E0F5FF6CFA70196010E94D82D89
:102520006B017C010E94BB2E4B015C012AE0AB01D8
:10253000BC018EE894E00E94BE1DC80FD91F112374
:10254000C9F1C501B4010E94EA2E9B01AC01C7018B
:10255000B6010E94D72D6B017C016EE28EE894E0FB
:102560000E947E1DC80FD91F20E030E040E251E4F8
:10257000C701B6010E94A12F4B015C010E94BB2E36
:102580006B01E12CF12C2AE0B701A6018EE894E062
:102590000E94BE1DC80FD91FC701B6010E94EA2EB6
:1025A0009B01AC01C501B4010E94D72D6B017C01D8
:1025B0001150D1F6CE01DF91CF911F910F91FF9075
:1025C000EF90DF90CF90BF90AF909F908F90089545
:1025D0005F926F927F928F929F92AF92BF92CF92B3
:1025E000DF92EF92FF920F931F93CF93DF93CDB7BC
:1025F000DEB7C754D1090FB6F894DEBF0FBECDBF0A
:102600005C013B0119A218A281E891E09F8F8E8F97
:102610001BA21C821B829A8389831E8200E010E029
:102620006E018EE1C80ED11C83E6E82E85E0F82EFF
:10263000F501E00FF11F80818F3211F40F5F1F4F02
:10264000D501A00FB11FFE01FB9680E090E04F0185
:102650002D912F3249F0222339F001960F5F1F4F41
:1026600021938C309105A1F7F401E80FF91F108236
:10267000F501E00FF11F80818F3211F40F5F1F4FC2
:10268000F501E00FF11F508041E0511040E020E0E3
:1026900030E0B401C701F301099581110AC0F3E6E6
:1026A000EF16F5E0FF0619F0C7010E94910C80E0DB
:1026B00029C05520B9F021E0A401B701C6010E944C
:1026C000E50A982E83E6E81685E0F806A9F0C7012A
:1026D0000E94910C992059F39E2D8F2D7601C92EC1
:1026E000D82EA6CF93E6E91695E0F90619F0C701B2
:1026F0000E94910C81E006C09920C9F2FE0131963A
:102700007F01EACFC95BDF4F0FB6F894DEBF0FBE83
:10271000CDBFDF91CF911F910F91FF90EF90DF9090
:10272000CF90BF90AF909F908F907F906F905F9071
:102730000895FF920F931F93CF93DF93C0911804D6
:10274000D091190400911A04F0901B0410911C04FC
:102750006DEE7FE08EE894E00E94851D6F2D8EE87F
:1027600094E00E9421236FE28EE894E00E947E1D97
:10277000602F8EE894E00E9421236FE28EE894E0BF
:102780000E947E1D612F8EE894E00E94212360E26A
:102790008EE894E00E947E1D6D2F8EE894E00E94EA
:1027A00021236AE38EE894E00E947E1DCA3028F45B
:1027B00060E38EE894E00E947E1D6C2F8EE894E02A
:1027C000DF91CF911F910F91FF900C9421238330C3
:1027D00081F028F4813099F08230A1F0089587309B
:1027E000A9F08830B9F08430D1F4809180008F7DD9
:1027F00003C0809180008F7780938000089584B516
:102800008F7702C084B58F7D84BD08958091B0001C
:102810008F7703C08091B0008F7D8093B0000895C2
:102820001F93CF93DF93282F30E0F901EE52FF4E34
:102830008491F901E254FF4ED491F901E655FF4E1F
:10284000C491CC23C1F0162F81110E94E713EC2F05
:10285000F0E0EE0FFF1FE956F04FA591B4919FB73E
:10286000F894111104C08C91D095D82302C0EC913A
:10287000DE2BDC939FBFDF91CF911F910895CF9303
:10288000DF9390E0FC01E254FF4E2491FC01E655F9
:10289000FF4E8491882361F190E0880F991FFC011D
:1028A000E750F04FC591D491FC01E956F04FA59146
:1028B000B491611109C09FB7F89488812095822353
:1028C0008883EC912E230BC0623061F49FB7F8949B
:1028D0008881322F309583238883EC912E2B2C9383
:1028E0009FBF06C08FB7F894E8812E2B28838FBF37
:1028F000DF91CF9108958F929F92AF92BF92CF9226
:10290000DF92EF92FF92CF9380916805882321F0A8
:1029100083E695E00E94910C1092440510924205C6
:1029200010923F0510923E058AE080933D050E947B
:10293000B9246B017C0161E080913D050E943F1448
:1029400061E080913D050E941014CFB7F89480910A
:10295000CB01811127C0E4EBF0E18491E8ECF0E1D8
:102960009491E82FF0E0EE0FFF1FE750F04FA59194
:10297000B491EC91E92321F461E08AE00E94101403
:1029800061E08AE00E943F148CB580618CBD8CB5FB
:1029900080648CBD61E08DE00E943F1461E08BE0BB
:1029A0000E943F148091CB018F5F8093CB01CFBFFA
:1029B00082E58093370581E0809338058091370563
:1029C000909138050E94C317CAE08FEF0E94B91793
:1029D000C150D9F789E395E00E94A30C20E030E0D4
:1029E000A90160E089E395E00E94DE0CC82F809386
:1029F0004305813049F00E94B9246C197D09613D7D
:102A0000774060F381E054C02AEA31E040E050E0D2
:102A100068E089E395E00E94DE0C82FF03C0C0936A
:102A200044050EC0C4E00E94C01780934305C15006
:102A3000D1F78A3A11F082E03BC082E080934405EE
:102A400080914405823021F0812C912C540105C0E5
:102A5000812C912CA12C80E4B82E20E030E0A9013B
:102A600067E389E395E00E94DE0CA501940169E229
:102A700089E395E00E94DE0C80934305882349F0AA
:102A80000E94B9246C197D09613D774030F388E0DC
:102A90000FC080914405823001F520E030E0A901AB
:102AA0006AE389E395E00E94DE0C882341F086E02A
:102AB00080933E0589E395E00E94B90C29C00E94ED
:102AC000C017807C803C19F483E0809344050E9409
:102AD000C0170E94C0170E94C01789E395E00E94AA
:102AE000B90C80E58093370581E0809338050E941A
:102AF000C110882341F083E695E00E94652491E0AF
:102B0000811107C005C080E00E94C1108111F3CF80
:102B100090E0892FCF91FF90EF90DF90CF90BF9002
:102B2000AF909F908F9008952F923F924F925F9217
:102B30006F927F928F929F92AF92BF92CF92DF92CD
:102B4000EF92FF920F931F93CF93DF93CDB7DEB732
:102B5000C756D1090FB6F894DEBF0FBECDBF4C01EA
:102B60003B01A6964FAFA69719A218A281E891E063
:102B70009F8F8E8F1BA21C821B829A8389831E8249
:102B80005E018EE1A80EB11CC5010E94652473018F
:102B9000FE0131966F0125011F016FE270E0C70150
:102BA0000E9494310097F1F1F70120812F3221F436
:102BB000FFEFEF1AFF0AF1CF8E198D3008F08CE08D
:102BC000082F10E0A801B701CE01885A9F4F0E943C
:102BD0009F31E8E5F0E0EC0FFD1FE00FF11F1082E0
:102BE000C6010E94910C21E0AE01485A5F4FB2012C
:102BF000C6010E94E50A81110AC01EAE1DAE81E821
:102C000091E09CAF8BAF21961FAE219717C0E00ECD
:102C1000F11EC2010E94910C942D852D2601C92E12
:102C2000D82EBBCFC70186199709A8969FAF8EAF44
:102C3000A897B201CE01CB960E94C617A896EEAD1A
:102C4000FFADA8976E0E7F1EF3018081811109C030
:102C5000BE01655C7F4FC1010E94C61741EA51E089
:102C600032C019A218A281E891E09F8F8E8F1BA21B
:102C700021968FAD2197811104C0C4010E941718BD
:102C800026C0A6962FADA697A301BE01655C7F4F17
:102C9000C5010E94E50A882381F3CE01CB960E94EC
:102CA000910CA6968FADA6978670863039F449A907
:102CB0005AA96BA97CA9C5010E944E0AB501C101A0
:102CC0000E94C617A301B101C4010E943A23C401A6
:102CD000C959DF4F0FB6F894DEBF0FBECDBFDF91ED
:102CE000CF911F910F91FF90EF90DF90CF90BF9009
:102CF000AF909F908F907F906F905F904F903F909C
:102D00002F900895CF93DF93CDB7DEB7E6970FB638
:102D1000F894DEBF0FBECDBF0E947B18CE014C964B
:102D20000E94171847E16CEB71E0CE0101960E94FA
:102D30009415BE016F5F7F4FCE014C960E94C52255
:102D400064EE7FE0CE014C960E94851D6091B80133
:102D5000CE014C960E94282362ED7FE0CE014C9676
:102D60000E94851D6091BB01CE014C960E942823D4
:102D700065EC7FE0CE014C960E94851D8091B901E3
:102D8000813329F0853331F46DEB7FE005C062ECCF
:102D90007FE002C065EB7FE0CE014C960E940B1EE7
:102DA00061EA7FE0CE014C960E94851DCE014C96D3
:102DB0000E940F230E947518E6960FB6F894DEBFA6
:102DC0000FBECDBFDF91CF910895DC015996ED91F3
:102DD000FC915A973097B9F083899489A589B6896F
:102DE0004285538564857585841B950BA60BB70BAF
:102DF000811520E89207A105B10538F08FEF9FE714
:102E0000A0E0B0E0089580E090E00895CF93DF93D4
:102E10001F92CDB7DEB76983DC01ED91FC91028092
:102E2000F381E02D41E050E0BE016F5F7F4F0995D7
:102E30000F90DF91CF910895089580E090E008957C
:102E400081E08093B301089581E08093B6010895F5
:102E5000CF93DF93CDB7DEB76D970FB6F894DEBF93
:102E60000FBECDBF442351F1AB01BC011C821B82BC
:102E700081E891E09A8389831E8222E0CE01019647
:102E80000E94E50A811102C090E013C0CE010196B4
:102E90000E946F238823C1F3CE0101960E94F6227F
:102EA000009791F325EEFC0120831E820E94A31F50
:102EB000982F81E0911103C080E001C081E06D9600
:102EC0000FB6F894DEBF0FBECDBFDF91CF9108954E
:102ED0001F93CF93DF93CDB7DEB76D970FB6F894FE
:102EE000DEBF0FBECDBFAB011C821B8221E831E0EB
:102EF0003A8329831E8221E0BC01CE0101960E9403
:102F0000E50A11E0811102C010E004C0CE01019673
:102F10000E94910C812F6D960FB6F894DEBF0FBE04
:102F2000CDBFDF91CF911F910895FC01818D928DCE
:102F3000009711F00C94210A0895CF93DF93EC01D0
:102F4000898D9A8D009739F481E090E09B838A8384
:102F500080E090E00BC0FC01138212820E94320FCD
:102F6000E98DFA8D22813381232B71F7DF91CF9187
:102F700008958EBD00000DB407FEFDCF8EB50895F7
:102F80008FEF0C94B9178CBD9DBD0895FC01DB013A
:102F900012968D919C9113979383828381E891E09F
:102FA0009183808314968C911497848315968C91C9
:102FB0001597858316964D915D916D917C9119972A
:102FC00046835783608771871A964D915D916D9105
:102FD0007C911D9742875387648775871E964D9114
:102FE0005D916D917C91519746875787608B718B6E
:102FF00052968C915297828B53964D915D916D9123
:103000007C915697438B548B658B768B57964D915D
:103010005D916D917C915A97478B508F618F728F24
:103020005B968D919C915C97948F838F0895FC01A2
:103030001382128288EE93E0A0E0B0E0848395834F
:10304000A683B78389E391E091838083128E118EEA
:1030500014860895CF93DF931F92CDB7DEB741E07A
:1030600050E0BE016F5F7F4F0E94C10D019719F4C0
:10307000898190E002C08FEF9FEF0F90DF91CF9199
:103080000895FC01818D928D009711F00C942A18FF
:103090008FEF9FEF08950F931F93CF93DF93FC0162
:1030A000818D928D0097B9F0EF010E942A188C0152
:1030B0000F3F8FEF180791F0898D9A8DFC014285A3
:1030C00053856485758541505109610971090E94D4
:1030D0004E0AC80105C080E090E002C08FEF9FEF6C
:1030E000DF91CF911F910F910895E4E6F0E0808188
:1030F000846080830895E4E6F0E080818B7F8083A4
:103100000895E4E6F0E080818D7F80838FE19EE486
:103110000197F1F700C00000EEE8F4E0A089B18962
:1031200082E08C93A485B5851C92A685B78587E639
:103130008C93108EA489B58986E08C93A289B3897B
:103140008C9180618C93A289B3898C9188608C93D7
:10315000A289B3898C9180688C930288F389E02DD1
:1031600080818F7D80838FE19EE40197F1F700C01D
:1031700000006BE770E18EE894E00C94851DE4E6B6
:10318000F0E080818F77808382E08A95F1F700C03C
:103190000E940D2282E08A95F1F700C00895FF9207
:1031A0000F931F93CF93DF93F82E092F142F81E0F5
:1031B000809323048EE1809345041092240410929E
:1031C00046048BE295E00E94EE1C0E94B121612F23
:1031D000113208F060E28EE10E946F211092220409
:1031E00080932104CF2DD02FCE01810F911D8C0112
:1031F0000C171D0731F08BE295E00E94A51C899306
:10320000F7CFDF91CF911F910F91FF900895CF934A
:103210008EE894E00E948E1BC82F8A3029F0682F18
:103220008EE894E00E947E1D8C2FCF9108958EE849
:1032300094E00E94B01B18161906CCF70E940719DB
:103240008A30A9F308959F92AF92BF92CF92DF92F6
:10325000EF92FF920F931F93CF93DF93CDB7DEB71B
:10326000C85BD1090FB6F894DEBF0FBECDBF0E9478
:103270007B18CE018F569F4F0E94171841E061EADC
:1032800071E0CE0101960E949415BE016F5F7F4FE1
:10329000CE018F569F4F0E94C522C655DF4FE88151
:1032A000F981CA5AD040309721F08581823008F0E8
:1032B00026C16BE370E18EE894E00E94851D01E871
:1032C00011E08EE2982E9BE5A92EB12CAC0EBD1E0E
:1032D0008CE0A80EB11CCE01855A9F4F0E94171892
:1032E000C655DF4FE880F980CA5AD040F701858182
:1032F000823008F40DC182859385A485B5858F71D0
:103300009927AA27BB27892B8A2B8B2B09F000C171
:1033100040E250E0BE016F5F7F4FC7010E94C10DC8
:10332000803209F0F5C08981882309F4F1C0853E17
:1033300079F38E3269F38C8583FDEACF22961FAE36
:103340001EAE22971FAF0EAF24961FAE2497FE012C
:10335000319680E090E02191203291F0983041F454
:10336000ACEAB0E0AC0FBD1FA80FB11D9C928F5FFF
:10337000ACEAB0E0AC0FBD1FA80FB11D2C938F5F5E
:103380009F5F9B3041F7ECEAF0E0EC0FFD1FE80F88
:10339000F11D1082C655DF4F68817981CA5AD0402D
:1033A00021E0AE0144555F4FCE01CE960E94E50A62
:1033B000882309F4ADC0BE01625C7F4FCE018196C7
:1033C0000E94C617AE0144555F4FBE016F5D7F4F2F
:1033D000CE018A589F4F0E943A23BE016A587F4F00
:1033E000CE01855A9F4F0E94C522E696EEADFFADF5
:1033F000E697309719F0858181111BC062E270E178
:103400008EE894E00E94851D0E947518C854DF4F15
:103410000FB6F894DEBF0FBECDBFDF91CF911F91E5
:103420000F91FF90EF90DF90CF90BF90AF909F9063
:103430000895B5018EE894E00E94A91D63EA71E049
:103440008EE894E00E94A91DE696EEADFFADE697EA
:10345000309729F0638974898589968903C060E073
:1034600070E0CB010E94EA2E6B017C0120E030E08D
:1034700040E854E40E949C2F1816C4F420E030E089
:1034800040E859E4C701B6010E94442E87FF0EC0F0
:1034900020E030E040E85AE3C701B6010E94A12FC6
:1034A00041E00E940E126DE170E11FC020E030E0AB
:1034B00040E859E4C701B6010E949C2F87FD0EC069
:1034C00020E030E040E855E3C701B6010E94A12F9B
:1034D00041E00E940E1268E170E107C040E0C701C0
:1034E000B6010E940E1260E170E18EE894E00E9445
:1034F000851DCE01855A9F4F0E940F23ECCE168268
:103500001782108611861286138614861586D1CEF0
:10351000CE018A589F4F0E9417185FCFF999FECFAE
:1035200090E092BD81BD60BDFA9AF99A0895F9992B
:10353000FECF90E092BD81BDF89A80B50895EF92DC
:10354000FF921F93CF93DF9300D000D0CDB7DEB7AB
:10355000CE0101967C0116E0812F0E94971AF70197
:1035600081937F011F5F1A30B9F79A8189813C816D
:103570002B81230F2F3F21F4980F81E09F3F09F00B
:1035800080E00F900F900F900F90DF91CF911F91DF
:10359000FF90EF900895CF93DF930E94BF1881E0D2
:1035A0008093230488E680934504109224041092AB
:1035B000460460E08BE295E00E94EE1C0E94B1217F
:1035C00064E188E60E946F21109222048093210416
:1035D000C0E09091210480912204981721F18BE2A0
:1035E00095E00E94A51CD82F66E070E18EE894E07B
:1035F0000E94851DCA3028F460E38EE894E00E94A2
:103600007E1D6C2F8EE894E00E94212363E070E120
:103610008EE894E00E94851D6D2F8EE894E00E9454
:103620002823CF5FD6CF80916400806880936400A8
:10363000DF91CF9108951F93CF93DF93182FD62F4B
:10364000C42F0E94BF1881E08093230488E68093F2
:1036500045041092240410924604612F8BE295E0F9
:103660000E94EE1CD11105C06C2F8BE295E00E94E8
:10367000EE1C0E94B121D13069F461E088E60E941D
:103680006F2110922204809321048BE295E00E9426
:10369000A51CC82F809164008068809364008C2FE3
:1036A000DF91CF911F9108950895CF92DF92EF920D
:1036B000FF920F931F93CF93DF936C017A018B01DD
:1036C000C0E0D0E0CE15DF0581F0D8016D918D010D
:1036D000D601ED91FC910190F081E02DC601099594
:1036E000892B11F02196EECF7E01C701DF91CF919A
:1036F0001F910F91FF90EF90DF90CF900895FC0104
:10370000538D448D252F30E0842F90E0821B930B46
:10371000541710F0CF96089501970895FC01918DEC
:10372000828D981761F0828DDF01A80FB11D5D9623
:103730008C91928D9F5F9F73928F90E008958FEF91
:103740009FEF0895FC01918D828D981731F0828D45
:10375000E80FF11D858D90E008958FEF9FEF08959C
:10376000FC01918D228D892F90E0805C9F4F821B00
:1037700091098F73992708958EE894E00E94B01BF9
:1037800021E0892B09F420E0822F0895FC01848D2B
:10379000DF01A80FB11DA35ABF4F2C91848D90E07B
:1037A00001968F739927848FA689B7892C93A08956
:1037B000B1898C91837080648C93938D848D9813E0
:1037C00006C00288F389E02D80818F7D8083089573
:1037D000EF92FF920F931F93CF93DF93EC0181E061
:1037E000888F9B8D8C8D981305C0E889F98980811D
:1037F00085FD26C0F62E0B8D10E00F5F1F4F0F7357
:103800001127E02E8C8DE8120CC00FB607FCFACF02
:10381000E889F989808185FFF5CFCE010E94C61B1A
:10382000F1CF8B8DFE01E80FF11DE35AFF4FF082BF
:103830009FB7F8940B8FEA89FB89808180620AC068
:103840009FB7F894EE89FF896083E889F9898081C0
:103850008370806480839FBF81E090E0DF91CF918F
:103860001F910F91FF90EF900895CF93DF93EC019C
:10387000888D8823C9F0EA89FB89808185FD05C090
:10388000A889B9898C9186FD0FC00FB607FCF5CFCA
:10389000808185FFF2CFA889B9898C9185FFEDCF12
:1038A000CE010E94C61BE7CFDF91CF91089580E043
:1038B00090E0892B29F00E94BC1B81110C94000020
:1038C000089585ED8093BC008091BC0084FDFCCF01
:1038D00010928D0408954091F401262F30E0240FBA
:1038E000311D21323105DCF420918D042430C9F4DE
:1038F000FC0180E090E0861758F43091F4012191AA
:10390000DC01AC52BE4FA30FB11D2C930196F3CF37
:103910008091F401680F6093F40180E0089581E0E4
:10392000089582E00895089508950895E09122048D
:1039300080912104E81730F4F0E0E95BFB4F8081CF
:1039400090E008958FEF9FEF089590912204809169
:103950002104981750F4E92FF0E0E95BFB4F208138
:1039600030E09F5F9093220402C02FEF3FEFC90128
:1039700008958091210490E020912204821B9109F6
:103980000895CF92DF92EF92FF920F931F93CF9300
:10399000DF937C01CB018A0120912304222389F04B
:1039A000EB016B01C40ED51ECC15DD0569F06991E4
:1039B000D701ED91FC910190F081E02DC7010995AF
:1039C000F3CF642F0E946B1CC801DF91CF911F9130
:1039D0000F91FF90EF90DF90CF900895CF93DF93FA
:1039E0001F92CDB7DEB76983209123042223D1F043
:1039F00020914604203240F021E030E0FC01338386
:103A0000228380E090E015C080912404E82FF0E04C
:103A1000EB5DFB4F998190838F5F809324048093AB
:103A2000460405C061E0CE0101960E946B1C81E056
:103A300090E00F90DF91CF9108950E948231CF9353
:103A4000DF931F92CDB7DEB7698341E050E0BE013E
:103A50006F5F7F4F0E94320F0F90DF91CF910895DB
:103A60001F920F920FB60F9211242F933F934F93F3
:103A70005F936F937F938F939F93AF93BF93EF93D6
:103A8000FF93E0910201F09103010995FF91EF91FD
:103A9000BF91AF919F918F917F916F915F914F9166
:103AA0003F912F910F900FBE0F901F9018951F926E
:103AB0000F920FB60F9211242F933F934F935F9362
:103AC0006F937F938F939F93AF93BF93EF93FF93E6
:103AD000E0910001F09101010995FF91EF91BF91F3
:103AE000AF919F918F917F916F915F914F913F9196
:103AF0002F910F900FBE0F901F901895DC01ED9144
:103B0000FC910190F081E02D0994EF92FF920F93C8
:103B10001F93CF93DF938C017B01C0E0D0E0F701CE
:103B2000EC0FFD1F6491662361F0D801ED91FC91CB
:103B30000190F081E02DC8010995892B11F02196A3
:103B4000EECFCE01DF91CF911F910F91FF90EF90BB
:103B500008956115710579F0FB0101900020E9F7E6
:103B60003197AF01461B570BDC01ED91FC910280B0
:103B7000F381E02D099480E090E008958F929F9268
:103B8000AF92BF92EF92FF920F931F93CF93DF9369
:103B9000CDB7DEB7A1970FB6F894DEBF0FBECDBF8D
:103BA0007C01FA01CB0119A2223008F42AE08E012F
:103BB0000F5D1F4F822E912CA12CB12CBF01A501AE
:103BC00094010E941F30F901CA01015011096A30A5
:103BD00014F4605D01C0695CD8016C93232B242B25
:103BE000252B61F7B801C7010E94A91DA1960FB648
:103BF000F894DEBF0FBECDBFDF91CF911F910F9123
:103C0000FF90EF90BF90AF909F908F90089565EADE
:103C100071E00C94A91D0F931F93CF93DF93EC01D8
:103C20000E94851D8C01CE010E94071E800F911FEE
:103C3000DF91CF911F910F9108951F920F920FB6B0
:103C40000F9211242F933F934F935F936F937F9322
:103C50008F939F93AF93BF93EF93FF938EE894E07E
:103C60000E94C61BFF91EF91BF91AF919F918F91E1
:103C70007F916F915F914F913F912F910F900FBE68
:103C80000F901F9018951F920F920FB60F9211244C
:103C90002F938F939F93EF93FF93E0919E04F09166
:103CA0009F048081E091A404F091A50482FD12C0DC
:103CB00090818091A7048F5F8F732091A804821751
:103CC00051F0E091A704F0E0E257FB4F958F80930D
:103CD000A70401C08081FF91EF919F918F912F9157
:103CE0000F900FBE0F901F9018951F920F920FB656
:103CF0000F9211242F933F934F935F936F937F9372
:103D00008F939F93AF93BF93EF93FF938091B900ED
:103D1000887F803609F49CC068F5883209F45BC05E
:103D200090F4803109F454C038F4882309F4F6C0C3
:103D3000883009F44DC0F6C0883109F44CC0803297
:103D400009F45DC0EFC0803409F468C048F48033E2
:103D500009F455C0883309F0E5C080938B04D8C0BE
:103D6000803509F44FC0883509F45DC0883409F006
:103D7000D9C0D6C0883909F4C7C0A8F4883709F477
:103D800067C038F4883609F463C0803709F460C02E
:103D9000C9C0883809F4B8C0803909F45FC08038D8
:103DA00009F0C0C05BC0803B09F486C038F4803A9B
:103DB00009F466C0883A09F47FC0B4C0803C09F4B5
:103DC000A7C0883C09F4A4C0883B09F48AC0AAC0F3
:103DD0008091880410C090918A048091890498177A
:103DE00070F5E0918A0481E08E0F80938A04F0E000
:103DF000E959FB4F80818093BB0085EC86C080939E
:103E00008B048EC0E0918A0481E08E0F80938A0437
:103E10008091BB00F0E0E959FB4F808390918A04C8
:103E2000809189046EC0E0918A0481E08E0F8093B6
:103E30008A048091BB00F0E0E959FB4F80838091B8
:103E40008C0481116DC081E08093870484EA61C095
:103E500083E080938D0410921602CFCF80911602DA
:103E6000803208F051C0E091160281E08E0F8093FD
:103E700016028091BB00F0E0EA50FE4F8083BDCF78
:103E800085EC8093BC0010928D04809116028032E4
:103E900030F4E0911602F0E0EA50FE4F108260919B
:103EA000160270E0E0911D04F0911E0486EF91E08F
:103EB00009951092160236C084E080938D0410920A
:103EC000F5011092F401E0911F04F091200409958E
:103ED0008091F401811105C081E08093F40110927A
:103EE000D401E091F50181E08E0F8093F501F0E0BF
:103EF000EC52FE4F80818093BB009091F501809140
:103F0000F401981708F479CF85E88093BC000AC0C3
:103F100085EC8093BC0010928D0404C010928B0439
:103F20000E94611CFF91EF91BF91AF919F918F9182
:103F30007F916F915F914F913F912F910F900FBEA5
:103F40000F901F9018958091CF018823A9F140917F
:103F50002B0150912C0160912D0170912E0127E1D0
:103F600032E08091C9019091CA010E94C60E811170
:103F700002C080E008954091D0015091D10160913C
:103F8000D2017091D301411551056105710591F080
:103F900027E132E08091C9019091CA010E94C60ECA
:103FA000882339F31092D0011092D1011092D201DE
:103FB0001092D3011092CF0181E008958F929F92C9
:103FC000AF92BF92EF92FF920F931F93CF934B014B
:103FD0005C01C42F80912B0190912C01A0912D01A7
:103FE000B0912E0188159905AA05BB0501F10E9423
:103FF000A31F811102C080E020C087E1E82E82E08B
:10400000F82E00E012E020E030E0B501A40180913C
:10401000C9019091CA010E942D0D882361F38092FD
:104020002B0190922C01A0922D01B0922E01809133
:10403000CF01C82BC093CF0181E0CF911F910F9189
:10404000FF90EF90BF90AF909F908F9008954F9208
:104050005F926F927F928F929F92AF92BF92CF9218
:10406000DF92EF92FF920F931F93CF93DF93EC01B8
:10407000423051056105710510F480E078C08985F2
:104080009A85AB85BC850196A11DB11D8417950746
:10409000A607B70790F3CB88DC88ED88FE888F8968
:1040A000803129F4BB27A72F962F852F09C0DB016C
:1040B000CA01E7E0B695A79597958795EA95D1F758
:1040C000480159012A013B01C80ED91EEA1EFB1EF8
:1040D00080912B0190912C01A0912D01B0912E0186
:1040E000C816D906EA06FB0681F48F898031A9F447
:1040F000B301A201552766277727440F551FFA0100
:10410000E95EFD4F9182808219C040E0C701B6018F
:104110000E94DE1F8111E9CFB0CFB301A2014F771A
:10412000552766277727440F551F440F551FFA015F
:10413000E95EFD4F80829182A282B3828091CF019D
:1041400081608093CF018A89823080F08D819E8149
:10415000AF81B885C80ED91EEA1EFB1EC092D001E1
:10416000D092D101E092D201F092D30181E0DF91AF
:10417000CF911F910F91FF90EF90DF90CF90BF9064
:10418000AF909F908F907F906F905F904F90089529
:104190008F929F92AF92BF92CF92DF92EF92FF9257
:1041A0000F931F93CF93DF93FC0181859285A385A5
:1041B000B4850196A11DB11D84179507A607B70701
:1041C00010F480E05BC083889488A588B6888789CE
:1041D000803129F4BB27A72F962F852F09C0DB013B
:1041E000CA01C7E0B695A79597958795CA95D1F767
:1041F000E9016A017B018F01BC01CD01680D791DC8
:104200008A1D9B1D80902B0190902C01A0902D0168
:10421000B0902E01681579058A059B0591F4F80187
:1042200087898031A1F4DD24EE24FF24C601880FA4
:10423000991FFC01E95EFD4F80819181A0E0B0E013
:1042400018C040E00E94DE1F8111E9CFBACFE89488
:10425000C7F8DD24EE24FF24C601880F991F880FBC
:10426000991FFC01E95EFD4F80819181A281B3819C
:10427000BF7088839983AA83BB8381E0DF91CF914C
:104280001F910F91FF90EF90DF90CF90BF90AF9074
:104290009F908F900895CF93DF93E7EDF0E18491A5
:1042A000E3ECF0E1D491EFEAF0E1C491CC2391F09A
:1042B00081110E94E713EC2FF0E0EE0FFF1FE05694
:1042C000FF4EA591B491EC91ED2381E090E021F4B3
:1042D00080E002C080E090E0DF91CF91089590915E
:1042E0008D049111FCCF91E090938D0490938C04F8
:1042F0002FEF20938B0410928A04260F20938904B9
:104300009093880490918804880F892B8093880467
:1043100080918704813061F4109287048091880431
:104320008093BB008091BC0083FDF8CF85EC01C079
:1043300085EE8093BC0080918D048130E1F3809103
:104340008A04861710F460918A04A7E6B4E0E7E4D3
:10435000F4E080E0861721F09D9191938F5FFACF72
:10436000089530914604313208F04BC080918D049D
:104370008111FCCF9091450422E020938D0421E02F
:1043800020938C042FEF20938B0410928A04309397
:104390008904E5E2F4E0A7E6B4E020E0321721F07A
:1043A00041914D932F5FFACF109288042091880499
:1043B000990F922B9093880490918704913061F427
:1043C00010928704909188049093BB009091BC0058
:1043D00093FDF8CF95EC01C095EE9093BC009091C1
:1043E0008D049230E1F390918B049F3F79F080919E
:1043F0008B04803241F080918B04803331F084E073
:1044000005C081E003C082E001C083E01092240473
:1044100010924604109223040895109222041092E0
:104420002104109224041092460410928D0481E01D
:1044300080938C041092870461E082E10E94101442
:1044400061E083E10E941014E9EBF0E080818E7F4F
:10445000808380818D7F808380E28093B80085E4B3
:104460008093BC0083E99CE19093200480931F0417
:1044700084E99CE190931E0480931D040895CF93DA
:10448000DF9340E061E083E00E941B1B982F96952C
:10449000969596959E70292F220F220F920F8F705E
:1044A000890FC7E1D4E0888340E061E084E00E94A6
:1044B0001B1B982F9695969596959E70292F220FE7
:1044C000220F920F8F70890F898340E061E085E0B1
:1044D0000E941B1B982F9695969596959670292F5E
:1044E000220F220F920F8F70890F8A8340E061E0C4
:1044F00086E00E941B1B982F969596959695967030
:10450000292F220F220F920F8F70890F8B8340E08B
:1045100061E088E00E941B1B84FB992790F9990FAA
:10452000292F220F220F920F8F70890F8C8340E06A
:1045300061E089E00E941B1B982F969596959695B1
:104540009E71292F220F220F920F8F70890F8D835A
:10455000DF91CF910895CF93DF93EC0181E08093B9
:1045600023048EE1809345041092240410924604A3
:104570008BE295E00E94EE1C68818BE295E00E9440
:10458000EE1CDF91CF910C94B121CF93DF93FB010F
:1045900022813381DC0113963C932E931297448140
:1045A00055816681778114964D935D936D937C93CD
:1045B0001797408551856285738518964D935D9355
:1045C0006D937C931B971C96EF012C969C01275EA4
:1045D0003F4F49914D93A217B307D9F7218D328DE3
:1045E000FC01328F218FDF91CF910895CF93DF931C
:1045F000EC016E857F858889998941E00E94DE1FE4
:10460000882341F08A8920E2829FC0011124895EBB
:104610009D4F02C080E090E0DF91CF910895CF934D
:10462000DF93EC01898D9A8D009741F00E94910CE7
:10463000898D9A8D0E94F9301A8E198EDF91CF9153
:104640000895462F50E060E070E02AE00C94BE1D13
:104650000F931F93CF93DF93EC010E9421238C01D2
:10466000CE010E94071E800F911FDF91CF911F91F5
:104670000F910895EF92FF920F931F93CF93DF93C3
:10468000EC017B018A011B821A8288EE93E0A0E094
:10469000B0E08C839D83AE83BF8389E391E09983EF
:1046A00088838DE190E00E9461309A8F898F009716
:1046B00079F02DE1F701DC0101900D922A95E1F7E7
:1046C0004CE050E0B801CE010C960E949F31188E4C
:1046D000DF91CF911F910F91FF90EF9008958F92EE
:1046E0009F92AF92BF92CF92DF92EF92FF920F9381
:1046F0001F93CF93DF9300D000D0CDB7DEB7FC017E
:104700008581813079F5948191FF2CC0438954894A
:1047100065897689452B462B472B09F45CC07F01C0
:1047200040E050E0BA01CF010E944E0A8823D1F048
:10473000F7018788908CA18CB28CC38CD48C82E0DA
:1047400090E0A0E0B0E0F60180839183A283B38380
:104750009E012F5F3F4FB501A401C6010E94C820F2
:10476000811102C080E037C000E010E09801B5017F
:10477000A401C6010E9427208823A1F389809A8082
:10478000AB80BC80F6018789803129F088EF9FEFEC
:10479000AFEFBFE004C088EF9FEFA0E0B0E0881665
:1047A0009906AA06BB06A0F2F701178A108E118E91
:1047B000128E138A148A158A168A848180688483EB
:1047C000C7010E94210A882369F240E050E0BA0143
:1047D000C7010E944E0A0F900F900F900F90DF912B
:1047E000CF911F910F91FF90EF90DF90CF90BF90EE
:1047F000AF909F908F9008954F925F926F927F92AB
:10480000AF92BF92CF92DF92EF92FF920F931F93DE
:10481000CF93DF9300D000D0CDB7DEB78C014983B2
:104820005A836B837C835901C12CD12C7601412C96
:1048300082E0582E612C712C49815A816B817C81D8
:104840009E012F5F3F4FC8010E94C820882351F16D
:10485000D301C201F801058404C0880F991FAA1F63
:10486000BB1F0A94D2F7C80ED91EEA1EFB1E49814F
:104870005A816B817C818789803129F088EF9FEF95
:10488000AFEFBFE004C088EF9FEFA0E0B0E04817B3
:1048900059076A077B0780F2F501C082D182E28264
:1048A000F38281E00F900F900F900F90DF91CF91E6
:1048B0001F910F91FF90EF90DF90CF90BF90AF903E
:1048C0007F906F905F904F900895CF93DF93FC019E
:1048D0002581222311F080E049C0EC0180915C0524
:1048E0008031C1F482E08583178A108E118E128E7A
:1048F00080915D0590915E05A0E0B0E025E0880F15
:10490000991FAA1FBB1F2A95D1F7838B948BA58B68
:10491000B68B19C08032F9F683E0858340915F053C
:10492000509160056091610570916205478B508FD1
:10493000618F728F9F012D5E3F4F85E495E00E944D
:10494000FC23882341F285E495E09C8F8B8F81E0E6
:104950008C831E821F82188619861A861B861C86E7
:104960001D861E861F86188A198A1A8ADF91CF91A2
:1049700008952FB7F8946091A2057091A3058091D6
:10498000A4059091A5052FBF08951F920F920FB611
:104990000F9211242F933F938F939F93AF93BF93C5
:1049A0008091A2059091A305A091A405B091A505C1
:1049B0003091A10526E0230F2D3720F40296A11D8A
:1049C000B11D05C029E8230F0396A11DB11D209339
:1049D000A1058093A2059093A305A093A405B0938D
:1049E000A50580919D0590919E05A0919F05B09190
:1049F000A0050196A11DB11D80939D0590939E0574
:104A0000A0939F05B093A005BF91AF919F918F9107
:104A10003F912F910F900FBE0F901F901895CF933D
:104A2000DF93CDB7DEB76D970FB6F894DEBF0FBE3C
:104A3000CDBF789484B5826084BD84B5816084BD27
:104A400085B5826085BD85B5816085BD80916E002C
:104A5000816080936E00109281008091810082605D
:104A6000809381008091810081608093810080919A
:104A700080008160809380008091B1008460809389
:104A8000B1008091B00081608093B00080917A0085
:104A9000846080937A0080917A00826080937A00AB
:104AA00080917A008E7F80937A0080917A0080686E
:104AB00080937A001092C1001092AA011092AB016B
:104AC0001092AD011092AC0181E090E0A0E0B0E066
:104AD0008093AE019093AF01A093B001B093B10168
:104AE0001092B2011092B3011092B4011092B5016C
:104AF0001092B6011092B7011092B8011092B9014C
:104B00001092BA011092BB0160E082E00E943F1453
:104B100062E083E00E943F1460E085E00E943F1461
:104B200061E084E00E943F1460E084E00E94101481
:104B30000E94BF180E940D2282E3898360E2CE01A9
:104B400001960E94AB2241E060E2CE0101960E94F4
:104B5000CF188981823361F5198262E2CE01019614
:104B60000E94AB2241E062E2CE0101960E94CF1882
:104B7000898181111DC084E0898363E2CE010196A1
:104B80000E94AB2241E063E2CE0101960E94CF1861
:104B90008981843069F480E8898364E2CE010196DA
:104BA0000E94AB2241E064E2CE0101960E94CF1840
:104BB0004AE360E08FE00E941B1B42E060E080E17E
:104BC0000E941B1B44E060E081E10E941B1B42E04D
:104BD00060E081E00E941B1B40E860E082E00E94F0
:104BE0001B1B84E297E19093010180930001809167
:104BF0006900836080936900E89A80E297E190936E
:104C000003018093020180916900837F8860809313
:104C10006900E99AE898E99A0E943F220E949F1A47
:104C2000882399F081E08093B70180E00E94971A71
:104C30008093B80181E00E94971A8093B90182E0C5
:104C40000E94971A8093BB0102C01092B701109284
:104C50007A00809164008160809364008091640098
:104C60008062809364008091640088608093640017
:104C70008091640080648093640080916400806807
:104C800080936400809164008260809364008091CE
:104C900064008460809364000E944B21892B99F406
:104CA0008091B40181110FC081E08093B4010E9412
:104CB00081188091B701811106C068E670E08EE826
:104CC00094E00E94851D11E0412C512C3201439447
:104CD0001E012DE0220E311C0E944B21892B91F4E4
:104CE0008091B40181110EC01093B4010E9481180B
:104CF0008091B701811106C068E37FE08EE894E0FF
:104D00000E94851D8091B401882309F43EC58EE878
:104D100094E00E94B01B181619060CF036C50E94CC
:104D20000719082F8A3009F430C58EE894E00E94F4
:104D3000071E073609F444C044F5033509F4CDC312
:104D4000D4F4053409F47CC1023509F018C56AEAC7
:104D50007EE08EE894E00E94851DE99866E97AE09D
:104D60008EE894E00E94851D62E57AE08EE894E08A
:104D70000E94851D26C2043609F444C1053609F493
:104D800046C1033609F0FBC4E9C0003709F4E6C1A7
:104D90006CF4093609F4CAC10CF46BC10C3609F085
:104DA000EEC40E9423196DED7EE0EBC4053709F4D3
:104DB000A7C3073709F434C4033709F0E0C4DDC2E0
:104DC0006DE372E08EE894E00E94851D67E072E07A
:104DD0008EE894E00E94851D6091B8018EE894E011
:104DE0000E9428236BEF71E08EE894E00E94851DFD
:104DF0000E941719082F0E941719902F990F90568B
:104E0000292F220F220F920F8053980F9093B801F1
:104E100064EC71E08EE894E00E94851D6091BB0116
:104E20008EE894E00E94282368EB71E08EE894E01D
:104E30000E94851D0E941719082F0E941719902F94
:104E4000990F9056292F220F220F920F8053980FFF
:104E50009093BB016EE971E08EE894E00E94851D9D
:104E60006BE871E08EE894E00E94851D66E771E0D2
:104E70008EE894E00E94851D6AE671E08EE894E079
:104E80000E94851D0E941719082F813329F0853350
:104E900061F46CE371E002C064E571E08EE894E0D7
:104EA0000E94851D0093B90108C060E171E08EE8A1
:104EB00094E00E94851D1092B9016091B80180E0D4
:104EC0000E948E1A6091BB0182E00E948E1A60914E
:104ED000B90181E00E948E1A80E00E94971A082F83
:104EE00081E00E94971AF82E82E00E94971A209182
:104EF000B8019091B901F91202C091E0021390E05B
:104F00002091BB01821327C0992329F165E989E02B
:104F10000E948E1A6AE688E00E948E1A6DEB87E086
:104F20000E948E1A62E486E00E948E1A0E949F1AE6
:104F3000882349F06AEE70E08EE894E00E94851DB7
:104F40001093B70108C067EB70E08EE894E00E9410
:104F5000851D1092B7016BE27FE013C48091B5010B
:104F6000811103C061EF72E046C08091B2018111EE
:104F700040C01D860E94231966EA72E08EE894E024
:104F80000E94851DCE0101967C010E941719F70130
:104F900081937F01E215F305C1F769E672E08EE8BF
:104FA00094E00E94851DBE016F5F7F4F8EE894E004
:104FB0000E94A91D66E572E08EE894E00E94851DBE
:104FC0000E941719893511F0893761F40E947B1806
:104FD0000E947B1468E277E1CE0101960E94E812FC
:104FE0000E9475188EE894E00E94071E0E94231903
:104FF00006C062EC72E08EE894E00E94851D6EE1CE
:105000007FE0BFC30E94991361E17FE0BAC30E94B1
:10501000991365E173E08EE894E00E94851D10927B
:10502000B401FFEF29E688E1F15020408040E1F72C
:1050300000C0000080916400826080936400A5C37A
:105040008091B201882319F06DE273E00BC080916A
:10505000B501811103C060EA73E004C01092B5018C
:1050600069E773E08EE894E00E94851D64E07FE0CC
:1050700088C360E176E08EE894E00E94851D60EFD1
:1050800075E08EE894E00E94851D6FEC75E08EE877
:1050900094E00E94851D67EA75E08EE894E00E9426
:1050A000851D67E875E08EE894E00E94851D6CE53B
:1050B00075E08EE894E00E94851D6DE375E08EE852
:1050C00094E00E94851D64E175E08EE894E00E9402
:1050D000851D68EE74E08EE894E00E94851D6DEBFE
:1050E00074E08EE894E00E94851D6AE974E08EE821
:1050F00094E00E94851D6CE474E08EE894E00E94C8
:10510000851D69E274E08EE894E00E94851D66E0EA
:1051100074E08EE894E00E94851D64EC73E08EE8F4
:1051200094E00E94851D67EF7EE02BC30E947B18F0
:105130000E947B14882329F01093B50169E576E07D
:1051400004C01092B5016EE276E08EE894E00E9411
:10515000851D0E9475186AEE7EE013C368EB76E049
:105160008EE894E00E94851D6091B8018EE894E07D
:105170000E9428236BE976E08EE894E00E94851D6A
:105180006091BB018EE894E00E9428236EE776E0F0
:105190008EE894E00E94851D8091B901813329F049
:1051A000853331F466E776E005C06BE776E002C050
:1051B0006EE676E08EE894E00E940B1E60ED7EE0E5
:1051C000E0C260E47AE08EE894E00E94851D6AE126
:1051D0007AE08EE894E00E94851D6AEF79E08EE81F
:1051E00094E00E94851D6EEC79E08EE894E00E94C8
:1051F000851D63EB79E08EE894E00E94851D62EAEC
:1052000079E08EE894E00E94851D66E979E08EE8F9
:1052100094E00E94851D0E9417198333B9F114F59B
:10522000813331F1823309F08CC06CE079E08EE893
:1052300094E00E94851D4AE360E08FE00E941B1B02
:1052400042E060E080E10E941B1B44E060E081E1FD
:105250000E941B1B42E060E081E00E941B1B60EF8C
:1052600078E071C08433A9F0853309F472C069C055
:1052700064E679E08EE894E00E94851D42E060E0FB
:1052800081E00E941B1B64E479E05DC068E678E081
:1052900051C068E178E08EE894E00E94851D69EDD8
:1052A00077E08EE894E00E94851D0E941719082F70
:1052B0000E941719000F0056902F990F990F090F90
:1052C0008053E02EE80E68E877E08EE894E00E94D4
:1052D000851D0E941719082F0E94171907343CF4E6
:1052E00001344CF490ED900F9A3038F00BC09FE9E8
:1052F000900F963038F499EC900FF92EF29420EF3D
:10530000F22201C0F12C873434F4813444F4805308
:105310008A3040F006C09FE9980F963010F487530A
:1053200001C080E04F2D480F60E08E2D0E941B1BB6
:105330006BE377E08EE894E00E94851D0E94CB1A13
:1053400006C06FEE76E08EE894E00E94851D00E0D6
:1053500001C001E06EED76E08EE894E00E94851DCC
:10536000002309F42ECF65ED76E08EE894E00E94EC
:10537000851DE99A6DE97EE004C28091B50188231C
:1053800009F4A2C08091B8012AE0622F0E94133074
:1053900030E3390F0E941330905D9093BC0130933D
:1053A000BD019FE59093BE0180911B040E941330C4
:1053B00030E3390F0E941330905D9093BF0130931A
:1053C000C001EDE2E093C10180911A040E94133004
:1053D00030E3390F0E941330905D9093C2013093F7
:1053E000C301FEE2F093C40123E62093C50183E7E5
:1053F0008093C60196E79093C7011092C80167E6B3
:105400007BE08EE894E00E94851DE12CF12CF701F1
:10541000E655FE4F62898EE894E00E947E1DEFEF14
:10542000EE1AFE0AFDE0EF16F10489F78EE894E02B
:105430000E94071E0E947B1868E677E18CEB91E0E2
:105440000E94E812882331F163E07BE08EE894E06B
:105450000E94851D0E941719893511F08937D1F5F1
:105460001093B2014092AE015092AF016092B00130
:105470007092B1011092AA011092AB011092AD018D
:105480001092AC010E9482160E94EF11E89A66EE1B
:105490007AE01CC01093B2014092AE015092AF016D
:1054A0006092B0017092B1011092AA011092AB010A
:1054B0001092AD011092AC010E9482160E94EF1171
:1054C000E89A69EC7AE002C063E77BE08EE894E05A
:1054D0000E94851D60E97EE054C18091B20188235D
:1054E00031F01092B201E8986AE97BE002C066EB05
:1054F0007BE08EE894E00E94851D63E87EE041C178
:1055000069EA7CE08EE894E00E94851D67E87CE013
:105510008EE894E00E94851D0E941719B82E0E9403
:105520001719C82E66E67CE08EE894E00E94851D7F
:105530000E941719F82E0E941719D82E64E47CE0F7
:105540008EE894E00E94851D0E941719882E0E9403
:105550001719E82E63E17CE08EE894E00E94851D37
:105560000E941719982E0E9417198C8F6FEE7BE0FE
:105570008EE894E00E94851D0E941719A82E0E94B3
:105580001719082F8EE894E00E94071E80ED8D0DFC
:10559000D82E20E1F29ED00C112480ED8E0DE82E45
:1055A00090E1899EE00C11248C8D8053F82EE0E16F
:1055B0009E9EF00C11240053F0E1AF9E000D1124CB
:1055C00040ED4C0D20E1B29E400D112460E088E0DA
:1055D0000E941B1B4D2D60E086E00E941B1B4E2D80
:1055E00060E089E00E941B1B4F2D60E085E00E9477
:1055F0001B1B402F60E084E00E941B1B40E060E02A
:1056000083E00E941B1B0E943F220E9499136EECB4
:105610007BE08EE894E00E94851D66E77EE0B1C0E5
:1056200063EF7DE08EE894E00E940B1E0091AB01D9
:105630008091AC019091AD019D8F8C8F8091B901CB
:10564000813379F0853349F492E7C92E9AE8D92E4F
:105650009EE0E92E9CE3F92E0CC0C12CD12C7601E2
:1056600008C082E0C82E8BE2D82E87E0E82E8DE3BA
:10567000F82E69ED7DE08EE894E00E94851D602F94
:105680008EE894E00E94282320E030E0A901C701C1
:10569000B6010E94442E882309F468C0602F70E090
:1056A00080E090E00E94EA2EA70196010E94A12FBF
:1056B0004B015C016FEB7DE08EE894E00E94851D5C
:1056C00042E0C501B4010E940E1269EB7DE08EE854
:1056D00094E00E94851D6FE97DE08EE894E00E94D1
:1056E000851D20E030E040E752E4C501B4010E948E
:1056F000A12F20E030E040E85EE30E94A12F42E0CD
:105700000E940E1264E97DE08EE894E00E94851DFF
:1057100066E67DE08EE894E00E94851DEC8DFD8DAF
:105720004F01A12CB12C2AE0B501A4018EE894E030
:105730000E94BE1D8EE894E00E94071E68E37DE093
:105740008EE894E00E94851DC501B4010E94EA2EF6
:10575000A70196010E94A12F42E00E940E1262E36F
:105760007DE08EE894E00E94851D06C06FEC7CE031
:105770008EE894E00E940B1E69E67EE002C065E1BF
:105780007EE08EE894E00E94851D8091B30188231D
:1057900009F427C11092B30142E060E081E00E9469
:1057A0001B1B0E943F228091B201882309F419C17A
:1057B0000091AA011092AA010093AB018091AC0163
:1057C0009091AD01800F911D9093AD018093AC013C
:1057D00040E061E089E00E941B1B982F969596950A
:1057E00096959E71292F220F220F920F8F70890F8D
:1057F00080931C0440E061E088E00E941B1B84FB56
:10580000992790F9990F292F220F220F920F8F704D
:10581000890F80931B0440E061E086E00E941B1B1F
:10582000982F9695969596959670292F220F220F70
:10583000920F8F70890F80931A0440E061E085E039
:105840000E941B1B982F9695969596959670292FDA
:10585000220F220F920F8F70890F8093190440E05E
:1058600061E084E00E941B1B982F96959695969573
:105870009E70292F220F220F920F8F70890F809315
:10588000180440E061E083E00E941B1B982F96956E
:10589000969596959E70292F220F220F920F8F704A
:1058A000890F809317040E947B1847E16CEB71E02D
:1058B000CE0101960E949415BE016F5F7F4F82E872
:1058C00095E00E94C52262E282E895E00E947E1D7A
:1058D00060911C0482E895E00E9421236DE282E839
:1058E00095E00E947E1D60911B0482E895E00E9475
:1058F00021236DE282E895E00E947E1D60911A04EA
:1059000082E895E00E94212360E282E895E00E940F
:105910007E1D6091190482E895E00E9421236AE3CC
:1059200082E895E00E947E1D809118048A3028F458
:1059300060E382E895E00E947E1D6091180482E891
:1059400095E00E9421236AE382E895E00E947E1D93
:10595000809117048A3028F460E382E895E00E9481
:105960007E1D6091170482E895E00E94212362E287
:1059700082E895E00E947E1D6CE282E895E00E943C
:105980007E1D4091AE015091AF016091B0017091C8
:10599000B1012AE082E895E00E94BE1D6CE282E837
:1059A00095E00E947E1D602F82E895E00E942823EA
:1059B00082E895E00E940F238091AE019091AF01A3
:1059C000A091B001B091B1010196A11DB11D8093CC
:1059D000AE019093AF01A093B001B093B1010E94CA
:1059E00075188091B601882309F486C01092B6011B
:1059F0000E94EF11609118017091190180911A01B4
:105A000090911B0120911C0130911D0140911E01BC
:105A100050911F018090080190900901A0900A0107
:105A2000B0900B01C0900401D0900501E0900601F8
:105A3000F09007010E94A12FA50194010E94D82D8A
:105A4000A70196010E94D72D609320017093210138
:105A50008093220190932301809120019091210154
:105A6000A0912201B091230180931C0190931D010C
:105A7000A0931E01B0931F0180910801909109012C
:105A8000A0910A01B0910B0180930401909305014C
:105A9000A0930601B093070180912A01882319F091
:105AA0008130C9F029C0609120017091210180915D
:105AB00022019091230120E030E040E85FE30E9462
:105AC0009C2F1816CCF410932A018091AA018F5FA5
:105AD0008093AA0111C060912001709121018091F1
