:100000000C945D080C940F1E0C94E81D0C9485084C
:100010000C9485080C9485080C9485080C9485082C
:100020000C9485080C9485080C9485080C9485081C
:100030000C9485080C9485080C9485080C9485080C
:100040000C9478250C9485080C94FB1E0C94D51EFA
:100050000C9485080C9485080C9485080C948508EC
:100060000C942D1F0C9485083E3E204C6F676765ED
:10007000723A20496E76616C6964206465766963C2
:100080006520636F6E66696775726174696F6E2E45
:1000900020526573657420636F6E6669677572615F
:1000A00074696F6E207769746820636F6D6D616E1F
:1000B00064202767270A003E3E20557365723A2068
:1000C0002020000A3E3E204C6F676765723A204947
:1000D0006E7075742053657175656E7469616C20FE
:1000E00046696C65204E756D626572202834204427
:1000F0004947495453292E2043757272656E742006
:100100004E756D62657220697320000A3E3E204C78
:100110006F676765723A205741524E494E473A2001
:10012000494E56414C4944204D65746572207365B3
:100130007474696E670A000A3E3E204C6F676765FB
:10014000723A20352F3822204D657465720A000AF4
:100150003E3E204C6F676765723A203122204D6524
:100160007465720A003E3E20557365723A20202065
:10017000002020202035202D2D20352F3822204D05
:10018000657465720A002020202031202D2D203139
:1001900022204D657465720A000A3E3E204C6F674E
:1001A0006765723A2053656C656374204D657465AC
:1001B000720A003E3E20557365723A202020000AE4
:1001C0003E3E204C6F676765723A20496E707574C9
:1001D00020446174616C6F67676572204944204EEA
:1001E000756D62657220283320444947495453296C
:1001F0002E2043757272656E742049442069732005
:10020000003E3E20557365723A202020003E3E207D
:100210004C6F676765723A20496E70757420536938
:100220007465204E756D62657220283320444947FD
:10023000495453292E2043757272656E7420536998
:100240007465204E756D62657220697320000A3EE8
:100250003E204C6F676765723A20436F6E66696730
:100260007572696E670A002E20436F6E74696E7531
:10027000653F28792F6E293A20000A3E3E204C6FB8
:10028000676765723A205741524E494E473A2054AB
:10029000686973206F7065726174696F6E20776929
:1002A0006C6C207065726D616E656E746C79206423
:1002B000656C65746520003E3E204C6F6767657213
:1002C0003A2046696C6520746F2072656D6F7665A3
:1002D0003A20003E3E204C6F676765723A204361CA
:1002E0006E6E6F7420636C65616E205344204361B1
:1002F0007264207768696C65206C6F6767696E67E8
:100300002E003E3E204C6F676765723A20534420B2
:1003100043617264206E6F7420696E697469616CE8
:10032000697A65642E000A3E3E204C6F67676572ED
:100330003A204578697474696E672E0A0A003E3E59
:10034000204C6F676765723A2053442043617264A2
:1003500020627573792E2055736520636F6D6D6112
:100360006E642027532720746F2073746F7020648D
:100370006174616C6F6767696E6720616E64207479
:10038000727920616761696E2E003E3E204C6F6776
:100390006765723A2053442043617264206D61792D
:1003A000206E6F772062652072656D6F7665642EB2
:1003B000003E3E204C6F676765723A2053442043ED
:1003C00061726420616C726561647920656A65633D
:1003D0007465642E00202020202020202020202052
:1003E0007720202D2D205072696E742077617465FE
:1003F0007220666C6F7720646174612066726F6D25
:10040000206C61737420636F6D706C65746520730C
:10041000616D706C650A00202020202020202020A3
:1004200020207520202D2D20557064617465206476
:100430006174652F74696D650A00202020202020DA
:1004400020202020205320202D2D2053746F702039
:10045000646174616C6F6767696E670A00202020B1
:1004600020202020202020207320202D2D20537498
:1004700061727420646174616C6F6767696E672074
:100480002877696C6C20617070656E6420746F20D1
:10049000616E79206578697374696E672064617430
:1004A000616C6F672E637376290A0020202020205C
:1004B0002020202020205220202D2D2044696167FB
:1004C0006E6F736520746865205254430A002020C3
:1004D0002020202020202020207020202D2D205082
:1004E00072696E7420636F6E666967757261746994
:1004F0006F6E20646174610A00202020202020207B
:10050000202020206C20202D2D204C697374206623
:10051000696C6573206F6E20746865205344206396
:100520006172640A0020202020202020202020202A
:100530006920202D2D20496E697469616C697A6586
:100540002074686520534420636172640A0020208F
:100550002020202020202020206820202D2D204415
:100560006973706C61792068656C700A00202020C6
:1005700020202020202020206720202D2D205365A2
:10058000742064657669636520636F6E666967755C
:10059000726174696F6E0A002020202020202020C4
:1005A0002020204520202D2D20456A65637420538E
:1005B0004420636172640A00202020202020202033
:1005C0002020206520202D2D20457869742073651A
:1005D0007269616C20696E746572666163650A0098
:1005E00020202020202020202020206420202D2DAD
:1005F000205669657720646174652F74696D650A9A
:100600000020202020202020202020206320202DBA
:100610002D20436C65616E20534420636172640A2F
:10062000003E3E204C6F676765723A204C697374D8
:10063000206F6620636F6D6D616E64733A0A003ED1
:100640003E204C6F676765723A204572726F722E5A
:1006500020497320746865205344204361726420EC
:10066000696E7365727465643F003E3E204C6F672F
:100670006765723A2053442052656164792E0047C1
:100680006F6F6462796521000A3E3E205254432018
:10069000446F63746F723A20000A3E3E2052544306
:1006A00020446F63746F723A204920646F6E277420
:1006B00020756E6465727374616E6420796F7572F3
:1006C00020696E7075742E2054727920736F6D6579
:1006D0007468696E672066726F6D20746865206C3F
:1006E0006973742E000A3E3E2052544320446F63C7
:1006F000746F723A2046696E69736865642120439D
:100700006865636B207468652072656769737465DA
:10071000727320746F206D616B6520737572652034
:100720007468657927726520636F72726563743AC5
:100730000A000A3E3E2052544320446F63746F7295
:100740003A20576861742076616C756520776F7503
:100750006C6420796F75206C696B6520746F2077ED
:10076000726974653F2028737065636966792069D2
:100770006E2068657861646563696D616C293A20F3
:100780003078000A3E3E2052544320446F63746F19
:10079000723A205768696368207265676973746587
:1007A0007220776F756C6420796F75206C696B654A
:1007B00020746F20616C7465723F20287272293A30
:1007C00020000A3E3E2052544320446F63746F72EF
:1007D0003A2049276C6C20777269746520776861CC
:1007E000746576657220796F752074656C6C206D08
:1007F0006520746F2C20736F20626520737572659D
:1008000020746F20646F75626C6520636865636B2C
:100810002E000A3E3E2052544320446F63746F7290
:100820003A204865726520617265207468652063AE
:100830006F6E74656E7473206F66207468652052E5
:100840005443205265676973746572732E20596F23
:10085000752077696C6C2070726F6261626C7920B0
:1008600077616E74206120636F7079206F662074E9
:1008700068652050434638353233204461746173D3
:100880006865657420746F20696E74657270726536
:10089000742074686573652E0A003E3E20525443EE
:1008A00020446F63746F723A2054696D65722072D0
:1008B0006573657421000A3E3E2052544320446F04
:1008C00063746F723A20526573657474696E672041
:1008D00074686520525443277320496E74657272A0
:1008E0007570742054696D65722E2E2E0A003E3E7E
:1008F0002052544320446F63746F723A20496E74DF
:1009000065727275707420726573657421000A3E99
:100910003E2052544320446F63746F723A205265F4
:1009200073657474696E6720746865205254432738
:100930007320496E746572727570742E2E2E0A00C3
:100940003E3E20557365723A202020002020202052
:1009500035202D2D2046696E6973680A00202020FD
:100960002034202D2D20416C746572206120726529
:100970006769737465720A002020202033202D2DB2
:1009800020446973706C6179207468652052544307
:1009900020526567697374657220636F6E74656E4B
:1009A00074730A002020202032202D2D20526573E0
:1009B000657420496E746572727570742054696D27
:1009C00065720A002020202031202D2D2052652D17
:1009D000456E61626C6520746865205254432049FD
:1009E0006E746572727570740A005768617420774E
:1009F000696C6C2069742062653F0A003E3E20529B
:100A0000544320446F63746F723A2049276D2074F9
:100A10007261696E656420746F2072756E2061204A
:100A2000636F75706C652070726F63656475726555
:100A300073206F6E20796F7572205254432E200000
:100A40003E3E2052544320446F63746F723A2048F4
:100A500069212049276D206865726520746F2068C0
:100A6000656C702066697820796F757220525443E6
:100A70002E0A0054696D652C5265636F72642C50A8
:100A8000756C7365730A00494E56414C49440035F4
:100A90002F3822003122004D657465722053697A27
:100AA000653A2000446174616C6F67676572204924
:100AB0004420233A20005369746520233A20000A19
:100AC0003E3E204C6F676765723A204C6F676769DE
:100AD0006E6720737461727465642E003E3E204C14
:100AE0006F676765723A20003E3E204C6F6767650E
:100AF000723A2043616E6E6F74206C6F6720776965
:100B000074686F757420534420436172642E003EF4
:100B10003E204C6F676765723A20416C7265616474
:100B200079204C6F6767696E672E003E3E204C6FE0
:100B3000676765723A204C6F6767696E67207374E8
:100B40006F707065642E003E3E204C6F6767657263
:100B50003A204E6F74206C6F6767696E672E000ACB
:100B60003E3E204C6F676765723A20446174652091
:100B7000616E642054696D652072657365742E0022
:100B80000A3E3E204C6F676765723A20456E746579
:100B900072206E6577206D696E75746520286D6DA5
:100BA000293A20000A3E3E204C6F676765723A2062
:100BB000456E746572206E657720686F75722028A7
:100BC00068682C2032342D686F757220636C6F63F7
:100BD0006B293A20000A3E3E204C6F676765723AE7
:100BE00020456E746572206E65772079656172208C
:100BF000287979293A20000A3E3E204C6F676765C4
:100C0000723A20456E746572206E65772064617952
:100C100020286464293A20003E3E204C6F676765B7
:100C2000723A20456E746572206E6577206D6F6E26
:100C3000746820286D6D293A20003E3E204C6F6775
:100C40006765723A205570646174696E67206461EB
:100C5000746520616E642074696D652E2E2E0A0005
:100C60003E3E204C6F676765723A20496E76616C34
:100C70006964206D6574657220636F6E666967755F
:100C8000726174696F6E2E2043616E6E6F74207096
:100C900072696E74206D6F726520666C6F77206468
:100CA0006174612E20526573657420636F6E66698E
:100CB0006775726174696F6E207769746820276741
:100CC000272E002047616C0A003E3E204C6F67676C
:100CD00065723A20546F74616C20466C6F77207394
:100CE000696E6365206C6F6767696E6720737461F6
:100CF00072743A202020003E3E204C6F6767657278
:100D00003A20546F74616C2050756C736573207356
:100D1000696E6365206C6F6767696E6720737461C5
:100D200072743A20002047616C2F6D696E0A0A00C8
:100D30003E3E204C6F676765723A2041766572616E
:100D4000676520466C6F773A20002047616C0A0087
:100D50003E3E204C6F676765723A20546F74616C39
:100D600020466C6F773A202020003E3E204C6F6773
:100D70006765723A20546F74616C2050756C7365AE
:100D8000733A20003E3E204C6F676765723A2044FC
:100D90006174612066726F6D206C61737420736181
:100DA0006D706C653A003E3E204C6F676765723A25
:100DB00020556E6B6E6F776E20636F6D6D616E6424
:100DC0002E205573652074686520636F6D6D616EAC
:100DD000642022682220666F722061206C6973741F
:100DE000206F6620636F6D6D616E64732E0A3E3EE8
:100DF00020557365723A202020000A3E3E2055732C
:100E000065723A202020000A3E3E20557365723AF2
:100E1000202020000A3E3E20557365723A20202093
:100E2000000A3E3E20557365723A202020000A3E9B
:100E30003E20557365723A202020003E3E204C6FC4
:100E4000676765723A2043616C6C696E67207468ED
:100E5000652052544320446F63746F722E2E2E0A05
:100E6000000A3E3E20557365723A202020000A3E5B
:100E70003E20557365723A202020000A3E3E2055E0
:100E80007365723A202020000A3E3E205573657239
:100E90003A202020000A3E3E20557365723A2020F9
:100EA00020000A3E3E20557365723A202020000A39
:100EB0003E3E20557365723A202020000A3E3E20B7
:100EC000557365723A202020003E3E204C6F6767C4
:100ED00065723A20496E76616C6964206465766952
:100EE000636520636F6E66696775726174696F6EA2
:100EF0002E20526573657420636F6E666967757224
:100F00006174696F6E207769746820636F6D6D61BD
:100F10006E64202767270A007C3C3E5E2B3D3F2FF6
:100F20005B5D3B2C2A225C003A20005265676973A6
:100F300074657220002042797465730A00204D4266
:100F40000A00206B420A000A3E3E204C6F6767652C
:100F5000723A20456E64206F662066696C65730086
:100F60003E3E204C6F676765723A2046696C657338
:100F7000206F6E207468697320534420436172644B
:100F80000A0A4E616D65202020200953697A650A9E
:100F90002D2D2D2D2D2D2D2D092D2D2D2D2D0A00F5
:100FA0003E3E204C6F676765723A204C6F676765FD
:100FB000722072656164792E0A3E3E205573657217
:100FC0003A20202000494E56414C494400352F38E4
:100FD00022003122003E3E204C6F676765723A2046
:100FE0004D657465722053697A653A20202020206F
:100FF000202020003E3E204C6F676765723A2053E8
:10100000657175656E7469616C2046696C65202335
:101010003A20003E3E204C6F676765723A2044617B
:1010200074616C6F6767657220494420233A202001
:1010300020003E3E204C6F676765723A205369740A
:101040006520233A2020202020202020202020203E
:10105000000000000023002600290004040404040A
:101060000404040202020202020303030303030155
:10107000020408102040800102040810200102042C
:10108000081020000000080002010000030407000F
:101090000000000000000000000000250028002BD8
:1010A000003E3E204C6F676765723A2000000000EA
:1010B00000240027002A0000A52E11241FBECFEF18
:1010C000D8E0DEBFCDBF11E0A0E0B1E0ECEFF5E687
:1010D00002C005900D92A83AB107D9F725E0A8EA19
:1010E000B1E001C01D92A73AB207E1F718E0CDE5E3
:1010F000D8E004C02197FE010E948E31CC35D10783
:10110000C9F70E94C2250C94FC320C9400001F9376
:10111000CF93DF93EC0180E2689FF00111249F01DF
:1011200021553E4FD9011B969C91917129F0842F36
:10113000827411F080E058C0142F6A8B80912B01CB
:1011400090912C01A0912D01B0912E018E879F8747
:10115000A88BB98BE155FE4F4489558960E070E05A
:10116000BA01552744274F8B588F698F7A8F828D0C
:10117000938DA0E0B0E0482B592B6A2B7B2B4F8B33
:10118000588F698F7A8FD9011B968C91887151F491
:10119000848D958DA68DB78D8B8B9C8BAD8BBE8BE7
:1011A00081E00DC0803131F69E012D5E3F4F8B8D69
:1011B0009C8D0E942122882309F4BCCF84E08D837A
:1011C000812F8F708C831E821F82188619861A8643
:1011D0001B861C861D8616FF06C0CE01DF91CF91AF
:1011E0001F910C94AF1781E0DF91CF911F9108956B
:1011F0003F924F925F926F927F928F929F92AF92A7
:10120000BF92CF92DF92EF92FF920F931F93CF93F3
:10121000DF93CDB7DEB72C970FB6F894DEBF0FBEC5
:10122000CDBF5C01DC015B968D909C905C9716961F
:10123000CD90DD90ED90FC901997C114D104E1049C
:10124000F10439F0BFEFCB1ADB0AEB0AFB0A312CB1
:1012500007C0F401C080D180E280F380332433944E
:10126000F40181859285A385B4859C01AD012F5F32
:101270003F4F4F4F5F4F29873A874B875C87260147
:1012800037011D821E821F821886F4018185928596
:10129000A385B4852D813E814F8158852817390754
:1012A0004A075B0708F063C089859A85AB85BC85D2
:1012B0008C159D05AE05BF0550F482E0C82ED12CDB
:1012C000E12CF12C92E0492E512C612C712C9E01C5
:1012D0002F5F3F4FB701A601C4010E949D218823C3
:1012E00009F445C089819A81AB81BC81892B8A2B05
:1012F0008B2B41F0260137019FEF491A590A690AE1
:10130000790A05C0C414D504E604F70491F02D81D0
:101310003E814F8158852F5F3F4F4F4F5F4F2D8349
:101320003E834F8358873FEFC31AD30AE30AF30A79
:10133000ACCF0FEF1FEF2FEF3FE0B301A201C401CD
:101340000E94FD20882399F0D50116964D915D915C
:101350006D917C911997411551056105710549F011
:1013600093018201C4010E94FD20811102C080E02E
:101370002AC0D50116964D925D926D927C92199776
:10138000332051F0D301C2010196A11DB11DF4011A
:1013900080839183A283B383F5018789908DA18D8A
:1013A000B28D892B8A2B8B2B69F4D50157964D92E0
:1013B0005D926D927C925A9714968C9114978068E6
:1013C00014968C9381E02C960FB6F894DEBF0FBE76
:1013D000CDBFDF91CF911F910F91FF90EF90DF90E4
:1013E000CF90BF90AF909F908F907F906F905F90C5
:1013F0004F903F900895CF93DF93EC018D81882328
:10140000A1F18C8187FF2DC06E857F8588899989A0
:1014100041E00E94B420882341F1EA8980E2E89FFC
:10142000F0011124DF01A155BE4F1097F1F08D811D
:10143000823050F44B895C896D897E895C964D932E
:101440005D936D937C935F978F89988DA98DBA8DED
:10145000E155FE4F938F828FB58BA48B8C818F7754
:101460008C83DF91CF910C94792080E0DF91CF9134
:1014700008958F929F92AF92BF92CF92DF92EF9298
:10148000FF920F931F93CF93DF93EC018D81811116
:1014900002C080E077C00B891C892D893E89041722
:1014A000150726073707A8F36A017B01823029F464
:1014B000CA86DB86EC86FD860DC0C114D104E1042A
:1014C000F10451F41E821F82188619861A861B8623
:1014D0001C861D8681E056C08A849B84AC84BD84B2
:1014E000EB8DFC8D258530E0275F3F4FB501A401D2
:1014F0004150510961097109022E04C07695679522
:10150000579547950A94D2F7D701C6010197A109CB
:10151000B10904C0B695A795979587952A95D2F7F6
:1015200084179507A607B70720F089288A288B28F3
:1015300049F44F89588D698D7A8D4E835F83688712
:10154000798704C0841B950BA60BB70B4C015D017A
:101550008E010A5F1F4F81149104A104B10409F4A4
:10156000A7CF4E815F816885798598018B8D9C8D91
:101570000E949D2191E0891A9108A108B10881116A
:10158000EACF87CFDF91CF911F910F91FF90EF901E
:10159000DF90CF90BF90AF909F908F9008954F9223
:1015A0005F926F927F929F92AF92BF92CF92DF92A3
:1015B000EF92FF920F931F93CF93DF93CDB7DEB7D8
:1015C0002B970FB6F894DEBF0FBECDBF7C01DC01B8
:1015D0001596AC90A1108AC1FE0131966F0190E280
:1015E0008BE08E0F91938E13FDCFDA0130E087E010
:1015F0009D91992339F19E3219F0E8E1FFE00AC08C
:101600008A3009F474C138E08AE0F2CF3196491784
:1016100009F46DC144914111F9CF831708F467C1F2
:101620004FED490F4E3508F062C141E0430FF6011E
:10163000E30FF11D3FE9390F3A3108F490529083DE
:10164000342FD6CF8981803209F451C1B22E8B015B
:10165000DB015B968D919C915C97F701948F838F52
:1016600016961D921D921D921C921997FB011286CF
:10167000138614861586712CF80182859385A485BE
:10168000B585438954896589768984179507A607A6
:10169000B70708F061C025E0B695A795979587959F
:1016A0002A95D1F7F82FFF706F2ED80115968C91DF
:1016B000823008F41CC1C8010E94831297FD17C133
:1016C000F80182859385A485B5854F96A11DB11D2E
:1016D00082879387A487B587F0E26F9EC0011124AB
:1016E000BC0161557E4F6115710509F400C1DB0134
:1016F0002C91222319F0253EC1F427C071100EC091
:10170000F701628A40912B0150912C0160912D01CB
:1017100070912E0146875787608B718BFC01E155D4
:10172000FE4F8081811113C015C04BE050E0C6010F
:101730000E94D532892B09F09FCF8B2D8073803387
:1017400009F4D5C04B2D662DCCC07720C9F2772483
:10175000739492CF772473948B2D8271823109F028
:10176000C6C07720D1F0D7011E966D917D918D91E5
:101770009C91519741E00E94B420882309F4B7C09E
:10178000F7016289F0E26F9FB001112461557E4F2D
:101790006115710509F079C0AAC0D80115968C9120
:1017A000823009F4A4C0C8010E94F808882309F413
:1017B0009EC0D8015B96ED91FC915C9716964D907A
:1017C0005D906D907C901997B2E04B1A51086108BA
:1017D0007108058404C0440C551C661C771C0A94CF
:1017E000D2F786859785A089B189480E591E6A1E51
:1017F0007B1E9480E1E04E1A51086108710899201F
:1018000009F10E947920882309F471C0EFEAF1E020
:10181000119223E0EF3AF207D9F7D301C201890D03
:10182000911DA11DB11D80932B0190932C01A093BC
:101830002D01B0932E0180914D05816080934D055F
:101840009A94DDCFD8015B96ED91FC915C9780E096
:1018500092E0A0E0B0E0058404C0880F991FAA1FA1
:10186000BB1F0A94D2F7F8014389548965897689A8
:10187000840F951FA61FB71F838B948BA58BB68BE8
:10188000D70152961C926FEA71E080E2FB0111923F
:101890008A95E9F78BE0F601DB0101900D928A95BC
:1018A000E1F781E298E2DB0151969C938E93509789
:1018B00020E038E01F963C932E931E9753969C93FE
:1018C0008E93529759969C938E93589757963C9324
:1018D0002E9356970E947920882349F04B2DF701CB
:1018E0006289C7010E948708A82E01C0A12C8A2DF9
:1018F0002B960FB6F894DEBF0FBECDBFDF91CF9110
:101900001F910F91FF90EF90DF90CF90BF90AF901D
:101910009F907F906F905F904F900895CF93DF934B
:10192000CDB7DEB76D970FB6F894DEBF0FBECDBF53
:101930004423A9F1AB01BC011C821B8281E891E028
:101940009A8389831E8222E0CE0101960E94CF0AEB
:10195000811102C090E01EC0CE0101960E94AF1717
:101960008823C1F36F85788989899A8941E00E942B
:10197000B420882379F3EB8980E2E89FF0011124F9
:10198000E155FE4F309731F385EE80831E820E9431
:101990007920982F81E0911103C080E001C081E09F
:1019A0006D960FB6F894DEBF0FBECDBFDF91CF911D
:1019B0000895CF93DF93EC010E94FB09882311F077
:1019C0001D8281E0DF91CF9108951F93CF93DF9324
:1019D000CDB7DEB76D970FB6F894DEBF0FBECDBFA3
:1019E000AB011C821B8221E831E03A8329831E82ED
:1019F00021E0BC01CE0101960E94CF0A11E08111C5
:101A000002C010E004C0CE0101960E94D90C812FC3
:101A10006D960FB6F894DEBF0FBECDBFDF91CF91AC
:101A20001F9108958FB7F8948091AE018FBF0895EC
:101A300061E0FC0184810E94E7238091AD01811166
:101A40001092AD0108958EBD00000DB407FEFDCFCC
:101A50008EB508958FEF0C94230D0F931F93CF93A2
:101A6000DF93EB010E9453248B010E942A0D8F3FCC
:101A700049F00E945324601B710B6C177D07A8F37B
:101A800080E001C081E0DF91CF911F910F91089517
:101A9000CF93DF93EC018E81882389F08F81988525
:101AA0009C012F5F3F4F38872F838230924018F47C
:101AB0000E942A0DF3CFCE010E94180D1E82DF91E5
:101AC000CF9108958CBD9DBD0895CF93DF93EC0118
:101AD0008091AD01811109C081E08093AD018091B9
:101AE000E7049091E8040E94620D60E08C81DF9130
:101AF000CF910C94E723CF92DF92FF920F931F9325
:101B0000CF93DF9300D000D0CDB7DEB76C01F62EB7
:101B100029833A834B835C830E94480DC6010E944F
:101B2000650D6CE271E0C6010E942D0D8F2D806461
:101B30000E94230D08E110E05C814B813A812981EC
:101B4000DA01C901002E04C0B695A795979587952F
:101B50000A94D2F729833A834B835C830E94230D36
:101B60000850110929813A814B815C81083F8FEF30
:101B7000180731F7FF2029F0E8E0FE1204C087E8DB
:101B800003C085E901C08FEF0E94230D10E00E9481
:101B90002A0DF601828787FF04C01F3F11F01F5FE7
:101BA000F6CF0F900F900F900F90DF91CF911F9174
:101BB0000F91FF90DF90CF900895AF92BF92CF9298
:101BC000DF92EF92FF920F931F93CF93DF93EC017D
:101BD0006901C801820F931F8130924008F070C0E4
:101BE0008E81882371F088819981AA81BB814817F1
:101BF00059076A077B0729F48F819885C816D9068B
:101C0000B0F5488359836A837B838B85833039F0B1
:101C100089E0440F551F661F771F8A95D1F79A01F7
:101C2000AB0161E1CE010E947B0D882319F083E0B6
:101C30008D8346C00E9453245B010E942A0D8A872F
:101C40008F3F49F40E9453246A197B096D32714019
:101C5000A0F38FE003C08E3F31F08DE08D83CE0185
:101C60000E94180D2DC018861F8281E08E838F81FF
:101C700098858C159D0540F40E942A0D8F819885CA
:101C8000019698878F83F3CF6701E00EF11ECE1483
:101C9000DF0431F00E942A0DF60181936F01F7CF26
:101CA0008F819885080F191F18870F8389858823CE
:101CB00019F00115124048F0CE010E94480D05C0F0
:101CC000CE010E94180D80E001C081E0DF91CF912C
:101CD0001F910F91FF90EF90DF90CF90BF90AF904A
:101CE00008952F923F924F925F926F927F928F92C0
:101CF0009F92AF92BF92CF92DF92EF92FF920F939B
:101D00001F93CF93DF93EC016B014A018D81811109
:101D100003C08FEF9FEFD7C08C8180FFFACF4B8835
:101D20005C886D887E884A855B856C857D85C4016D
:101D3000A0E0B0E093018201041B150B260B370BCA
:101D4000081719072A073B0718F44201841A950A55
:101D500054011E0126E0220E311CA114B10409F425
:101D60007EC04A855B856C857D852A0181E058228D
:101D7000ED818A019B0189E0369527951795079596
:101D80008A95D1F78B8D9C8DE23061F4FC01828DB8
:101D9000938DA48DB58DBC01CD01600F711F821F85
:101DA000931F3FC0FC0174807A9470224114510447
:101DB000C9F4711017C0452B462B472B49F48F8966
:101DC000988DA98DBA8D8E839F83A887B9870AC005
:101DD0004E815F816885798591010E949D218823CC
:101DE00009F497CFEB8DFC8D8E819F81A885B985F5
:101DF0000297A109B109058404C0880F991FAA1F81
:101E0000BB1F0A94D2F74685578560897189840F74
:101E1000951FA61FB71FBC01CD01670D711D811D48
:101E2000911D20E032E02419350935012A153B05C2
:101E300008F439012C8126FD04C06114F2E07F060C
:101E400081F400912B0110912C0120912D013091F2
:101E50002E016017710782079307B1F402C0C40115
:101E600032C040E00E94B420882309F452CFF2012E
:101E7000E155FE4FD601CF01860D971DE817F907F2
:101E800089F021912D93FACF760183019201AB0164
:101E9000BC018091AF039091B0030E94DD0D8823B7
:101EA00009F437CFC60CD71C8A859B85AC85BD85C8
:101EB000860D971DA11DB11D8A879B87AC87BD87A5
:101EC000A618B7084ACFDF91CF911F910F91FF90CD
:101ED000EF90DF90CF90BF90AF909F908F907F90CA
:101EE0006F905F904F903F902F900895EF92FF92E8
:101EF0000F931F93CF93DF93EC01790141155105A7
:101F00006105710511F482E13CC08B85833039F0A5
:101F100089E0440F551F661F771F8A95D1F79A01F4
:101F2000AB0168E1CE010E947B0D882311F084E0B3
:101F300028C08EEF0E94230D87018EEFF81AF8015A
:101F400081918F010E94230D0E151F05C1F78FEFA0
:101F50000E94230D8FEF0E94230D0E942A0D8A8775
:101F60008F71853031F081E18D83CE010E94180D93
:101F700009C068E572E0CE010E942D0D811107C0F5
:101F800085E18D83CE010E94180D80E013C020E012
:101F900030E0A9016DE0CE010E947B0D811104C0EB
:101FA0000E942A0D882311F084E1EBCFCE010E941C
:101FB000180D81E0DF91CF911F910F91FF90EF906D
:101FC00008952F923F924F925F926F927F928F92DD
:101FD0009F92AF92BF92CF92DF92EF92FF920F93B8
:101FE0001F93CF93DF9300D000D0CDB7DEB78C0125
:101FF0005B011A01DC0115968C9115978130C9F4AB
:1020000014968C9181FF15C082FF1BC0F801438993
:1020100054896589768982859385A485B5858417D9
:102020009507A607B70769F0C8010E94390A811110
:1020300008C081E090E0F8019383828380E090E023
:1020400039C1610183C0D8015B968D919C915C97E9
:10205000FC01248121502A013B0139E076946794E8
:10206000579447943A95D1F7722E74207A01F1E093
:10207000FF22772009F476C080E092E08E199F0954
:1020800046018C159D0508F44C01D8015B962D91F5
:102090003C915C9716968D919D910D90BC91A02DD1
:1020A0000297A109B109F901058404C0880F991F9D
:1020B000AA1FBB1F0A94D2F746855785608971898C
:1020C000840F951FA61FB71F9C01AD01270D311D61
:1020D000411D511D29013A01811432E0930609F096
:1020E00088C080912B0190912C01A0912D01B0917D
:1020F0002E0184159505A605B70559F48FEF9FEFBE
:10210000DC0180932B0190932C01A0932D01B093BF
:102110002E019501B301A2018091AF039091B0030C
:102120000E94760F882309F484CF9EEFB91AC8184D
:10213000D908F80182859385A485B585880D991DF8
:10214000A11DB11D82879387A487B587D8011A96F0
:102150004D915D916D917C911D97C114D10409F051
:1021600072CF87C0E114F10409F086CF16964D9125
:102170005D916D917C91199741155105610571052E
:1021800059F457968D919D910D90BC91A02D00977B
:10219000A105B10541F521C09E012F5F3F4F0E946F
:1021A0009D21882309F44BCF89819A81AB81BC8121
:1021B000F801238D348DF9012789203129F048EF6A
:1021C0005FEF6FEF7FE004C048EF5FEF60E070E02B
:1021D00084179507A607B70730F0C8010E94F808D2
:1021E00081114ACF26CFF80186839783A087B187D4
:1021F00043CFE114F10429F5D8011A964D915D9170
:102200006D917C911D9753968D919D910D90BC91F0
:10221000A02D481759076A077B0798F00E9479207C
:10222000882309F406CF40922B0150922C01609232
:102230002D0170922E0180914D05816080934D0596
:1022400008C041E0C301B2010E94B420882309F410
:10225000F0CED501F701E155FE4FCF01880D991D54
:10226000E817F90719F02D912193FACFA80CB91CA2
:102270005ECF53968D919D910D90BC91A02D8417AA
:102280009507A607B70740F4F801438B548B658B7D
:10229000768B848180688483D80114968C9183FD29
:1022A00002C0C10107C0C8010E94FB09882309F4CC
:1022B000C0CEF7CF0F900F900F900F90DF91CF917E
:1022C0001F910F91FF90EF90DF90CF90BF90AF9054
:1022D0009F908F907F906F905F904F903F902F9046
:1022E0000895FC01DB0112968D919C9113979383C5
:1022F000828381E891E09183808314968C91149776
:10230000848315968C911597858316964D915D91D2
:102310006D917C91199746835783608771871A96D0
:102320004D915D916D917C911D9742875387648794
:1023300075871E964D915D916D917C915197468761
:102340005787608B718B52968C915297828B5396E4
:102350004D915D916D917C915697438B548B658B1C
:10236000768B57964D915D916D917C915A97478BE5
:10237000508F618F728F5B968D919C915C97948F3B
:10238000838F0895DC015996ED91FC915A9730970F
:10239000B9F083899489A589B68942855385648576
:1023A0007585841B950BA60BB70B811520E892074A
:1023B000A105B10538F08FEF9FE7A0E0B0E00895E8
:1023C00080E090E00895CF93DF931F92CDB7DEB702
:1023D0006983DC01ED91FC910280F381E02D41E005
:1023E00050E0BE016F5F7F4F09950F90DF91CF9155
:1023F0000895089580E090E0089581E08093BA0305
:10240000089581E08093BD030895FC01818D928D34
:10241000009711F00C94FB090895CF93DF93EC0122
:10242000898D9A8D009739F481E090E09B838A83AF
:1024300080E090E00BC0FC01138212820E94E10F49
:10244000E98DFA8D22813381232B71F7DF91CF91B2
:102450000895CF93DF93EC01898D9A8D009741F019
:102460000E94D90C898D9A8D0E9438321A8E198E4D
:10247000DF91CF910895FC011382128288EE93E0E0
:10248000A0E0B0E084839583A683B78389E391E0DD
:1024900091838083128E118E14860895EF92FF929D
:1024A0000F931F93CF93DF93EC017B018A011B8273
:1024B0001A8288EE93E0A0E0B0E08C839D83AE8327
:1024C000BF8389E391E0998388838DE190E00E9446
:1024D000A3319A8F898F009779F02DE1F701DC0104
:1024E00001900D922A95E1F74CE050E0B801CE0141
:1024F0000C960E94ED32188EDF91CF911F910F91B3
:10250000FF90EF900895CF93DF931F92CDB7DEB782
:1025100041E050E0BE016F5F7F4F0E94710E019756
:1025200019F4898190E002C08FEF9FEF0F90DF9147
:10253000CF910895FC01818D928D009711F00C943C
:1025400083128FEF9FEF08950F931F93CF93DF9325
:10255000FC01818D928D0097B9F0EF010E948312EA
:102560008C010F3F8FEF180791F0898D9A8DFC0138
:10257000428553856485758541505109610971090A
:102580000E94390AC80105C080E090E002C08FEFC8
:102590009FEFDF91CF911F910F910895E4E6F0E056
:1025A0008081846080830895E4E6F0E080818B7F01
:1025B00080830895E4E6F0E080818D7F80838FE161
:1025C0009EE40197F1F700C00000EEE3F4E0A0897B
:1025D000B18982E08C93A485B5851C92A685B785C8
:1025E00087E68C93108EA489B58986E08C93A289A6
:1025F000B3898C9180618C93A289B3898C91886016
:102600008C93A289B3898C9180688C930288F3891A
:10261000E02D80818F7D80838FE19EE40197F1F72B
:1026200000C0000060EA7FE08EE394E00C943D1E61
:10263000E4E6F0E08081806880830895E4E6F0E0DD
:1026400080818F77808382E08A95F1F700C01092B5
:10265000A9011092A8011092D4031092F6030E94CF
:102660005B2082E08A95F1F700C00895EF92FF9217
:102670000F931F93CF93DF93082FE92E142F81E040
:102680008093D3038EE18093F5031092D4031092CC
:10269000F6038BED94E00E94A61D0E94C816612FE0
:1026A000113208F060E28EE10E9484161092A901B6
:1026B0008093A801F02EC02FDE2D8C2F8F1981174B
:1026C00030F48BED94E00E945A1D8993F6CFDF9190
:1026D000CF911F910F91FF90EF900895EF92FF928D
:1026E0000F931F93CF93DF932223B1F0213071F525
:1026F000042FF92E182F2093D3038EE18093F50336
:102700001092D4031092F6038BED94E00E94A61D64
:10271000E12EC12FDF2D08C0DF91CF911F910F91C6
:10272000FF90EF900C9436138C2F8E19801730F495
:1027300069918BED94E00E94A61DF6CFDF91CF91B9
:102740001F910F91FF90EF900C94C816DF91CF91DD
:102750001F910F91FF90EF900895CF938EE394E037
:102760000E944C1CC82F8A3029F0682F8EE394E019
:102770000E94361E8C2FCF9108958EE394E00E9424
:102780006E1C18161906CCF70E94AD138A30A9F3F7
:102790000895F999FECF90E092BD81BD60BDFA9A8F
:1027A000F99A0895F999FECF90E092BD81BDF89A0B
:1027B00080B508950F931F93CF93DF9387E00E9416
:1027C000D213182F88E00E94D213D82F89E00E94DC
:1027D000D213C82F8AE00E94D213412F50E04053F9
:1027E000510928EE33E0429FB001439F700D529F84
:1027F000700D11244D2F50E04053510994E6949FE1
:102800009001959F300D1124260F371F6C2F70E01B
:10281000605371099AE0969FA001979F500D112473
:10282000240F351FA901480F511DCA018F97CAE017
:10283000D0E0BE010E9439318B0160E3680F8AE06D
:102840000E94C913C801BE010E9439318B0160E3A7
:10285000680F89E00E94C913C801BE010E94393186
:102860008B0160E3680F88E00E94C913C801BE01B4
:102870000E94393160E3680F87E0DF91CF911F91AB
:102880000F910C94C913CF93DF930E941E1381E024
:102890008093D30388E68093F5031092D4031092BB
:1028A000F60360E08BED94E00E94A61D0E94C8161E
:1028B00064E188E60E9484161092A9018093A80121
:1028C000C0E09091A8018091A901981721F18BEDAA
:1028D00094E00E945A1DD82F6BE27FE08EE394E0D3
:1028E0000E943D1ECA3028F460E38EE394E00E940B
:1028F000361E6C2F8EE394E00E94A81768E27FE0FA
:102900008EE394E00E943D1E6D2F8EE394E00E94C2
:102910009117CF5FD6CFDF91CF910C9418130F93FF
:102920001F93CF93DF931F92CDB7DEB7162F042FDF
:1029300089830E941E1391E09093D30398E69093AD
:10294000F5031092D4031092F6038981682F8BED62
:1029500094E00E94A61D111105C0602F8BED94E03C
:102960000E94A61D0E94C816113069F461E088E635
:102970000E9484161092A9018093A8018BED94E027
:102980000E945A1D082F0E941813802F0F90DF916C
:10299000CF911F910F910895CF93DF93EB012A817F
:1029A0003B81FC01338322834C815D816E817F8179
:1029B0004483558366837783488559856A857B85FB
:1029C00040875187628773872DE0FE013C96DC01CA
:1029D0001C9601900D922A95E1F7298D3A8DFC0104
:1029E000328F218FDF91CF9108959F92AF92BF9246
:1029F000CF92DF92EF92FF920F931F93CF93DF93CB
:102A0000CDB7DEB7C85BD1090FB6F894DEBF0FBEF5
:102A1000CDBF0E94D412CE018A589F4F0E943B1214
:102A200041E065E971E0CE0101960E949018BE0177
:102A30006F5F7F4FCE018A589F4F0E94CC14C157C1
:102A4000DF4FE881F981CF58D040309721F0858160
:102A5000823008F02CC160E67FE08EE394E00E94B3
:102A60003D1E01E811E08EE2982E9BE5A92EB12CC7
:102A7000AC0EBD1E8CE0A80EB11CCE01855A9F4F36
:102A80000E943B12C157DF4FE880F980CF58D040F9
:102A9000F7018581823008F473C0F7018285938540
:102AA000A485B5858F719927AA27BB27892B8A2BE7
:102AB0008B2B09F065C040E250E0BE016F5F7F4F95
:102AC000C7010E94710E803209F05AC089818823A3
:102AD00009F456C0853E79F38E3269F38C8583FD07
:102AE000EACF22961FAE1EAE22971FAF0EAF2496DE
:102AF0001FAE2497FE01319680E090E021912032B4
:102B000091F0983041F4ACEAB0E0AC0FBD1FA80FD3
:102B1000B11D9C928F5FACEAB0E0AC0FBD1FA80F57
:102B2000B11D2C938F5F9F5F9B3041F7ECEAF0E083
:102B3000EC0FFD1FE80FF11D1082C157DF4F6881B8
:102B40007981CF58D04021E0AE0144555F4FCE018E
:102B5000CE960E94CF0A882399F0BE01625C7F4F17
:102B6000CE0181960E947111AE0144555F4FBE01A6
:102B70006F5D7F4FCE018F569F4F0E944E1205C052
:102B8000CE018F569F4F0E943B12BE016F567F4F62
:102B9000CE01855A9F4F0E94CC14E696EEADFFAD54
:102BA000E697309719F0858181111BC067E47FE0BB
:102BB0008EE394E00E943D1E0E94CE12C854DF4F67
:102BC0000FB6F894DEBF0FBECDBFDF91CF911F913E
:102BD0000F91FF90EF90DF90CF90BF90AF909F90BC
:102BE0000895B5018EE394E00E94611E67E971E0EB
:102BF0008EE394E00E94611EE696EEADFFADE6978F
:102C0000309729F0638974898589968903C060E0CB
:102C100070E0CB010E9410306B017C0120E030E0BD
:102C200040E854E40E94C2301816C4F420E030E0BA
:102C300040E859E4C701B6010E946A2F87FF0EC021
:102C400020E030E040E85AE3C701B6010E94C730F7
:102C500041E00E94041A62E47FE01FC020E030E0FF
:102C600040E859E4C701B6010E94C23087FD0EC09A
:102C700020E030E040E855E3C701B6010E94C730CC
:102C800041E00E94041A6DE37FE007C040E0C70105
:102C9000B6010E94041A65E37FE08EE394E00E948F
:102CA0003D1ECE01855A9F4F0E942912E6CE168204
:102CB0001782108611861286138614861586CBCE4F
:102CC000CF93DF93E8E8F0E18491E4E7F0E1D49179
:102CD000E0E6F0E1C491CC2391F081110E94BE2383
:102CE000EC2FF0E0EE0FFF1FEF5AFF4EA591B491CD
:102CF000EC91ED2381E090E021F480E002C080E0DF
:102D000090E0DF91CF91089590913D049111FCCF17
:102D100091E090933D0490933C042FEF20933B046B
:102D200010923A04260F209339049093380490911E
:102D30003804880F892B80933804809137048130C0
:102D400061F410923704809138048093BB00809125
:102D5000BC0083FDF8CF85EC01C085EE8093BC00FC
:102D600080913D048130E1F380913A04861710F49C
:102D700060913A04A7E1B4E027EF33E0F9018E2F28
:102D8000821B861718F48D918193F9CF862F0895B1
:102D90002091F6039091F503213208F04AC080910A
:102DA0003D048111FCCF32E030933D0431E030939B
:102DB0003C043FEF30933B0410923A0420933904D3
:102DC000A5EDB3E047E154E0FA013E2F341B321782
:102DD00018F43D913193F9CF1092380420913804C2
:102DE000990F922B9093380490913704913061F4AD
:102DF00010923704909138049093BB009091BC00DE
:102E000093FDF8CF95EC01C095EE9093BC009091A6
:102E10003D049230E1F390913B049F3F79F0809123
:102E20003B04803241F080913B04803331F084E0F8
:102E300005C081E003C082E001C083E01092D403AA
:102E40001092F6031092D3030895CF93DF9340E0DE
:102E500061E083E00E948F14982F96959695969541
:102E60009E70292F220F220F920F8F70890FCDECA9
:102E7000D3E0888340E061E084E00E948F14982FC3
:102E80009695969596959E70292F220F220F920F58
:102E90008F70890F898340E061E085E00E948F1484
:102EA000982F9695969596959670292F220F220F1A
:102EB000920F8F70890F8A8340E061E086E00E9464
:102EC0008F14982F9695969596959670292F220F88
:102ED000220F920F8F70890F8B8340E061E088E0B2
:102EE0000E948F1484FB992790F9990F292F220FA4
:102EF000220F920F8F70890F8C8340E061E089E090
:102F00000E948F14982F9695969596959E71292FCD
:102F1000220F220F920F8F70890F8D83DF91CF9137
:102F200008950F931F93CF93DF93EC01462F50E04A
:102F300060E070E02AE00E94761E8C01CE010E94C3
:102F4000BF1E800F911FDF91CF911F910F910895A8
:102F5000462F50E060E070E02AE00C94761E8F92DD
:102F60009F92AF92BF92CF92DF92EF92FF920F9318
:102F70001F93CF93DF9300D000D0CDB7DEB7FC0115
:102F80008581813079F5948191FF2CC043895489E2
:102F900065897689452B462B472B09F45CC07F0158
:102FA00040E050E0BA01CF010E94390A8823D1F0F5
:102FB000F7018788908CA18CB28CC38CD48C82E072
:102FC00090E0A0E0B0E0F60180839183A283B38318
:102FD0009E012F5F3F4FB501A401C6010E949D21B4
:102FE000811102C080E037C000E010E09801B50117
:102FF000A401C6010E94FD208823A1F389809A8044
:10300000AB80BC80F6018789803129F088EF9FEF83
:10301000AFEFBFE004C088EF9FEFA0E0B0E08816FC
:103020009906AA06BB06A0F2F701178A108E118E28
:10303000128E138A148A158A168A84818068848382
:10304000C7010E94FB09882369F240E050E0BA0101
:10305000C7010E94390A0F900F900F900F90DF91D7
:10306000CF911F910F91FF90EF90DF90CF90BF9085
:10307000AF909F908F900895CF93DF93FC012581AF
:10308000222311F080E049C0EC0180910C058031D1
:10309000C1F482E08583178A108E118E128E809182
:1030A0000D0590910E05A0E0B0E025E0880F991F76
:1030B000AA1FBB1F2A95D1F7838B948BA58BB68B48
:1030C00019C08032F9F683E0858340910F05509155
:1030D00010056091110570911205478B508F618F1B
:1030E000728F9F012D5E3F4F85EF94E00E94212259
:1030F000882341F285EF94E09C8F8B8F81E08C8355
:103100001E821F82188619861A861B861C861D86BB
:103110001E861F86188A198A1A8ADF91CF91089510
:103120002F923F924F925F926F927F928F929F92D7
:10313000AF92BF92CF92DF92EF92FF920F931F93C5
:10314000CF93DF93CDB7DEB7C756D1090FB6F8944A
:10315000DEBF0FBECDBF3C015B01A6964FAFA69769
:1031600019A218A281E891E09F8F8E8F1BA21C826A
:103170001B829A8389831E824E018EE1880E911CE8
:10318000C4010E943C187501FE0131966F012401B3
:103190001F016FE270E0C7010E94E2320097F1F177
:1031A000F70120812F3221F4FFEFEF1AFF0AF1CF50
:1031B0008E198D3008F08CE0082F10E0A801B701BF
:1031C000CE01885A9F4F0E94ED32E8E5F0E0EC0F07
:1031D000FD1FE00FF11F1082C6010E94D90C21E0F3
:1031E000AE01485A5F4FB201C6010E94CF0A811159
:1031F0000AC01EAE1DAE81E891E09CAF8BAF219658
:103200001FAE219717C0E00EF11EC2010E94D90C1B
:10321000942D852D2601C92ED82EBBCFC7018A1922
:103220009B09A8969FAF8EAFA897B201CE01CB960F
:103230000E947111A896EEADFFADA897AE0EBF1E0D
:10324000F5018081811109C0BE01655C7F4FC1011C
:103250000E94711145E951E032C019A218A281E81B
:1032600091E09F8F8E8F1BA221968FAD21978111A8
:1032700004C0C3010E943B1226C0A6962FADA6979C
:10328000A501BE01655C7F4FC4010E94CF0A88235F
:1032900081F3CE01CB960E94D90CA6968FADA6974E
:1032A0008670863039F449A95AA96BA97CA9C40152
:1032B0000E94390AB401C1010E947111A501B10136
:1032C000C3010E944E12C301C959DF4F0FB6F894D3
:1032D000DEBF0FBECDBFDF91CF911F910F91FF9049
:1032E000EF90DF90CF90BF90AF909F908F907F90A6
:1032F0006F905F904F903F902F90089562E370E140
:103300008EE394E00E943D1E80E00E94D213682F5D
:103310008EE394E00E94A51C81E00E94D213682FE6
:103320008EE394E00E94A51C82E00E94D213682FD5
:103330008EE394E00E94A51C8EE394E00E94BF1EE1
:1033400063E170E18EE394E00E943D1E84E00E9400
:10335000D213682F8EE394E00E94A51C85E00E94A2
:10336000D213682F8EE394E00E94A51C86E00E9491
:10337000D213682F8EE394E00E94A51C8EE394E0A4
:103380000E94BF1E64EF7FE08EE394E00E943D1E2A
:1033900087E00E94D213682F8EE394E00E94A51C60
:1033A00088E00E94D213682F8EE394E00E94A51C4F
:1033B00089E00E94D213682F8EE394E00E94A51C3E
:1033C0008AE00E94D213682F8EE394E00E94A51C2D
:1033D0008EE394E00E94BF1E65ED7FE08EE394E0F3
:1033E0000E943D1E8091BE03813329F0853331F464
:1033F0006DEC7FE005C062ED7FE002C065EC7FE030
:103400008EE394E00C94C31E4F925F926F927F9272
:103410008F929F92AF92BF92CF92DF92EF92FF92E4
:103420006B017C01B42E9B01AC010E9434318823D6
:1034300019F069E971E027C026013701E89477F8AF
:103440002FEF3FEF4FE75FE7C301B2010E94343136
:1034500081110DC02FEF3FEF4FE75FE7C301B201CE
:103460000E946A2F18161CF46DE971E00CC02FEF52
:103470003FEF4FE75FE4C701B6010E94C230181664
:1034800094F461EA71E08EE394E0FF90EF90DF90B6
:10349000CF90BF90AF909F908F907F906F905F90F4
:1034A0004F900C94611E2FEF3FEF4FE75FECC70189
:1034B000B6010E946A2F87FDE4CF20E030E0A90129
:1034C000C701B6010E946A2F87FF0BC06DE28EE331
:1034D00094E00E94361E4C01F7FAF094F7F8F0944D
:1034E00002C0812C912CA12C60E070E080E09FE371
:1034F000AB1441F020E030E040E251E40E946F2F35
:10350000A394F6CF9B01AC01C701B6010E94FE2E29
:103510002B013C010E94E12F6B017C010E941030C5
:103520009B01AC01C301B2010E94FD2E2B013C01A5
:103530002AE0B701A6018EE394E00E94761E7C018A
:10354000E80CF91CBB2039F06EE28EE394E00E9497
:10355000361EE80EF91EDB2CDD2031F120E030E0D4
:1035600040E251E4C301B2010E94C7302B013C018B
:103570000E94E12F4B01A12CB12C2AE0B501A4013E
:103580008EE394E00E94761EE80EF91EC501B40198
:103590000E9410309B01AC01C301B2010E94FD2EBC
:1035A0002B013C01DA94D8CFC701FF90EF90DF9058
:1035B000CF90BF90AF909F908F907F906F905F90D3
:1035C0004F9008958F929F92AF92BF92CF92DF92C9
:1035D000EF92FF92CF93DF93C82F89EE94E0909300
:1035E000B0038093AF03CC2369F1C53010F080E0C5
:1035F0000DC140E060E070E0CB010E94B420882360
:10360000B1F320E1C29FC001112481569E4FFC01FD
:10361000E254FE4F20812F7751F73C964081518133
:1036200062817381443651056105710500F3349759
:10363000C080D180E280F380C114D104E104F104A0
:1036400021F4D5CFC12CD12C760140E0C701B601C1
:103650000E94B420882359F28091BA019091BB0155
:103660008115924021F6A091BF01AA2309F4BFCF92
:103670006091BD017091BE016115710509F4B7CF6C
:103680002091BC01222309F4B2CFA0930705209317
:10369000F90480E030E0E1E0F0E0C82FAF01082E4F
:1036A00002C0440F551F0A94E2F72417350741F072
:1036B000982F8F5F983089F789E08093020597CF24
:1036C000809302052091C5013091C6012115310575
:1036D00019F040E050E008C02091D3013091D401AE
:1036E0004091D5015091D6012093FA043093FB0408
:1036F0004093FC045093FD0446015701860E971E2B
:10370000A11CB11C8092080590920905A0920A059F
:10371000B0920B05E091C001F091C101F0930E054C
:10372000E0930D05B0E00E946F31860E971EA81E33
:10373000B91E80920F0590921005A0921105B092CB
:10374000120585E0EE0FFF1F8A95E1F7E150FE4F6D
:10375000EF2FFF27E6958E0E9F1EA11CB11C8092B5
:10376000030590920405A0920505B09206052091EC
:10377000C2013091C3012115310521F0A90160E09A
:1037800070E008C04091CF015091D0016091D1010B
:103790007091D201D701C60188199909AA09BB09FC
:1037A000840F951FA61FB71F04C0B695A7959795C0
:1037B0008795CA95D2F78093FE049093FF04A09357
:1037C0000005B0930105853F2FE09207A105B105E3
:1037D00010F48CE018C0853F9F4FA105B10510F48F
:1037E00080E111C08091DB019091DC01A091DD01AD
:1037F000B091DE0180930F0590931005A093110501
:10380000B093120580E280930C0581E0DF91CF91A7
:10381000FF90EF90DF90CF90BF90AF909F908F90F0
:1038200008950895CF92DF92EF92FF920F931F9326
:10383000CF93DF936C017A018B01C0E0D0E0CE150D
:10384000DF0589F0D8016D918D01D601ED91FC91D4
:103850000190F081E02DC6010995892B11F47E01BC
:1038600002C02196ECCFC701DF91CF911F910F913C
:10387000FF90EF90DF90CF900895FC01538D448D21
:10388000252F30E0842F90E0821B930B541710F00B
:10389000CF96089501970895FC01918D828D981718
:1038A00061F0828DDF01A80FB11D5D968C91928D24
:1038B0009F5F9F73928F90E008958FEF9FEF089521
:1038C000FC01918D828D981731F0828DE80FF11DEA
:1038D000858D90E008958FEF9FEF0895FC01918D05
:1038E000228D892F90E0805C9F4F821B91098F73FE
:1038F000992708958EE394E00E946E1C21E0892BA5
:1039000009F420E0822F0895FC01848DDF01A80FC7
:10391000B11DA35ABF4F2C91848D90E001968F73F7
:103920009927848FA689B7892C93A089B1898C9116
:1039300080648C93938D848D981306C00288F389DC
:10394000E02D80818F7D80830895EF92FF920F9309
:103950001F93CF93DF93EC0181E0888F9B8D8C8D3B
:10396000981305C0E889F989808185FD24C0F62E69
:103970000B8D10E00F5F1F4F0F731127E02E8C8D02
:10398000E8120CC00FB607FCFACFE889F9898081EC
:1039900085FFF5CFCE010E94841CF1CF8B8DFE01F7
:1039A000E80FF11DE35AFF4FF0820B8FEA89FB8984
:1039B0008081806207C0EE89FF896083E889F98988
:1039C00080818064808381E090E0DF91CF911F91BE
:1039D0000F91FF90EF900895CF93DF93EC01888DC6
:1039E0008823C9F0EA89FB89808185FD05C0A88903
:1039F000B9898C9186FD0FC00FB607FCF5CF808189
:103A000085FFF2CFA889B9898C9185FFEDCFCE01D2
:103A10000E94841CE7CFDF91CF91089580E090E071
:103A2000892B29F00E947A1C81110C9400000895C2
:103A300085ED8093BC008091BC0084FDFCCF10928A
:103A40003D04089540917405262F30E0240F311D68
:103A500021323105DCF420913D042430C9F4FC010D
:103A600080E090E0861758F4309174052191DC01D4
:103A7000AE5ABA4FA30FB11D2C930196F3CF80918C
:103A80007405680F6093740580E0089581E00895DF
:103A900082E008950895E091A9018091A801E817B6
:103AA00030F4F0E0E950FC4F808190E008958FEF12
:103AB0009FEF08959091A9018091A801981750F463
:103AC000E92FF0E0E950FC4F208130E09F5F9093B8
:103AD000A90102C02FEF3FEFC90108958091A8010D
:103AE00090E02091A901821B91090895CF92DF9265
:103AF000EF92FF920F931F93CF93DF937C01262FBA
:103B0000972F8A018091D303882391F0C62FD72F56
:103B10006E01C40ED51ECC15DD0571F06991D7017B
:103B2000ED91FC910190F081E02DC7010995F3CF53
:103B3000642F822F0E94221DC801DF91CF911F9117
:103B40000F91FF90EF90DF90CF900895CF93DF9388
:103B50001F92CDB7DEB769832091D3032223D1F022
:103B60002091F603203240F021E030E0FC01338365
:103B7000228380E090E015C08091D403E82FF0E02C
:103B8000EB52FC4F998190838F5F8093D403809395
:103B9000F60305C061E0CE0101960E94221D81E07E
:103BA00090E00F90DF91CF9108950E94D032CF9393
:103BB000DF931F92CDB7DEB7698341E050E0BE01CD
:103BC0006F5F7F4F0E94E10F0F90DF91CF910895BB
:103BD0001F920F920FB60F9211242F933F934F9382
:103BE0005F936F937F938F939F93AF93BF93EF9365
:103BF000FF93E0910201F09103010995FF91EF918C
:103C0000BF91AF919F918F917F916F915F914F91F4
:103C10003F912F910F900FBE0F901F9018951F92FC
:103C20000F920FB60F9211242F933F934F935F93F0
:103C30006F937F938F939F93AF93BF93EF93FF9374
:103C4000E0910001F09101010995FF91EF91BF9181
:103C5000AF919F918F917F916F915F914F913F9124
:103C60002F910F900FBE0F901F901895DC01ED91D2
:103C7000FC910190F081E02D0994EF92FF920F9357
:103C80001F93CF93DF938C017B01C0E0D0E0F7015D
:103C9000EC0FFD1F6491662361F0D801ED91FC915A
:103CA0000190F081E02DC8010995892B11F0219632
:103CB000EECFCE01DF91CF911F910F91FF90EF904A
:103CC00008956115710579F0FB0101900020E9F775
:103CD0003197AF01461B570BDC01ED91FC9102803F
:103CE000F381E02D099480E090E008954F925F9277
:103CF0006F927F92EF92FF920F931F93CF93DF9378
:103D0000CDB7DEB7A1970FB6F894DEBF0FBECDBF1B
:103D10007C01FA01CB0119A2223008F42AE08E01BD
:103D20000F5D1F4F422E512C612C712CBF01A3013E
:103D300092010E944D31F901CA01015011096A3006
:103D400014F4605D01C0695CD8016C93232B242BB3
:103D5000252B61F7B801C7010E94611EA1960FB61D
:103D6000F894DEBF0FBECDBFDF91CF911F910F91B1
:103D7000FF90EF907F906F905F904F90089565EA6D
:103D800071E00C94611E0F931F93CF93DF93EC01AE
:103D90000E943D1E8C01CE010E94BF1E800F911F0C
:103DA000DF91CF911F910F9108951F920F920FB63F
:103DB0000F9211242F933F934F935F936F937F93B1
:103DC0008F939F93AF93BF93EF93FF938EE394E012
:103DD0000E94841CFF91EF91BF91AF919F918F91B1
:103DE0007F916F915F914F913F912F910F900FBEF7
:103DF0000F901F9018951F920F920FB60F921124DB
:103E00002F938F939F93EF93FF93E0914E04F09144
:103E10004F048081E0915404F091550482FD12C05A
:103E20009081809157048F5F8F732091580482177F
:103E300051F0E0915704F0E0E25CFB4F958F8093E6
:103E4000570401C08081FF91EF919F918F912F9135
:103E50000F900FBE0F901F9018951F920F920FB6E4
:103E60000F9211242F933F934F935F936F937F9300
:103E70008F939F93AF93BF93EF93FF938091B9007C
:103E8000887F803609F49CC068F5883209F45BC0ED
:103E900090F4803109F454C038F4882309F4F6C052
:103EA000883009F44DC0F6C0883109F44CC0803226
:103EB00009F45DC0EFC0803409F468C048F4803371
:103EC00009F455C0883309F0E5C080933B04D8C09D
:103ED000803509F44FC0883509F45DC0883409F095
:103EE000D9C0D6C0883909F4C7C0A8F4883709F406
:103EF00067C038F4883609F463C0803709F460C0BD
:103F0000C9C0883809F4B8C0803909F45FC0803866
:103F100009F0C0C05BC0803B09F486C038F4803A29
:103F200009F466C0883A09F47FC0B4C0803C09F443
:103F3000A7C0883C09F4A4C0883B09F48AC0AAC081
:103F40008091380410C090913A04809139049817F8
:103F500070F5E0913A0481E08E0F80933A04F0E02E
:103F6000E95EFB4F80818093BB0085EC86C0809327
:103F70003B048EC0E0913A0481E08E0F80933A04B6
:103F80008091BB00F0E0E95EFB4F808390913A04A2
:103F9000809139046EC0E0913A0481E08E0F8093E5
:103FA0003A048091BB00F0E0E95EFB4F8083809192
:103FB0003C0481116DC081E08093370484EA61C0C4
:103FC00083E080933D0410929805CFCF80919805AF
:103FD000803208F051C0E091980581E08E0F809307
:103FE00098058091BB00F0E0E858FA4F8083BDCF80
:103FF00085EC8093BC0010923D048091980580323E
:1040000030F4E0919805F0E0E858FA4F10826091A2
:10401000980570E0E0917605F091770588E795E0E6
:1040200009951092980536C084E080933D04109263
:10403000750510927405E0917205F091730509956C
:1040400080917405811105C081E080937405109200
:104050005205E091750581E08E0F80937505F0E0C3
:10406000EE5AFA4F80818093BB0090917505809144
:104070007405981708F479CF85E88093BC000AC0CE
:1040800085EC8093BC0010923D0404C010923B0468
:104090000E94181DFF91EF91BF91AF919F918F9159
:1040A0007F916F915F914F913F912F910F900FBE34
:1040B0000F901F90189510923D0481E080933C046E
:1040C0001092370461E082E10E94E72361E083E11E
:1040D0000E94E723E9EBF0E080818E7F808380817E
:1040E0008D7F808380E28093B80085E48093BC005C
:1040F000089580914D058823A9F140912B0150919D
:104100002C0160912D0170912E012FEA31E08091F8
:10411000AF039091B0030E94760F811102C080E03E
:10412000089540914E0550914F0560915005709152
:104130005105411551056105710591F02FEA31E0F6
:104140008091AF039091B0030E94760F882339F3DA
:1041500010924E0510924F05109250051092510585
:1041600010924D0581E008958F929F92AF92BF9279
:10417000EF92FF920F931F93CF934B015C01C42FDB
:1041800080912B0190912C01A0912D01B0912E01D5
:1041900088159905AA05BB0501F10E9479208111B6
:1041A00002C080E020C08FEAE82E81E0F82E00E017
:1041B00012E020E030E0B501A4018091AF039091BE
:1041C000B0030E94DD0D882361F380922B01909251
:1041D0002C01A0922D01B0922E0180914D05C82B8B
:1041E000C0934D0581E0CF911F910F91FF90EF900B
:1041F000BF90AF909F908F9008954F925F926F9273
:104200007F928F929F92AF92BF92CF92DF92EF9266
:10421000FF920F931F93CF93DF93EC016A017B0111
:1042200028013901423051056105710510F480E023
:1042300073C089859A85AB85BC850196A11DB11D8A
:1042400084179507A607B70790F38B889C88AD88DD
:10425000BE888F89803129F4BB27AF2D9E2D8D2DEF
:1042600009C0DB01CA0147E0B695A79597958795E8
:104270004A95D1F7880E991EAA1EBB1E80912B016C
:1042800090912C01A0912D01B0912E0188169906D4
:10429000AA06BB0679F48F898031A1F4DD24EE24CF
:1042A000FF24C601880F991FFC01E155FE4F518282
:1042B000408219C040E0C501B4010E94B4208111C0
:1042C000EACFB5CFE894C7F8DD24EE24FF24C60179
:1042D000880F991F880F991FFC01E155FE4F4082FE
:1042E00051826282738280914D05816080934D0579
:1042F0008A89823080F08D819E81AF81B885880E59
:10430000991EAA1EBB1E80924E0590924F05A09248
:104310005005B092510581E0DF91CF911F910F912F
:10432000FF90EF90DF90CF90BF90AF909F908F90D5
:104330007F906F905F904F9008958F929F92AF9271
:10434000BF92CF92DF92EF92FF920F931F93CF9382
:10435000DF93FC0181859285A385B4850196A11D1B
:10436000B11D84179507A607B70710F480E05CC05D
:1043700083899489A589B689C789C03129F4852E96
:10438000962EA72EBB2409C04A015B01C7E0B69454
:10439000A79497948794CA95D1F7E9016A017B01A4
:1043A0008F01BC01CD01680D791D8A1D9B1D809078
:1043B0002B0190902C01A0902D01B0902E0168153A
:1043C00079058A059B0599F4F80187898031A9F45C
:1043D000B701A601552766277727440F551FFA0115
:1043E000E155FE4F80819181A0E0B0E018C040E02F
:1043F0000E94B4208111E8CFB9CFB701A6014F7751
:10440000552766277727440F551F440F551FFA017C
:10441000E155FE4F80819181A281B381BF70888375
:104420009983AA83BB8381E0DF91CF911F910F9184
:10443000FF90EF90DF90CF90BF90AF909F908F90C4
:1044400008954F925F926F927F92AF92BF92CF92F8
:10445000DF92EF92FF920F931F93CF93DF9300D0E1
:1044600000D0CDB7DEB78C0149835A836B837C8340
:104470005901C12CD12C7601412C82E0582E612C9F
:10448000712C49815A816B817C819E012F5F3F4F46
:10449000C8010E949D21882351F1D301C201F80176
:1044A000058404C0880F991FAA1FBB1F0A94D2F766
:1044B000C80ED91EEA1EFB1E49815A816B817C8180
:1044C0008789803129F088EF9FEFAFEFBFE004C00C
:1044D00088EF9FEFA0E0B0E0481759076A077B0715
:1044E00080F2F501C082D182E282F38281E00F90F6
:1044F0000F900F900F90DF91CF911F910F91FF9030
:10450000EF90DF90CF90BF90AF907F906F905F90D3
:104510004F9008956F927F928F929F92AF92BF9229
:10452000CF92DF92EF92FF920F931F93CF93DF937F
:10453000CDB7DEB7C754D1090FB6F894DEBF0FBEB2
:10454000CDBF6C015B0119A218A281E891E09F8F99
:104550008E8F1BA21C821B829A8389831E82812CD0
:10456000912C7E018EE1E80EF11C03E115E0772429
:1045700073949401F601E80DF91D80818F3211F4D6
:104580002F5F3F4FFE01FB9680E090E0D601A20F27
:10459000B31F4C914F3249F0442339F001962F5FFD
:1045A0003F4F41938C30910589F7EBE3F0E0EC0F3E
:1045B000FD1FE80FF91F1082F601E20FF31F808143
:1045C0008F3211F42F5F3F4F4901F601E20FF31FC5
:1045D000662463948081811101C0612C20E030E069
:1045E000462D4725BE01655C7F4FC801F501099541
:1045F000811109C0F5E003311F0719F0C8010E94BD
:10460000D90C80E029C06620C1F021E0AE01455CF4
:104610005F4FB801C7010E94CF0A682E85E00331C1
:104620001807A1F0C8010E94D90C662051F3902F01
:10463000812F8701E92EF82E9CCFE5E003311E077C
:1046400019F0C8010E94D90C81E006C06620C9F2A9
:104650008E010F5F1F4FEBCFC95BDF4F0FB6F89492
:10466000DEBF0FBECDBFDF91CF911F910F91FF90A5
:10467000EF90DF90CF90BF90AF909F908F907F9002
:104680006F900895FF920F931F93CF93DF93C09184
:10469000CE03D091CF030091D003F090D1031091BD
:1046A000D20361EA70E18EE394E00E943D1E6F2D1B
:1046B0008EE394E00E94A8176FE28EE394E00E94DC
:1046C000361E602F8EE394E00E94A8176FE28EE3FF
:1046D00094E00E94361E612F8EE394E00E94A8179A
:1046E00060E28EE394E00E94361E6D2F8EE394E02C
:1046F0000E94A8176AE38EE394E00E94361ECA3037
:1047000028F460E38EE394E00E94361E6C2F8EE363
:1047100094E0DF91CF911F910F91FF900C94A81717
:10472000CF93DF9380E00E94D213C1EBD3E08F8759
:1047300081E00E94D213888B82E00E94D213898B81
:104740008FE58A8B87E00E94D2138B8B88E00E94D2
:10475000D2138C8B89E00E94D2138D8B8AE00E9449
:10476000D2138E8B8EE28F8B83E6888F83E7898FBF
:1047700086E78A8F1B8EDF91CF910895833081F079
:1047800028F4813099F08230A1F008958730A9F0A3
:104790008830B9F08430D1F4809180008F7D03C0DF
:1047A000809180008F7780938000089584B58F7703
:1047B00002C084B58F7D84BD08958091B0008F774D
:1047C00003C08091B0008F7D8093B00008951F9347
:1047D000CF93DF93282F30E0F901ED57FF4E8491FE
:1047E000F901E159FF4ED491F901E55AFF4EC49108
:1047F000CC23C9F0162F81110E94BE23EC2FF0E0CC
:10480000EE0FFF1FE956FF4EA591B4918FB7F894B4
:10481000111105C09C91ED2FE095E92302C0EC91A8
:10482000ED2BEC938FBFDF91CF911F910895CF9324
:10483000DF9390E0FC01E159FF4E2491FC01E55A21
:10484000FF4E8491882361F190E0880F991FFC014D
:10485000E355FF4EC591D491FC01E956FF4EA59159
:10486000B491611109C09FB7F89488812095822383
:104870008883EC912E230BC0623061F49FB7F894CB
:104880003881822F809583238883EC912E2B2C9363
:104890009FBF06C08FB7F894E8812E2B28838FBF67
:1048A000DF91CF9108952FB7F89460919E05709194
:1048B0009F058091A0059091A1052FBF08958F922B
:1048C0009F92AF92BF92CF92DF92EF92FF92CF93DF
:1048D00080911805882321F083E195E00E94D90C8E
:1048E0001092F4041092F2041092EF041092EE046D
:1048F0008AE08093ED040E9453246B017C0161E007
:104900008091ED040E94172461E08091ED040E94E3
:10491000E723CFB7F8948091A205811127C0E5E67F
:10492000F0E18491E9E7F0E19491E82FF0E0EE0FF7
:10493000FF1FE355FF4EA591B491EC91E92321F4BB
:1049400061E08AE00E94E72361E08AE00E94172488
:104950008CB580618CBD8CB580648CBD61E08DE0D0
:104960000E94172461E08BE00E9417248091A20529
:104970008F5F8093A205CFBF82E58093E70481E03B
:104980008093E8048091E7049091E8040E94620D0E
:10499000CAE08FEF0E94230DC150D9F789EE94E051
:1049A0000E94650D20E030E0A90160E089EE94E00E
:1049B0000E947B0DC82F8093F304813049F00E9440
:1049C00053246C197D09613D774060F381E054C048
:1049D0002AEA31E040E050E068E089EE94E00E948D
:1049E0007B0D82FF03C0C093F4040EC0C4E00E949C
:1049F0002A0D8093F304C150D1F78A3A11F082E076
:104A00003BC082E08093F4048091F404823021F072
:104A1000812C912C540105C0812C912CA12C80E477
:104A2000B82E20E030E0A90167E389EE94E00E940F
:104A30007B0DA501940169E289EE94E00E947B0D53
:104A40008093F304882349F00E9453246C197D0954
:104A5000613D774030F388E00FC08091F4048230EC
:104A600001F520E030E0A9016AE389EE94E00E94BC
:104A70007B0D882341F086E08093EE0489EE94E07C
:104A80000E94180D29C00E942A0D807C803C19F4D8
:104A900083E08093F4040E942A0D0E942A0D0E9454
:104AA0002A0D89EE94E00E94180D80E58093E704BA
:104AB00081E08093E8040E94E21A882341F083E1B8
:104AC00095E00E943C1891E0811107C005C080E08C
:104AD0000E94E21A8111F3CF90E0892FCF91FF90CD
:104AE000EF90DF90CF90BF90AF909F908F90089500
:104AF0001F920F920FB60F9211242F933F938F9313
:104B00009F93AF93BF9380919E0590919F05A09135
:104B1000A005B091A10530919D0526E0230F2D370A
:104B200020F40296A11DB11D05C029E8230F0396AC
:104B3000A11DB11D20939D0580939E0590939F0517
:104B4000A093A005B093A1058091990590919A0535
:104B5000A0919B05B0919C050196A11DB11D80936C
:104B6000990590939A05A0939B05B0939C05BF91DE
:104B7000AF919F918F913F912F910F900FBE0F900A
:104B80001F901895CF93DF93CDB7DEB7E7970FB699
:104B9000F894DEBF0FBECDBF789484B5826084BD2B
:104BA00084B5816084BD85B5826085BD85B5816031
:104BB00085BD80916E00816080936E0010928100AF
:104BC000809181008260809381008091810081606A
:104BD000809381008091800081608093800080912B
:104BE000B10084608093B1008091B00081608093B7
:104BF000B00080917A00846080937A0080917A007E
:104C0000826080937A0080917A008E7F80937A0010
:104C100080917A00806880937A001092C10010928F
:104C2000B1031092B2031092B4031092B30381E067
:104C300090E0A0E0B0E08093B5039093B603A0931A
:104C4000B703B093B8031092B9031092BA0310924D
:104C5000BB031092BC031092BD031092BF0360E02F
:104C600082E00E94172462E083E00E94172460E043
:104C700085E00E94172461E084E00E94172460E030
:104C800084E00E94E7230E941E131092A901109253
:104C9000A8011092D4031092F6030E945B2082E3D5
:104CA000898321E041E060E28E010F5F1F4FC80160
:104CB0000E946E1341E060E2C8010E9436138981B0
:104CC000823361F5198221E041E062E2C8010E946D
:104CD0006E1341E062E2C8010E943613898181119E
:104CE0001DC084E0898321E041E063E2C8010E94A5
:104CF0006E1341E063E2C8010E943613898184305B
:104D000069F480E8898321E041E064E2C8010E94FF
:104D10006E1341E064E2C8010E9436134AE360E08A
:104D20008FE00E948F1442E060E080E10E948F14C7
:104D300044E060E081E10E948F1442E060E081E0A5
:104D40000E948F1440E860E082E00E948F1481E0AE
:104D500092E190930101809300018091690083604A
:104D600080936900E89A8DEF91E19093030180931D
:104D7000020180916900837F886080936900E99ACD
:104D8000E898E99A0E94251778019BE0892F9FAB4C
:104D90000E94D213D7018D937D019FA99F5F9F3001
:104DA000A9F799818A81890F2B819C81920F9F3F5E
:104DB00059F48F3F49F481E08093BF0383E00E9460
:104DC000D2138093BE0302C01092BF0310927A00E8
:104DD00080916400816080936400809164008062AF
:104DE0008093640080916400886080936400809167
:104DF0006400806480936400809164008068809384
:104E000064008091640082608093640080916400FB
:104E10008460809364000E946016892B99F48091CD
:104E2000BB0381110FC081E08093BB030E94DA12A3
:104E30008091BF03811106C068E670E08EE394E0C4
:104E40000E943D1EBB24B3942CE0A22EA00E0E9413
:104E50006016892B91F48091BB0381110EC0B09232
:104E6000BB030E94DA128091BF03811106C069EC76
:104E70007EE08EE394E00E943D1E8091BB03882378
:104E800009F496C58EE394E00E946E1C181619066C
:104E90000CF08EC50E94AD13282F8A3009F488C506
:104EA0008EE394E02FAB0E94BF1E2FA9273609F492
:104EB00044C044F5233509F41EC4D4F4253409F460
:104EC000BDC1223509F06EC56BE37EE08EE394E050
:104ED0000E943D1EE99860E47AE08EE394E00E942F
:104EE0003D1E6CEF79E08EE394E00E943D1E39C2D6
:104EF000243609F485C1253609F487C1233609F023
:104F000051C530C1203709F427C26CF4293609F4A1
:104F10000BC20CF4ACC12C3609F044C50E94F51448
:104F20006EE67EE041C5253709F4FEC3273709F454
:104F30008EC4233709F036C5EFC26EE472E08EE30B
:104F400094E00E943D1E6DE072E08EE394E00E94CA
:104F50003D1E80E00E94D213682F8EE394E00E94F1
:104F6000A51C81E00E94D213682F8EE394E00E947A
:104F7000A51C82E00E94D213682F8EE394E00E9469
:104F8000A51C8EE394E00E94BF1E61E072E08EE3F8
:104F900094E00E943D1E0E94BD13682F80E00E9495
:104FA000C9130E94BD13682F81E00E94C9130E949B
:104FB000BD13682F82E00E94C9136FEB71E08EE38E
:104FC00094E00E943D1E84E00E94D213682F8EE37D
:104FD00094E00E94A51C85E00E94D213682F8EE306
:104FE00094E00E94A51C86E00E94D213682F8EE3F5
:104FF00094E00E94A51C8EE394E00E94BF1E63EB28
:1050000071E08EE394E00E943D1E0E94BD13682F64
:1050100084E00E94C9130E94BD13682F85E00E949E
:10502000C9130E94BD13682F86E00E94C91369E965
:1050300071E08EE394E00E943D1E66E871E08EE32D
:1050400094E00E943D1E61E771E08EE394E00E94CF
:105050003D1E65E671E08EE394E00E943D1E0E94D5
:10506000BD13F82EB1E38B1731F0E5E38E130CC0BE
:1050700067E371E002C06FE471E08EE394E00E94A8
:105080003D1EF092BE0308C06BE071E08EE394E039
:105090000E943D1E1092BE036091BE0383E00E94F9
:1050A000C91363EC70E08EE394E00E943D1E87E03C
:1050B0000E94D213682F8EE394E00E94A51C88E022
:1050C0000E94D213682F8EE394E00E94A51C89E011
:1050D0000E94D213682F8EE394E00E94A51C8AE000
:1050E0000E94D213682F8EE394E00E94A51C8EE3E9
:1050F00094E00E94BF1E67EB70E08EE394E00E9494
:105100003D1E0E94BD13682F87E00E94C9130E94B4
:10511000BD13682F88E00E94C9130E94BD13682F39
:1051200089E00E94C9130E94BD13682F8AE00E9483
:10513000C91365E98EE00E94C9136AE68DE00E94FA
:10514000C9136DEB8CE00E94C91362E48BE00E94EE
:10515000C9138EE394E00E94BF1E0E947E196CEB7F
:105160007EE022C48091BC03811103C062E073E041
:1051700040C08091B90381113AC01D860E94F51488
:1051800067EB72E08EE394E00E943D1E78010E947E
:10519000BD13D7018D937D01AA12F9CF6AE772E0A2
:1051A0008EE394E00E943D1EB8018EE394E00E94DD
:1051B000611E67E672E08EE394E00E943D1E0E944D
:1051C000BD13893511F0893759F40E94D4120E9419
:1051D0005F246EE87CE0C8010E948A220E94CE1201
:1051E0008EE394E00E94BF1E0E94F51406C063ED9A
:1051F00072E08EE394E00E943D1E6FEA7EE0D4C32D
:105200000E94422362EA7EE0CFC30E94422366E20C
:1052100073E08EE394E00E943D1E1092BB03BFEF4B
:10522000E9E6F8E1B150E040F040E1F700C00000ED
:1052300080916400826080936400BAC38091B90356
:10524000882319F06EE373E00BC08091BC038111D9
:1052500003C061EB73E004C01092BC036AE873E022
:105260008EE394E00E943D1E65E97EE09DC361E20D
:1052700076E08EE394E00E943D1E61E076E08EE3EE
:1052800094E00E943D1E60EE75E08EE394E00E9483
:105290003D1E68EB75E08EE394E00E943D1E68E9D8
:1052A00075E08EE394E00E943D1E6DE675E08EE3AE
:1052B00094E00E943D1E6EE475E08EE394E00E944F
:1052C0003D1E65E275E08EE394E00E943D1E69EFAD
:1052D00074E08EE394E00E943D1E6EEC74E08EE379
:1052E00094E00E943D1E6BEA74E08EE394E00E941D
:1052F0003D1E6DE574E08EE394E00E943D1E6AE37E
:1053000074E08EE394E00E943D1E67E174E08EE35A
:1053100094E00E943D1E65ED73E08EE394E00E94F0
:105320003D1E68E87EE040C30E94D4120E945F24C4
:10533000882329F0B092BC036AE676E004C010929C
:10534000BC036FE376E08EE394E00E943D1E0E9472
:10535000CE126BE77EE028C30E947E1961E67EE0F4
:1053600023C36AEE79E08EE394E00E943D1E64EC74
:1053700079E08EE394E00E943D1E64EA79E08EE3DA
:1053800094E00E943D1E68E779E08EE394E00E947D
:105390003D1E6DE579E08EE394E00E943D1E6CE4D5
:1053A00079E08EE394E00E943D1E60E479E08EE3B4
:1053B00094E00E943D1E0E94BD138333B9F114F5A1
:1053C000813331F1823309F08AC066EB78E08EE3F5
:1053D00094E00E943D1E4AE360E08FE00E948F143B
:1053E00042E060E080E10E948F1444E060E081E1EF
:1053F0000E948F1442E060E081E00E948F146AE90D
:1054000078E06FC08433A9F0853309F470C067C0B9
:105410006EE079E08EE394E00E943D1E42E060E0A1
:1054200081E00E948F146EEE78E05BC062E178E06C
:105430004FC062EC77E08EE394E00E943D1E63E88B
:1054400077E08EE394E00E943D1E0E94BD13F82E8B
:105450000E94BD1380539F2D990F9056F92EFF0C7B
:10546000FF0C9F0DF82EF90E62E377E08EE394E0D7
:105470000E943D1E0E94BD138FAB0E94BD13482F9A
:105480009FA9973434F4913444F490539A3030F017
:1054900008C08FE9890F863020F497539295907F4A
:1054A00001C090E0473434F4413444F440534A306E
:1054B00040F006C08FE9840F863010F4475301C0D6
:1054C00040E0490F60E08F2D0E948F1465EE76E07A
:1054D0008EE394E00E943D1E0E94431406C069E9D9
:1054E00076E08EE394E00E943D1EF12C02C0FF2482
:1054F000F39468E876E08EE394E00E943D1EFF207E
:1055000009F42FCF6FE776E08EE394E00E943D1E12
:10551000E99A6EE27EE048C28091BC03882309F4D8
:10552000E1C08091B903882319F06FE07BE0DCC013
:105530000E9490230E94D41265EE7CE080EC93E000
:105540000E948A22882329F00E94DA130E94902365
:10555000F3CF6CED7AE08EE394E00E943D1EE12CE7
:10556000F12CF701EF54FC4F67858EE394E00E9425
:10557000361E2FEFE21AF20A8DE0E816F10489F7E1
:105580008EE394E00E94BF1EB092B90381E090E0E8
:10559000A0E0B0E08093B5039093B603A093B70367
:1055A000B093B8031092B1031092B2031092B403F7
:1055B0001092B3030E94D412CE014C960E943B126B
:1055C00047E160EC73E0C8010E949018B801CE0179
:1055D0004C960E94CC1466EB7AE0CE014C960E9469
:1055E0003D1E80E00E94D213682FCE014C960E948F
:1055F000E31181E00E94D213682FCE014C960E94E5
:10560000E31182E00E94D213682FCE014C960E94D3
:10561000E311CE014C960E94BF1E64EA7AE0CE01EF
:105620004C960E943D1E84E00E94D213682FCE014A
:105630004C960E94E31185E00E94D213682FCE01A0
:105640004C960E94E31186E00E94D213682FCE018F
:105650004C960E94E311CE014C960E94BF1E67E952
:105660007AE0CE014C960E943D1E8091BE038133AC
:1056700029F0853331F46FE87AE005C064E97AE017
:1056800002C067E87AE0CE014C960E94C31E63E731
:105690007AE0CE014C960E943D1ECE014C960E94AF
:1056A00029120E94CE120E941E1343E069E28AEA88
:1056B00091E00E9436136091AA01062E000C770B30
:1056C000880B990B0E9412306093080170930901B6
:1056D00080930A0190930B010E941813E89A6FEBD4
:1056E0007AE002C068EE7AE08EE394E00E943D1E0C
:1056F00061E27EE059C18091B903882361F0109284
:10570000B903E8986BE27BE08EE394E00E943D1ED3
:105710000E94DA1306C067E47BE08EE394E00E9407
:105720003D1E64E17EE040C16AE37CE08EE394E0EC
:105730000E943D1E68E17CE08EE394E00E943D1EE5
:105740000E94BD13982E0E94BD13882E67EF7BE048
:105750008EE394E00E943D1E0E94BD13482E0E94DD
:10576000BD13C82E65ED7BE08EE394E00E943D1EE4
:105770000E94BD13582E0E94BD13D82E64EA7BE010
:105780008EE394E00E943D1E0E94BD13682E0E948D
:10579000BD13E82E60E87BE08EE394E00E943D1E9E
:1057A0000E94BD13782E0E94BD13F82E8EE394E064
:1057B0000E94BF1E80ED8C0DC82E90E1499EC00C4A
:1057C000112480ED8D0DD82EA0E15A9ED00C11240D
:1057D00080ED8E0DE82EB0E16B9EE00C112480ED83
:1057E0008F0DF82EE0E17E9EF00C112490ED980DC7
:1057F000492FF0E19F9E400D112460E088E00E9457
:105800008F144C2D60E086E00E948F144D2D60E0D7
:1058100089E00E948F144E2D60E085E00E948F1475
:105820004F2D60E084E00E948F1440E060E083E050
:105830000E948F140E9425170E9442236FE57BE08F
:105840008EE394E00E943D1E67E07EE0ADC064E818
:105850007DE08EE394E00E94C31E7090B2038090BE
:10586000B3039090B4038091BE03813379F0853304
:1058700049F492E7C92E9AE8D92E9EE0E92E9CE3DE
:10588000F92E0CC0C12CD12C760108C082E0C82EA4
:105890008BE2D82E87E0E82E8DE3F82E6AE67DE0D5
:1058A0008EE394E00E943D1E672D8EE394E00E94FB
:1058B000911720E030E0A901C701B6010E946A2FCC
:1058C000882309F466C0672D70E080E090E00E94B4
:1058D0001030A70196010E94C7302B013C0160E502
:1058E0007DE08EE394E00E943D1E42E0C301B201E0
:1058F0000E94041A6AE47DE08EE394E00E943D1E5B
:1059000060E37DE08EE394E00E943D1E20E030E005
:1059100040E752E4C301B2010E94C73020E030E00A
:1059200040E85EE30E94C73042E00E94041A65E24C
:105930007DE08EE394E00E943D1E67EF7CE08EE305
:1059400094E00E943D1E2401612C712C2AE0B301D9
:10595000A2018EE394E00E94761E8EE394E00E9402
:10596000BF1E69EC7CE08EE394E00E943D1EC30103
:10597000B2010E941030A70196010E94C73042E098
:105980000E94041A63EC7CE08EE394E00E943D1ECA
:1059900006C060E67CE08EE394E00E94C31E6AEFDE
:1059A0007DE002C066EA7DE08EE394E00E943D1E49
:1059B0008091BA03882309F424C11092BA0342E00B
:1059C00060E081E00E948F140E9425178091B90346
:1059D000882309F416C1F090B1031092B103F0923C
:1059E000B2038091B3039091B4038F0D911D9093F6
:1059F000B4038093B30340E061E089E00E948F1418
:105A0000982F9695969596959E71292F220F220F85
:105A1000920F8F70890F8093D20340E061E088E09D
:105A20000E948F1484FB992790F9990F292F220F38
:105A3000220F920F8F70890F8093D10340E061E0B5
:105A400086E00E948F14982F96959695969596705D
:105A5000292F220F220F920F8F70890F8093D0036E
:105A600040E061E085E00E948F14982F969596950E
:105A700096959670292F220F220F920F8F70890F03
:105A80008093CF0340E061E084E00E948F14982F60
:105A90009695969596959E70292F220F220F920F1C
:105AA0008F70890F8093CE0340E061E083E00E9415
:105AB0008F14982F9695969596959E70292F220F64
:105AC000220F920F8F70890F8093CD030E94D41202
:105AD00047E160EC73E0C8010E949018B80182E3CE
