:100000000C94B1080C9483130C945C130C94D908D1
:100010000C94D9080C94D9080C94D9080C94D908DC
:100020000C94D9080C94D9080C94D9080C94D908CC
:100030000C94D9080C94D9080C94D9080C94D908BC
:100040000C9491260C94D9080C946F140C944914B8
:100050000C94D9080C94D9080C94D9080C94D9089C
:100060000C94A1140C94D9083E3E204C6F67676530
:10007000723A20496E76616C6964206465766963C2
:100080006520636F6E66696775726174696F6E2E45
:1000900020526573657420636F6E6669677572615F
:1000A00074696F6E207769746820636F6D6D616E1F
:1000B00064202767270A003E3E20557365723A2068
:1000C0002020000A3E3E204C6F676765723A204947
:1000D0006E7075742053657175656E7469616C20FE
:1000E00046696C65204E756D626572202834204427
:1000F0004947495453292E2043757272656E742006
:100100004E756D62657220697320000A3E3E204C78
:100110006F676765723A205741524E494E473A2001
:10012000494E56414C4944204D65746572207365B3
:100130007474696E670A000A3E3E204C6F676765FB
:10014000723A20352F3822204D657465720A000AF4
:100150003E3E204C6F676765723A203122204D6524
:100160007465720A003E3E20557365723A20202065
:10017000002020202035202D2D20352F3822204D05
:10018000657465720A002020202031202D2D203139
:1001900022204D657465720A000A3E3E204C6F674E
:1001A0006765723A2053656C656374204D657465AC
:1001B000720A003E3E20557365723A202020000AE4
:1001C0003E3E204C6F676765723A20496E707574C9
:1001D00020446174616C6F67676572204944204EEA
:1001E000756D62657220283320444947495453296C
:1001F0002E2043757272656E742049442069732005
:10020000003E3E20557365723A202020003E3E207D
:100210004C6F676765723A20496E70757420536938
:100220007465204E756D62657220283320444947FD
:10023000495453292E2043757272656E7420536998
:100240007465204E756D62657220697320000A3EE8
:100250003E204C6F676765723A20436F6E66696730
:100260007572696E670A002E20436F6E74696E7531
:10027000653F28792F6E293A20000A3E3E204C6FB8
:10028000676765723A205741524E494E473A2054AB
:10029000686973206F7065726174696F6E20776929
:1002A0006C6C207065726D616E656E746C79206423
:1002B000656C65746520003E3E204C6F6767657213
:1002C0003A2046696C6520746F2072656D6F7665A3
:1002D0003A20003E3E204C6F676765723A204361CA
:1002E0006E6E6F7420636C65616E205344204361B1
:1002F0007264207768696C65206C6F6767696E67E8
:100300002E003E3E204C6F676765723A20534420B2
:1003100043617264206E6F7420696E697469616CE8
:10032000697A65642E000A3E3E204C6F67676572ED
:100330003A204578697474696E672E0A0A003E3E59
:10034000204C6F676765723A2053442043617264A2
:1003500020627573792E2055736520636F6D6D6112
:100360006E642027532720746F2073746F7020648D
:100370006174616C6F6767696E6720616E64207479
:10038000727920616761696E2E003E3E204C6F6776
:100390006765723A2053442043617264206D61792D
:1003A000206E6F772062652072656D6F7665642EB2
:1003B000003E3E204C6F676765723A2053442043ED
:1003C00061726420616C726561647920656A65633D
:1003D0007465642E00202020202020202020202052
:1003E0007720202D2D205072696E742077617465FE
:1003F0007220666C6F7720646174612066726F6D25
:10040000206C61737420636F6D706C65746520730C
:10041000616D706C650A00202020202020202020A3
:1004200020207520202D2D20557064617465206476
:100430006174652F74696D650A00202020202020DA
:1004400020202020205320202D2D2053746F702039
:10045000646174616C6F6767696E670A00202020B1
:1004600020202020202020207320202D2D20537498
:1004700061727420646174616C6F6767696E672074
:100480002877696C6C20617070656E6420746F20D1
:10049000616E79206578697374696E672064617430
:1004A000616C6F672E637376290A0020202020205C
:1004B0002020202020205220202D2D2044696167FB
:1004C0006E6F736520746865205254430A002020C3
:1004D0002020202020202020207020202D2D205082
:1004E00072696E7420636F6E666967757261746994
:1004F0006F6E20646174610A00202020202020207B
:10050000202020206C20202D2D204C697374206623
:10051000696C6573206F6E20746865205344206396
:100520006172640A0020202020202020202020202A
:100530006920202D2D20496E697469616C697A6586
:100540002074686520534420636172640A0020208F
:100550002020202020202020206820202D2D204415
:100560006973706C61792068656C700A00202020C6
:1005700020202020202020206720202D2D205365A2
:10058000742064657669636520636F6E666967755C
:10059000726174696F6E0A002020202020202020C4
:1005A0002020204520202D2D20456A65637420538E
:1005B0004420636172640A00202020202020202033
:1005C0002020206520202D2D20457869742073651A
:1005D0007269616C20696E746572666163650A0098
:1005E00020202020202020202020206420202D2DAD
:1005F000205669657720646174652F74696D650A9A
:100600000020202020202020202020206320202DBA
:100610002D20436C65616E20534420636172640A2F
:10062000003E3E204C6F676765723A204C697374D8
:10063000206F6620636F6D6D616E64733A0A003ED1
:100640003E204C6F676765723A204572726F722E5A
:1006500020497320746865205344204361726420EC
:10066000696E7365727465643F003E3E204C6F672F
:100670006765723A2053442052656164792E0047C1
:100680006F6F6462796521000A3E3E205254432018
:10069000446F63746F723A20000A3E3E2052544306
:1006A00020446F63746F723A204920646F6E277420
:1006B00020756E6465727374616E6420796F7572F3
:1006C00020696E7075742E2054727920736F6D6579
:1006D0007468696E672066726F6D20746865206C3F
:1006E0006973742E000A3E3E2052544320446F63C7
:1006F000746F723A2046696E69736865642120439D
:100700006865636B207468652072656769737465DA
:10071000727320746F206D616B6520737572652034
:100720007468657927726520636F72726563743AC5
:100730000A000A3E3E2052544320446F63746F7295
:100740003A20576861742076616C756520776F7503
:100750006C6420796F75206C696B6520746F2077ED
:10076000726974653F2028737065636966792069D2
:100770006E2068657861646563696D616C293A20F3
:100780003078000A3E3E2052544320446F63746F19
:10079000723A205768696368207265676973746587
:1007A0007220776F756C6420796F75206C696B654A
:1007B00020746F20616C7465723F20287272293A30
:1007C00020000A3E3E2052544320446F63746F72EF
:1007D0003A2049276C6C20777269746520776861CC
:1007E000746576657220796F752074656C6C206D08
:1007F0006520746F2C20736F20626520737572659D
:1008000020746F20646F75626C6520636865636B2C
:100810002E000A3E3E2052544320446F63746F7290
:100820003A204865726520617265207468652063AE
:100830006F6E74656E7473206F66207468652052E5
:100840005443205265676973746572732E20596F23
:10085000752077696C6C2070726F6261626C7920B0
:1008600077616E74206120636F7079206F662074E9
:1008700068652050434638353233204461746173D3
:100880006865657420746F20696E74657270726536
:10089000742074686573652E0A003E3E20525443EE
:1008A00020446F63746F723A2054696D65722072D0
:1008B0006573657421000A3E3E2052544320446F04
:1008C00063746F723A20526573657474696E672041
:1008D00074686520525443277320496E74657272A0
:1008E0007570742054696D65722E2E2E0A003E3E7E
:1008F0002052544320446F63746F723A20496E74DF
:1009000065727275707420726573657421000A3E99
:100910003E2052544320446F63746F723A205265F4
:1009200073657474696E6720746865205254432738
:100930007320496E746572727570742E2E2E0A00C3
:100940003E3E20557365723A202020002020202052
:1009500035202D2D2046696E6973680A00202020FD
:100960002034202D2D20416C746572206120726529
:100970006769737465720A002020202033202D2DB2
:1009800020446973706C6179207468652052544307
:1009900020526567697374657220636F6E74656E4B
:1009A00074730A002020202032202D2D20526573E0
:1009B000657420496E746572727570742054696D27
:1009C00065720A002020202031202D2D2052652D17
:1009D000456E61626C6520746865205254432049FD
:1009E0006E746572727570740A005768617420774E
:1009F000696C6C2069742062653F0A003E3E20529B
:100A0000544320446F63746F723A2049276D2074F9
:100A10007261696E656420746F2072756E2061204A
:100A2000636F75706C652070726F63656475726555
:100A300073206F6E20796F7572205254432E200000
:100A40003E3E2052544320446F63746F723A2048F4
:100A500069212049276D206865726520746F2068C0
:100A6000656C702066697820796F757220525443E6
:100A70002E0A000A3E3E204C6F676765723A204C92
:100A80006F6767696E6720737461727465642E00A6
:100A90003E3E204C6F676765723A20003E3E204C18
:100AA0006F676765723A2043616E6E6F74206C6F7A
:100AB0006720776974686F757420534420436172AE
:100AC000642E003E3E204C6F676765723A20416C91
:100AD0007265616479204C6F6767696E672E003EAE
:100AE0003E204C6F676765723A204C6F6767696E8E
:100AF000672073746F707065642E003E3E204C6FEB
:100B0000676765723A204E6F74206C6F6767696E15
:100B1000672E000A3E3E204C6F676765723A20449C
:100B200061746520616E642054696D65207265731F
:100B300065742E000A3E3E204C6F676765723A204E
:100B4000456E746572206E6577206D696E7574658B
:100B500020286D6D293A20000A3E3E204C6F6767C1
:100B600065723A20456E746572206E657720686FF5
:100B70007572202868682C2032342D686F757220B9
:100B8000636C6F636B293A20000A3E3E204C6F670E
:100B90006765723A20456E746572206E65772079BC
:100BA00065617220287979293A20000A3E3E204C5E
:100BB0006F676765723A20456E746572206E65775F
:100BC0002064617920286464293A20003E3E204C4C
:100BD0006F676765723A20456E746572206E65773F
:100BE000206D6F6E746820286D6D293A20003E3E9E
:100BF000204C6F676765723A205570646174696E46
:100C000067206461746520616E642074696D652E6F
:100C10002E2E0A003E3E204C6F676765723A2049CF
:100C20006E76616C6964206D6574657220636F6EA9
:100C300066696775726174696F6E2E2043616E6EAE
:100C40006F74207072696E74206D6F726520666CAF
:100C50006F7720646174612E205265736574206320
:100C60006F6E66696775726174696F6E20776974FB
:100C700068202767272E002047616C0A003E3E202F
:100C80004C6F676765723A20546F74616C20466CD4
:100C90006F772073696E6365206C6F6767696E6735
:100CA0002073746172743A202020003E3E204C6F05
:100CB000676765723A20546F74616C2050756C736D
:100CC00065732073696E6365206C6F6767696E6713
:100CD0002073746172743A20002047616C2F6D6933
:100CE0006E0A0A003E3E204C6F676765723A2041EB
:100CF00076657261676520466C6F773A2000204701
:100D0000616C0A003E3E204C6F676765723A205462
:100D10006F74616C20466C6F773A202020003E3E55
:100D2000204C6F676765723A20546F74616C205075
:100D3000756C7365733A20003E3E204C6F676765A3
:100D4000723A20446174612066726F6D206C617329
:100D5000742073616D706C653A003E3E204C6F6785
:100D60006765723A20556E6B6E6F776E20636F6D9C
:100D70006D616E642E205573652074686520636F05
:100D80006D6D616E642022682220666F7220612082
:100D90006C697374206F6620636F6D6D616E647330
:100DA0002E0A3E3E20557365723A202020000A3EEE
:100DB0003E20557365723A202020000A3E3E2055A1
:100DC0007365723A202020000A3E3E2055736572FA
:100DD0003A202020000A3E3E20557365723A2020BA
:100DE00020000A3E3E20557365723A202020003EC6
:100DF0003E204C6F676765723A2043616C6C696E88
:100E000067207468652052544320446F63746F7286
:100E10002E2E2E0A000A3E3E20557365723A20207F
:100E200020000A3E3E20557365723A202020000AB9
:100E30003E3E20557365723A202020000A3E3E2037
:100E4000557365723A202020000A3E3E2055736596
:100E5000723A202020000A3E3E20557365723A20E7
:100E60002020000A3E3E20557365723A2020200063
:100E70000A3E3E20557365723A202020000A3E3E0D
:100E800020446174612066696C65207772697474AE
:100E9000656E207375636365737366756C6C792E0C
:100EA0000A3E3E20557365723A202020000A3E3EDD
:100EB000204572726F722077726974696E67207450
:100EC0006F20534420636172642E20417474656DF9
:100ED0007074696E6720746F206372656174652039
:100EE00061206E65772066696C652E0A3E3E20554E
:100EF0007365723A202020000A3E3E2057686F61D9
:100F00002064756465732C206261642066696C6579
:100F100020706F696E746572210A3E3E20557365BC
:100F2000723A202020003E3E204C6F676765723A7F
:100F300020496E76616C696420646576696365201A
:100F4000636F6E66696775726174696F6E2E205289
:100F50006573657420636F6E666967757261746925
:100F60006F6E207769746820636F6D6D616E6420A9
:100F70002767270A007C3C3E5E2B3D3F2F5B5D3B95
:100F80002C2A225C00494E56414C494400352F38EA
:100F900022003122003E3E204C6F676765723A2086
:100FA0004D657465722053697A653A2020202020AF
:100FB000202020003E3E204C6F676765723A205328
:100FC000657175656E7469616C2046696C65202376
:100FD0003A20003E3E204C6F676765723A204461BC
:100FE00074616C6F6767657220494420233A202042
:100FF00020003E3E204C6F676765723A205369744B
:101000006520233A2020202020202020202020207E
:101010000054696D652C5265636F72642C50756C59
:101020007365730A00494E56414C494400352F38C8
:1010300022003122004D657465722053697A653A49
:101040002000446174616C6F6767657220494420B9
:10105000233A20005369746520233A2000000000E1
:1010600000230026002900040404040404040402EC
:101070000202020202030303030303010204081035
:101080002040800102040810200102040810200002
:101090000000080002010000030407000000000037
:1010A0000000003A20005265676973746572200081
:1010B0002042797465730A00204D420A00206B4279
:1010C0000A000A3E3E204C6F676765723A20456E03
:1010D00064206F662066696C6573003E3E204C6F2D
:1010E000676765723A2046696C6573206F6E20747D
:1010F00068697320534420436172640A0A4E616D2B
:1011000065202020200953697A650A2D2D2D2D2D6B
:101110002D2D2D092D2D2D2D2D0A003E3E204C6FFD
:10112000676765723A204C6F676765722072656108
:1011300064792E0A3E3E20557365723A20202000C5
:1011400000000000250028002B003E3E204C6F6769
:101150006765723A200000000000240027002A0082
:101160005C3011241FBECFEFD8E0DEBFCDBF11E051
:10117000A0E0B1E0EAE6F9E602C005900D92A83AD7
:10118000B107D9F725E0A8EAB1E001C01D92A93A5C
:10119000B207E1F718E0C1EBD8E004C02197FE01E7
:1011A0000E947234C03BD107C9F70E94DB260C9421
:1011B000B3340C940000DC015996ED91FC915A97E0
:1011C0003097B9F083899489A589B689428553857A
:1011D00064857585841B950BA60BB70B811520E8DC
:1011E0009207A105B10538F08FEF9FE7A0E0B0E0CE
:1011F000089580E090E00895CF93DF931F92CDB7DC
:10120000DEB76983DC01ED91FC910280F381E02D72
:1012100041E050E0BE016F5F7F4F09950F90DF9175
:10122000CF910895089580E090E008951F93CF93A3
:10123000DF93EC0180E2689FF00111249F012450AC
:101240003E4FD9011B969C91917129F0842F827495
:1012500011F080E058C0142F6A8B80912B0190917F
:101260002C01A0912D01B0912E018E879F87A88B14
:10127000B98BE450FE4F4489558960E070E0BA01B3
:10128000552744274F8B588F698F7A8F828D938D86
:10129000A0E0B0E0482B592B6A2B7B2B4F8B588F4B
:1012A000698F7A8FD9011B968C91887151F4848D46
:1012B000958DA68DB78D8B8B9C8BAD8BBE8B81E076
:1012C0000DC0803131F69E012D5E3F4F8B8D9C8D80
:1012D0000E949517882309F4BCCF84E08D83812F69
:1012E0008F708C831E821F82188619861A861B8631
:1012F0001C861D8616FF06C0CE01DF91CF911F917F
:101300000C94D01A81E0DF91CF911F910895CF9373
:10131000DF93EC01898D9A8D009739F481E090E09C
:101320009B838A8380E090E00BC0FC0113821282D1
:101330000E94FE17E98DFA8D22813381232B71F7EC
:10134000DF91CF910895CF93DF93EC018D818823B6
:10135000A1F18C8187FF2DC06E857F858889998951
:1013600041E00E942816882341F1EA8980E2E89F43
:10137000F0011124DF01A450BE4F1097F1F08D81D0
:10138000823050F44B895C896D897E895C964D93DF
:101390005D936D937C935F978F89988DA98DBA8D9E
:1013A000E450FE4F938F828FB58BA48B8C818F7707
:1013B0008C83DF91CF910C94ED1580E0DF91CF917C
:1013C0000895FC01818D928D009711F00C94A30972
:1013D00008958F929F92AF92BF92CF92DF92EF9239
:1013E000FF920F931F93CF93DF93EC018D818111B7
:1013F00002C080E077C00B891C892D893E890417C3
:10140000150726073707A8F36A017B01823029F404
:10141000CA86DB86EC86FD860DC0C114D104E104CA
:10142000F10451F41E821F82188619861A861B86C3
:101430001C861D8681E056C08A849B84AC84BD8452
:10144000EB8DFC8D258530E0275F3F4FB501A40172
:101450004150510961097109022E04C076956795C2
:10146000579547950A94D2F7D701C6010197A1096C
:10147000B10904C0B695A795979587952A95D2F797
:1014800084179507A607B70720F089288A288B2894
:1014900049F44F89588D698D7A8D4E835F836887B3
:1014A000798704C0841B950BA60BB70B4C015D011B
:1014B0008E010A5F1F4F81149104A104B10409F445
:1014C000A7CF4E815F816885798598018B8D9C8D32
:1014D0000E94111791E0891A9108A108B1088111A1
:1014E000EACF87CFDF91CF911F910F91FF90EF90BF
:1014F000DF90CF90BF90AF909F908F900895CF9343
:10150000DF93EC010E94A309882311F01D8281E082
:10151000DF91CF9108953F924F925F926F927F92A9
:101520008F929F92AF92BF92CF92DF92EF92FF92F3
:101530000F931F93CF93DF93CDB7DEB72C970FB6E2
:10154000F894DEBF0FBECDBF5C01DC015B968D90D1
:101550009C905C971696CD90DD90ED90FC9019973D
:10156000C114D104E104F10439F0BFEFCB1ADB0A56
:10157000EB0AFB0A312C07C0F401C080D180E28065
:10158000F38033243394F40181859285A385B48557
:101590009C01AD012F5F3F4F4F4F5F4F29873A8727
:1015A0004B875C87260137011D821E821F821886A9
:1015B000F40181859285A385B4852D813E814F817B
:1015C0005885281739074A075B0708F063C08985E3
:1015D0009A85AB85BC858C159D05AE05BF0550F47D
:1015E00082E0C82ED12CE12CF12C92E0492E512C16
:1015F000612C712C9E012F5F3F4FB701A601C401E2
:101600000E941117882309F445C089819A81AB8112
:10161000BC81892B8A2B8B2B41F0260137019FEF50
:10162000491A590A690A790A05C0C414D504E6049E
:10163000F70491F02D813E814F8158852F5F3F4FF8
:101640004F4F5F4F2D833E834F8358873FEFC31A21
:10165000D30AE30AF30AACCF0FEF1FEF2FEF3FE0FF
:10166000B301A201C4010E947116882399F0D5012B
:1016700016964D915D916D917C911997411551058B
:101680006105710549F093018201C4010E94711640
:10169000811102C080E02AC0D50116964D925D925C
:1016A0006D927C921997332051F0D301C2010196BB
:1016B000A11DB11DF40180839183A283B383F50141
:1016C0008789908DA18DB28D892B8A2B8B2B69F404
:1016D000D50157964D925D926D927C925A971496D1
:1016E0008C911497806814968C9381E02C960FB699
:1016F000F894DEBF0FBECDBFDF91CF911F910F9148
:10170000FF90EF90DF90CF90BF90AF909F908F9021
:101710007F906F905F904F903F9008958FB7F894AF
:101720008091AF018FBF089561E0FC0184810E9428
:1017300000258091AE0181111092AE0108958EBDF9
:1017400000000DB407FEFDCF8EB508958FEF0C9409
:101750009F0B0F931F93CF93DF93EB010E9485267E
:101760008B010E94A60B8F3F49F00E948526601BCB
:10177000710B6C177D07A8F380E001C081E0DF9159
:10178000CF911F910F910895CF93DF93EC018E813C
:10179000882389F08F8198859C012F5F3F4F388780
:1017A0002F838230924018F40E94A60BF3CFCE0113
:1017B0000E94940B1E82DF91CF9108958CBD9DBD38
:1017C0000895CF93DF93EC018091AE01811109C0A0
:1017D00081E08093AE0180913505909136050E949D
:1017E000DE0B60E08C81DF91CF910C940025CF92CD
:1017F000DF92FF920F931F93CF93DF9300D000D01F
:10180000CDB7DEB76C01F62E29833A834B835C8318
:101810000E94C40BC6010E94E10B6CE271E0C6019C
:101820000E94A90B8F2D80640E949F0B08E110E09D
:101830005C814B813A812981DA01C901002E04C003
:10184000B695A795979587950A94D2F729833A83F9
:101850004B835C830E949F0B0850110929813A81B8
:101860004B815C81083F8FEF180731F7FF2029F08B
:10187000E8E0FE1204C087E803C085E901C08FEFED
:101880000E949F0B10E00E94A60BF601828787FF43
:1018900004C01F3F11F01F5FF6CF0F900F900F9005
:1018A0000F90DF91CF911F910F91FF90DF90CF901C
:1018B0000895AF92BF92CF92DF92EF92FF920F9373
:1018C0001F93CF93DF93EC016901C801820F931F2F
:1018D0008130924008F070C08E81882371F0888139
:1018E0009981AA81BB81481759076A077B0729F4A8
:1018F0008F819885C816D906B0F5488359836A83C5
:101900007B838B85833039F089E0440F551F661F38
:10191000771F8A95D1F79A01AB0161E1CE010E9450
:10192000F70B882319F083E08D8346C00E9485263B
:101930005B010E94A60B8A878F3F49F40E9485268F
:101940006A197B096D327140A0F38FE003C08E3FAE
:1019500031F08DE08D83CE010E94940B2DC018864E
:101960001F8281E08E838F8198858C159D0540F4C0
:101970000E94A60B8F819885019698878F83F3CF5D
:101980006701E00EF11ECE14DF0431F00E94A60BB9
:10199000F60181936F01F7CF8F819885080F191F8A
:1019A00018870F838985882319F00115124048F0A4
:1019B000CE010E94C40B05C0CE010E94940B80E0B2
:1019C00001C081E0DF91CF911F910F91FF90EF90C7
:1019D000DF90CF90BF90AF9008952F923F924F929B
:1019E0005F926F927F928F929F92AF92BF92CF92AF
:1019F000DF92EF92FF920F931F93CF93DF93EC014F
:101A00006B014A018D81811103C08FEF9FEFD7C019
:101A10008C8180FFFACF4B885C886D887E884A85F0
:101A20005B856C857D85C401A0E0B0E093018201F7
:101A3000041B150B260B370B081719072A073B0742
:101A400018F44201841A950A54011E0126E0220E60
:101A5000311CA114B10409F47EC04A855B856C85F4
:101A60007D852A0181E05822ED818A019B0189E070
:101A700036952795179507958A95D1F78B8D9C8D6F
:101A8000E23061F4FC01828D938DA48DB58DBC0193
:101A9000CD01600F711F821F931F3FC0FC01748036
:101AA0007A94702241145104C9F4711017C0452B67
:101AB000462B472B49F48F89988DA98DBA8D8E833B
:101AC0009F83A887B9870AC04E815F816885798521
:101AD00091010E941117882309F497CFEB8DFC8D9B
:101AE0008E819F81A885B9850297A109B1090584D6
:101AF00004C0880F991FAA1FBB1F0A94D2F74685FE
:101B0000578560897189840F951FA61FB71FBC0177
:101B1000CD01670D711D811D911D20E032E024195A
:101B2000350935012A153B0508F439012C8126FDBC
:101B300004C06114F2E07F0681F400912B01109142
:101B40002C0120912D0130912E0160177107820721
:101B50009307B1F402C0C40132C040E00E942816CD
:101B6000882309F452CFF201E450FE4FD601CF0191
:101B7000860D971DE817F90789F021912D93FACF6B
:101B8000760183019201AB01BC018091FC0390912D
:101B9000FD030E94590C882309F437CFC60CD71CCB
:101BA0008A859B85AC85BD85860D971DA11DB11DC0
:101BB0008A879B87AC87BD87A618B7084ACFDF9175
:101BC000CF911F910F91FF90EF90DF90CF90BF903A
:101BD000AF909F908F907F906F905F904F903F90CD
:101BE0002F900895CF93DF931F92CDB7DEB741E0DA
:101BF00050E0BE016F5F7F4F0E94ED0C019719F41A
:101C0000898190E002C08FEF9FEF0F90DF91CF911D
:101C100008954F925F926F927F929F92AF92BF9280
:101C2000CF92DF92EF92FF920F931F93CF93DF93A8
:101C3000CDB7DEB72B970FB6F894DEBF0FBECDBF82
:101C40007C01DC011596AC90A1108AC1FE01319691
:101C50006F0190E28BE08E0F91938E13FDCFDA012E
:101C600030E087E09D91992339F19E3219F0E5E744
:101C7000FFE00AC08A3009F474C138E08AE0F2CF8C
:101C80003196491709F46DC144914111F9CF831779
:101C900008F467C14FED490F4E3508F062C141E0CD
:101CA000430FF601E30FF11D3FE9390F3A3108F414
:101CB00090529083342FD6CF8981803209F451C15C
:101CC000B22E8B01DB015B968D919C915C97F701A5
:101CD000948F838F16961D921D921D921C921997B8
:101CE000FB011286138614861586712CF8018285F5
:101CF0009385A485B5854389548965897689841738
:101D00009507A607B70708F061C025E0B695A79527
:101D1000979587952A95D1F7F82FFF706F2ED801E8
:101D200015968C91823008F41CC1C8010E94F20DF6
:101D300097FD17C1F80182859385A485B5854F96D7
:101D4000A11DB11D82879387A487B587F0E26F9E9E
:101D5000C0011124BC0164507E4F6115710509F466
:101D600000C1DB012C91222319F0253EC1F427C0CC
:101D700071100EC0F701628A40912B0150912C0125
:101D800060912D0170912E0146875787608B718B72
:101D9000FC01E450FE4F8081811113C015C04BE05F
:101DA00050E0C6010E948C34892B09F09FCF8B2D07
:101DB0008073803309F4D5C04B2D662DCCC07720BD
:101DC000C9F27724739492CF772473948B2D827108
:101DD000823109F0C6C07720D1F0D7011E966D91EF
:101DE0007D918D919C91519741E00E942816882306
:101DF00009F4B7C0F7016289F0E26F9FB0011124C6
:101E000064507E4F6115710509F079C0AAC0D801F0
:101E100015968C91823009F4A4C0C8010E948B0AE7
:101E2000882309F49EC0D8015B96ED91FC915C97E4
:101E300016964D905D906D907C901997B2E04B1A7C
:101E4000510861087108058404C0440C551C661CC7
:101E5000771C0A94D2F786859785A089B189480EA8
:101E6000591E6A1E7B1E9480E1E04E1A51086108DB
:101E70007108992009F10E94ED15882309F471C0B9
:101E8000ECEFF1E0119223E0EC3FF207D9F7D30138
:101E9000C201890D911DA11DB11D80932B0190934D
:101EA0002C01A0932D01B0932E018091B00181608F
:101EB0008093B0019A94DDCFD8015B96ED91FC91AF
:101EC0005C9780E092E0A0E0B0E0058404C0880F59
:101ED000991FAA1FBB1F0A94D2F7F801438954899E
:101EE00065897689840F951FA61FB71F838B948BF6
:101EF000A58BB68BD70152961C926CEF71E080E2F5
:101F0000FB0111928A95E9F78BE0F601DB01019064
:101F10000D928A95E1F781E298E2DB0151969C935C
:101F20008E93509720E038E01F963C932E931E9797
:101F300053969C938E93529759969C938E93589751
:101F400057963C932E9356970E94ED15882349F09F
:101F50004B2DF7016289C7010E941609A82E01C006
:101F6000A12C8A2D2B960FB6F894DEBF0FBECDBFE5
:101F7000DF91CF911F910F91FF90EF90DF90CF9065
:101F8000BF90AF909F907F906F905F904F9008951B
:101F9000CF93DF93CDB7DEB76D970FB6F894DEBF62
:101FA0000FBECDBF4423A9F1AB01BC011C821B8233
:101FB00081E891E09A8389831E8222E0CE01019616
:101FC0000E94090E811102C090E01EC0CE01019650
:101FD0000E94D01A8823C1F36F85788989899A89EC
:101FE00041E00E942816882379F3EB8980E2E89F7C
:101FF000F0011124E450FE4F309731F385EE8083D9
:102000001E820E94ED15982F81E0911103C080E09F
:1020100001C081E06D960FB6F894DEBF0FBECDBF54
:10202000DF91CF9108951F93CF93DF93CDB7DEB7A4
:102030006D970FB6F894DEBF0FBECDBFAB011C820B
:102040001B8221E831E03A8329831E8221E0BC0112
:10205000CE0101960E94090E11E0811102C010E02C
:1020600004C0CE0101960E947F0A812F6D960FB6A3
:10207000F894DEBF0FBECDBFDF91CF911F910895C1
:10208000FC01818D928D009711F00C94F20D8FEF71
:102090009FEF08950F931F93CF93DF93FC01818DE2
:1020A000928D0097B9F0EF010E94F20D8C010F3F65
:1020B0008FEF180791F0898D9A8DFC014285538529
:1020C0006485758541505109610971090E94E909CA
:1020D000C80105C080E090E002C08FEF9FEFDF9164
:1020E000CF911F910F910895EF92FF920F931F933D
:1020F000CF93DF93EC01790141155105610571051D
:1021000011F482E13CC08B85833039F089E0440FC3
:10211000551F661F771F8A95D1F79A01AB0168E1B9
:10212000CE010E94F70B882311F084E028C08EEFC7
:102130000E949F0B87018EEFF81AF80181918F01A1
:102140000E949F0B0E151F05C1F78FEF0E949F0B7A
:102150008FEF0E949F0B0E94A60B8A878F7185309C
:1021600031F081E18D83CE010E94940B09C068E5B6
:1021700072E0CE010E94A90B811107C085E18D8319
:10218000CE010E94940B80E013C020E030E0A90152
:102190006DE0CE010E94F70B811104C00E94A60BD6
:1021A000882311F084E1EBCFCE010E94940B81E0F3
:1021B000DF91CF911F910F91FF90EF900895FC0157
:1021C000DB0112968D919C9113979383828381E812
:1021D00091E09183808314968C9114978483159653
:1021E0008C911597858316964D915D916D917C919B
:1021F000199746835783608771871A964D915D9131
:102200006D917C911D9742875387648775871E96D1
:102210004D915D916D917C91519746875787608B69
:10222000718B52968C915297828B53964D915D9102
:102230006D917C915697438B548B658B768B57961B
:102240004D915D916D917C915A97478B508F618F25
:10225000728F5B968D919C915C97948F838F08957C
:10226000CF93DF93EC01898D9A8D009741F00E9406
:102270007F0A898D9A8D0E9449311A8E198EDF91BD
:10228000CF910895FC011382128288EE93E0A0E0C2
:10229000B0E084839583A683B78389E391E091833B
:1022A0008083128E118E14860895EF92FF920F9301
:1022B0001F93CF93DF93EC017B018A011B821A826B
:1022C00088EE93E0A0E0B0E08C839D83AE83BF8373
:1022D00089E391E0998388838DE190E00E94B43096
:1022E0009A8F898F009779F02DE1F701DC01019039
:1022F0000D922A95E1F74CE050E0B801CE010C9622
:102300000E94A434188EDF91CF911F910F91FF90FE
:10231000EF900895E4E6F0E0808184608083089582
:10232000E4E6F0E080818B7F808308950895CF926A
:10233000DF92EF92FF920F931F93CF93DF936C0185
:102340007A018B01C0E0D0E0CE15DF0589F0D8011D
:102350006D918D01D601ED91FC910190F081E02D00
:10236000C6010995892B11F47E0102C02196ECCF9C
:10237000C701DF91CF911F910F91FF90EF90DF90F8
:10238000CF900895FC01538D448D252F30E0842F8C
:1023900090E0821B930B541710F0CF96089501978D
:1023A0000895FC01918D828D981761F0828DDF0177
:1023B000A80FB11D5D968C91928D9F5F9F73928F38
:1023C00090E008958FEF9FEF0895FC01918D828D2D
:1023D000981731F0828DE80FF11D858D90E00895FA
:1023E0008FEF9FEF0895FC01918D228D892F90E052
:1023F000805C9F4F821B91098F73992708958CE809
:1024000094E00E94F31121E0892B09F420E0822F4F
:102410000895FC01848DDF01A80FB11DA35ABF4FA1
:102420002C91848D90E001968F739927848FA689D3
:10243000B7892C93A089B1898C9180648C93938DFA
:10244000848D981306C00288F389E02D80818F7DEA
:1024500080830895EF92FF920F931F93CF93DF93A2
:10246000EC0181E0888F9B8D8C8D981305C0E889E5
:10247000F989808185FD24C0F62E0B8D10E00F5F59
:102480001F4F0F731127E02E8C8DE8120CC00FB672
:1024900007FCFACFE889F989808185FFF5CFCE0165
:1024A0000E940912F1CF8B8DFE01E80FF11DE35A56
:1024B000FF4FF0820B8FEA89FB898081806207C021
:1024C000EE89FF896083E889F9898081806480834F
:1024D00081E090E0DF91CF911F910F91FF90EF90FD
:1024E0000895CF93DF93EC01888D8823C9F0EA89A2
:1024F000FB89808185FD05C0A889B9898C9186FDFD
:102500000FC00FB607FCF5CF808185FFF2CFA889F9
:10251000B9898C9185FFEDCFCE010E940912E7CFDA
:10252000DF91CF91089580E090E0892B29F00E94FF
:10253000FF1181110C940000089585ED8093BC007B
:102540008091BC0084FDFCCF10928B0408954091D3
:10255000D701262F30E0240F311D21323105DCF464
:1025600020918B042430C9F4FC0180E090E08617B0
:1025700058F43091D7012191DC01AB54BE4FA30F29
:10258000B11D2C930196F3CF8091D701680F609312
:10259000D70180E0089581E0089582E008950895CC
:1025A000E091A9018091A801E81730F4F0E0EB5B1D
:1025B000FB4F808190E008958FEF9FEF08959091F9
:1025C000A9018091A801981750F4E92FF0E0EB5B86
:1025D000FB4F208130E09F5F9093A90102C02FEF55
:1025E0003FEFC90108958091A80190E02091A901D1
:1025F000821B91090895CF92DF92EF92FF920F9381
:102600001F93CF93DF937C01262F972F8A01809110
:102610002104882391F0C62FD72F6E01C40ED51E3A
:10262000CC15DD0571F06991D701ED91FC91019018
:10263000F081E02DC7010995F3CF642F822F0E940E
:10264000A712C801DF91CF911F910F91FF90EF90DA
:10265000DF90CF900895CF93DF931F92CDB7DEB771
:102660006983209121042223D1F020914404203257
:1026700040F021E030E0FC013383228380E090E0F1
:1026800015C080912204E82FF0E0ED5DFB4F9981A9
:1026900090838F5F809322048093440405C061E09F
:1026A000CE0101960E94A71281E090E00F90DF9189
:1026B000CF9108950E9487341F920F920FB60F9208
:1026C00011242F933F934F935F936F937F938F9337
:1026D0009F93AF93BF93EF93FF93E0910201F0912B
:1026E00003010995FF91EF91BF91AF919F918F9158
:1026F0007F916F915F914F913F912F910F900FBEFE
:102700000F901F9018951F920F920FB60F921124E1
:102710002F933F934F935F936F937F938F939F93E9
:10272000AF93BF93EF93FF93E0910001F09101010C
:102730000995FF91EF91BF91AF919F918F917F91FB
:102740006F915F914F913F912F910F900FBE0F901E
:102750001F901895DC01ED91FC910190F081E02D26
:102760000994EF92FF920F931F93CF93DF938C0105
:102770007B01C0E0D0E0F701EC0FFD1F6491662300
:1027800061F0D801ED91FC910190F081E02DC8013C
:102790000995892B11F02196EECFCE01DF91CF91D3
:1027A0001F910F91FF90EF9008956115710579F0D9
:1027B000FB0101900020E9F73197AF01461B570B51
:1027C000DC01ED91FC910280F381E02D099480E021
:1027D00090E008954F925F926F927F92EF92FF92F6
:1027E0000F931F93CF93DF93CDB7DEB7A1970FB6AB
:1027F000F894DEBF0FBECDBF7C01FA01CB0119A258
:10280000223008F42AE08E010F5D1F4F422E512C1A
:10281000612C712CBF01A30192010E943134F90196
:10282000CA01015011096A3014F4605D01C0695C8D
:10283000D8016C93232B242B252B61F7B801C701FA
:102840000E94D513A1960FB6F894DEBF0FBECDBF80
:10285000DF91CF911F910F91FF90EF907F906F903C
:102860005F904F90089565E971E00C94D5130F9334
:102870001F93CF93DF93EC010E94B1138C01CE0123
:102880000E943314800F911FDF91CF911F910F9100
:1028900008951F920F920FB60F9211242F933F931A
:1028A0004F935F936F937F938F939F93AF93BF9358
:1028B000EF93FF938CE894E00E940912FF91EF914F
:1028C000BF91AF919F918F917F916F915F914F9148
:1028D0003F912F910F900FBE0F901F9018951F9250
:1028E0000F920FB60F9211242F938F939F93EF9314
:1028F000FF93E0919C04F0919D048081E091A204FB
:10290000F091A30482FD12C090818091A5048F5F95
:102910008F732091A604821751F0E091A504F0E096
:10292000E457FB4F958F8093A50401C08081FF91F0
:10293000EF919F918F912F910F900FBE0F901F904D
:1029400018951F920F920FB60F9211242F933F9359
:102950004F935F936F937F938F939F93AF93BF93A7
:10296000EF93FF938091B900887F803609F49CC073
:1029700068F5883209F45BC090F4803109F454C0E2
:1029800038F4882309F4F6C0883009F44DC0F6C045
:10299000883109F44CC0803209F45DC0EFC0803446
:1029A00009F468C048F4803309F455C0883309F04D
:1029B000E5C080938904D8C0803509F44FC08835BC
:1029C00009F45DC0883409F0D9C0D6C0883909F44B
:1029D000C7C0A8F4883709F467C038F4883609F40A
:1029E00063C0803709F460C0C9C0883809F4B8C032
:1029F000803909F45FC0803809F0C0C05BC0803BFB
:102A000009F486C038F4803A09F466C0883A09F4BB
:102A10007FC0B4C0803C09F4A7C0883C09F4A4C0BE
:102A2000883B09F48AC0AAC08091860410C09091A6
:102A3000880480918704981770F5E091880481E0FC
:102A40008E0F80938804F0E0EB59FB4F80818093D8
:102A5000BB0085EC86C0809389048EC0E091880419
:102A600081E08E0F809388048091BB00F0E0EB59E9
:102A7000FB4F808390918804809187046EC0E09121
:102A8000880481E08E0F809388048091BB00F0E081
:102A9000EB59FB4F808380918A0481116DC081E0E6
:102AA0008093850484EA61C083E080938B04109254
:102AB000FB01CFCF8091FB01803208F051C0E09143
:102AC000FB0181E08E0F8093FB018091BB00F0E061
:102AD000E552FE4F8083BDCF85EC8093BC00109201
:102AE0008B048091FB01803230F4E091FB01F0E037
:102AF000E552FE4F10826091FB0170E0E091D90138
:102B0000F091DA018BED91E009951092FB0136C04E
:102B100084E080938B041092D8011092D701E09149
:102B2000D501F091D60109958091D701811105C099
:102B300081E08093D7011092B501E091D80181E046
:102B40008E0F8093D801F0E0EB54FE4F808180938C
:102B5000BB009091D8018091D701981708F479CFE4
:102B600085E88093BC000AC085EC8093BC0010927D
:102B70008B0404C0109289040E949D12FF91EF9172
:102B8000BF91AF919F918F917F916F915F914F9185
:102B90003F912F910F900FBE0F901F90189510929C
:102BA0008B0481E080938A041092850461E082E1C5
:102BB0000E94002561E083E10E940025E9EBF0E03E
:102BC00080818E7F808380818D7F808380E280936F
:102BD000B80085E48093BC0008958091B0018823FB
:102BE000A9F140912B0150912C0160912D01709120
:102BF0002E012CEF31E08091FC039091FD030E94A7
:102C00007410811102C080E008954091B10150918B
:102C1000B2016091B3017091B40141155105610594
:102C2000710591F02CEF31E08091FC039091FD0350
:102C30000E947410882339F31092B1011092B201EE
:102C40001092B3011092B4011092B00181E0089586
:102C50008F929F92AF92BF92EF92FF920F931F932A
:102C6000CF934B015C01C42F80912B0190912C01DB
:102C7000A0912D01B0912E0188159905AA05BB05DB
:102C800001F10E94ED15811102C080E020C08CEF9F
:102C9000E82E81E0F82E00E012E020E030E0B501FF
:102CA000A4018091FC039091FD030E94590C88239C
:102CB00061F380922B0190922C01A0922D01B09291
:102CC0002E018091B001C82BC093B00181E0CF915B
:102CD0001F910F91FF90EF90BF90AF909F908F90BA
:102CE00008954F925F926F927F928F929F92AF92D0
:102CF000BF92CF92DF92EF92FF920F931F93CF93E9
:102D0000DF93EC016A017B01280139014230510552
:102D10006105710510F480E073C089859A85AB85E3
:102D2000BC850196A11DB11D84179507A607B7079D
:102D300090F38B889C88AD88BE888F89803129F478
:102D4000BB27AF2D9E2D8D2D09C0DB01CA0147E0A9
:102D5000B695A795979587954A95D1F7880E991EB0
:102D6000AA1EBB1E80912B0190912C01A0912D01D8
:102D7000B0912E0188169906AA06BB0679F48F89B0
:102D80008031A1F4DD24EE24FF24C601880F991FB1
:102D9000FC01E450FE4F5182408219C040E0C50161
:102DA000B4010E9428168111EACFB5CFE894C7F884
:102DB000DD24EE24FF24C601880F991F880F991F78
:102DC000FC01E450FE4F4082518262827382809106
:102DD000B00181608093B0018A89823080F08D815A
:102DE0009E81AF81B885880E991EAA1EBB1E809257
:102DF000B1019092B201A092B301B092B40181E00E
:102E0000DF91CF911F910F91FF90EF90DF90CF90C6
:102E1000BF90AF909F908F907F906F905F904F90FA
:102E200008958F929F92AF92BF92CF92DF92EF92CE
:102E3000FF920F931F93CF93DF93FC0181859285BF
:102E4000A385B4850196A11DB11D84179507A6071A
:102E5000B70710F480E05CC083899489A589B6899E
:102E6000C789C03129F4852E962EA72EBB2409C010
:102E70004A015B01C7E0B694A79497948794CA95DA
:102E8000D1F7E9016A017B018F01BC01CD01680D19
:102E9000791D8A1D9B1D80902B0190902C01A09084
:102EA0002D01B0902E01681579058A059B0599F4CE
:102EB000F80187898031A9F4B701A6015527662753
:102EC0007727440F551FFA01E450FE4F808191810E
:102ED000A0E0B0E018C040E00E9428168111E8CFC1
:102EE000B9CFB701A6014F77552766277727440F3B
:102EF000551F440F551FFA01E450FE4F8081918108
:102F0000A281B381BF7088839983AA83BB8381E048
:102F1000DF91CF911F910F91FF90EF90DF90CF90B5
:102F2000BF90AF909F908F9008954F925F926F9255
:102F30007F92AF92BF92CF92DF92EF92FF920F9368
:102F40001F93CF93DF9300D000D0CDB7DEB78C01B5
:102F500049835A836B837C835901C12CD12C760120
:102F6000412C82E0582E612C712C49815A816B8151
:102F70007C819E012F5F3F4FC8010E94111788235B
:102F800051F1D301C201F801058404C0880F991FD3
:102F9000AA1FBB1F0A94D2F7C80ED91EEA1EFB1E39
:102FA00049815A816B817C818789803129F088EF42
:102FB0009FEFAFEFBFE004C088EF9FEFA0E0B0E06D
:102FC000481759076A077B0780F2F501C082D18252
:102FD000E282F38281E00F900F900F900F90DF91CB
:102FE000CF911F910F91FF90EF90DF90CF90BF9006
:102FF000AF907F906F905F904F9008952F923F9287
:103000004F925F926F927F928F929F92AF92BF92F8
:10301000CF92DF92EF92FF920F931F93CF93DF93A4
:1030200000D000D0CDB7DEB78C015B011A01DC0106
:1030300015968C9115978130C9F414968C9181FF67
:1030400015C082FF1BC0F8014389548965897689C0
:1030500082859385A485B58584179507A607B7074C
:1030600069F0C8010E94E909811108C081E090E07F
:10307000F8019383828380E090E039C1610183C0CD
:10308000D8015B968D919C915C97FC012481215025
:103090002A013B0139E076946794579447943A9516
:1030A000D1F7722E74207A01F1E0FF22772009F423
:1030B00076C080E092E08E199F0946018C159D052F
:1030C00008F44C01D8015B962D913C915C971696C3
:1030D0008D919D910D90BC91A02D0297A109B109F0
:1030E000F901058404C0880F991FAA1FBB1F0A9409
:1030F000D2F74685578560897189840F951FA61F71
:10310000B71F9C01AD01270D311D411D511D290126
:103110003A01811432E0930609F088C080912B01B6
:1031200090912C01A0912D01B0912E01841595054F
:10313000A605B70559F48FEF9FEFDC0180932B01B3
:1031400090932C01A0932D01B0932E019501B30112
:10315000A2018091FC039091FD030E9474108823CA
:1031600009F484CF9EEFB91AC818D908F8018285EE
:103170009385A485B585880D991DA11DB11D8287F4
:103180009387A487B587D8011A964D915D916D916B
:103190007C911D97C114D10409F072CF87C0E1144E
:1031A000F10409F086CF16964D915D916D917C9159
:1031B0001997411551056105710559F457968D917F
:1031C0009D910D90BC91A02D0097A105B10541F5F1
:1031D00021C09E012F5F3F4F0E941117882309F4E1
:1031E0004BCF89819A81AB81BC81F801238D348DCD
:1031F000F9012789203129F048EF5FEF6FEF7FE079
:1032000004C048EF5FEF60E070E084179507A60701
:10321000B70730F0C8010E948B0A81114ACF26CF30
:10322000F80186839783A087B18743CFE114F10427
:1032300029F5D8011A964D915D916D917C911D975C
:1032400053968D919D910D90BC91A02D48175907D3
:103250006A077B0798F00E94ED15882309F406CFD2
:1032600040922B0150922C0160922D0170922E0100
:103270008091B00181608093B00108C041E0C3013A
:10328000B2010E942816882309F4F0CED501F70177
:10329000E450FE4FCF01880D991DE817F90719F08A
:1032A0002D912193FACFA80CB91C5ECF53968D9126
:1032B0009D910D90BC91A02D84179507A607B70787
:1032C00040F4F801438B548B658B768B8481806846
:1032D0008483D80114968C9183FD02C0C10107C07C
:1032E000C8010E94A309882309F4C0CEF7CF0F902C
:1032F0000F900F900F90DF91CF911F910F91FF9042
:10330000EF90DF90CF90BF90AF909F908F907F9085
:103310006F905F904F903F902F900895CF93DF93E1
:103320001F92CDB7DEB7698341E050E0BE016F5F09
:103330007F4F0E94FE170F90DF91CF910895CF939A
:10334000DF93E4E9F0E18491E0E8F0E1D491ECE688
:10335000F0E1C491CC2391F081110E94D724EC2F8D
:10336000F0E0EE0FFF1FE35AFF4EA591B491EC91F0
:10337000ED2381E090E021F480E002C080E090E065
:10338000DF91CF91089590918B049111FCCF91E042
:1033900090938B0490938A042FEF209389041092CA
:1033A0008804260F209387049093860490918604C6
:1033B000880F892B8093860480918504813061F485
:1033C00010928504809186048093BB008091BC009C
:1033D00083FDF8CF85EC01C085EE8093BC00809121
:1033E0008B048130E1F380918804861710F460919A
:1033F0008804A5E6B4E025E434E0F9018E2F821BB1
:10340000861718F48D918193F9CF862F0895209116
:10341000440490914304213208F04AC080918B0407
:103420008111FCCF32E030938B0431E030938A0479
:103430003FEF309389041092880420938704A3E21D
:10344000B4E045E654E0FA013E2F341B321718F47D
:103450003D913193F9CF1092860420918604990F03
:10346000922B9093860490918504913061F4109290
:103470008504909186049093BB009091BC0093FDCD
:10348000F8CF95EC01C095EE9093BC0090918B0421
:103490009230E1F3909189049F3F79F08091890403
:1034A000803241F080918904803331F084E005C09E
:1034B00081E003C082E001C083E0109222041092F8
:1034C0004404109221040895CF93DF9340E061E01B
:1034D00083E00E94C721982F9695969596959E70A9
:1034E000292F220F220F920F8F70890FCBE1D4E08A
:1034F000888340E061E084E00E94C721982F969580
:10350000969596959E70292F220F220F920F8F70FD
:10351000890F898340E061E085E00E94C721982FF0
:103520009695969596959670292F220F220F920FB9
:103530008F70890F8A8340E061E086E00E94C72196
:10354000982F9695969596959670292F220F220F73
:10355000920F8F70890F8B8340E061E088E00E94BA
:10356000C72184FB992790F9990F292F220F220F49
:10357000920F8F70890F8C8340E061E089E00E9498
:10358000C721982F9695969596959E71292F220F73
:10359000220F920F8F70890F8D83DF91CF91089545
:1035A0008F929F92AF92BF92CF92DF92EF92FF9253
:1035B0000F931F93CF93DF9300D000D0CDB7DEB72A
:1035C000FC018581813079F5948191FF2CC043897C
:1035D000548965897689452B462B472B09F45CC0B5
:1035E0007F0140E050E0BA01CF010E94E909882341
:1035F000D1F0F7018788908CA18CB28CC38CD48CCD
:1036000082E090E0A0E0B0E0F60180839183A283A5
:10361000B3839E012F5F3F4FB501A401C6010E94F5
:103620001117811102C080E037C000E010E098015E
:10363000B501A401C6010E9471168823A1F38980F7
:103640009A80AB80BC80F6018789803129F088EFB1
:103650009FEFAFEFBFE004C088EF9FEFA0E0B0E0C6
:1036600088169906AA06BB06A0F2F701178A108EE3
:10367000118E128E138A148A158A168A84818068A4
:103680008483C7010E94A309882369F240E050E0C7
:10369000BA01C7010E94E9090F900F900F900F9097
:1036A000DF91CF911F910F91FF90EF90DF90CF901E
:1036B000BF90AF909F908F900895CF93DF93FC01C0
:1036C0002581222311F080E049C0EC0180915A0548
:1036D0008031C1F482E08583178A108E118E128E9C
:1036E00080915B0590915C05A0E0B0E025E0880F3B
:1036F000991FAA1FBB1F2A95D1F7838B948BA58B8B
:10370000B68B19C08032F9F683E0858340915D0560
:1037100050915E0560915F0570916005478B508FF9
:10372000618F728F9F012D5E3F4F83E495E00E9471
:103730009517882341F283E495E09C8F8B8F81E07D
:103740008C831E821F82188619861A861B861C8609
:103750001D861E861F86188A198A1A8ADF91CF91C4
:1037600008952F923F924F925F926F927F928F9225
:103770009F92AF92BF92CF92DF92EF92FF920F9300
:103780001F93CF93DF93CDB7DEB7C756D1090FB6DE
:10379000F894DEBF0FBECDBF3C015B01A6964FAFD4
:1037A000A69719A218A281E891E09F8F8E8F1BA285
:1037B0001C821B829A8389831E824E018EE1880EB1
:1037C000911CC4010E945D1B7501FE0131966F01C1
:1037D00024011F016FE270E0C7010E949934009735
:1037E000F1F1F70120812F3221F4FFEFEF1AFF0AE8
:1037F000F1CF8E198D3008F08CE0082F10E0A80171
:10380000B701CE01885A9F4F0E94A434E8E5F0E04A
:10381000EC0FFD1FE00FF11F1082C6010E947F0A0E
:1038200021E0AE01485A5F4FB201C6010E94090E65
:1038300081110AC01EAE1DAE81E891E09CAF8BAF36
:1038400021961FAE219717C0E00EF11EC2010E9403
:103850007F0A942D852D2601C92ED82EBBCFC701F6
:103860008A199B09A8969FAF8EAFA897B201CE0187
:10387000CB960E94DF10A896EEADFFADA897AE0ED6
:10388000BF1EF5018081811109C0BE01655C7F4FBB
:10389000C1010E94DF1048E951E032C019A218A20C
:1038A00081E891E09F8F8E8F1BA221968FAD21978B
:1038B000811104C0C3010E94421126C0A6962FADFB
:1038C000A697A501BE01655C7F4FC4010E94090E49
:1038D000882381F3CE01CB960E947F0AA6968FADF6
:1038E000A6978670863039F449A95AA96BA97CA994
:1038F000C4010E94E909B401C1010E94DF10A501C1
:10390000B101C3010E945511C301C959DF4F0FB660
:10391000F894DEBF0FBECDBFDF91CF911F910F9105
:10392000FF90EF90DF90CF90BF90AF909F908F90DF
:103930007F906F905F904F903F902F900895CF931E
:10394000DF93CDB7DEB7E6970FB6F894DEBF0FBEB4
:10395000CDBF0E949011CE014C960E94421147E1CA
:103960006DE074E0CE0101960E94B11BBE016F5F55
:103970007F4FCE014C960E94042264E570E1CE0197
:103980004C960E94B11380E00E940621682FCE0160
:103990004C960E94FC0881E00E940621682FCE010F
:1039A0004C960E94FC0882E00E940621682FCE01FE
:1039B0004C960E94FC08CE014C960E94331462E49F
:1039C00070E1CE014C960E94B11384E00E94062162
:1039D000682FCE014C960E94FC0885E00E940621CB
:1039E000682FCE014C960E94FC0886E00E940621BA
:1039F000682FCE014C960E94FC08CE014C960E9486
:103A0000331465E370E1CE014C960E94B1138091AE
:103A10000B04813329F0853331F46DE270E105C088
:103A200062E370E102C065E270E1CE014C960E9453
:103A3000371461E170E1CE014C960E94B113CE01C2
:103A40004C960E9430110E948A11E6960FB6F894A7
:103A5000DEBF0FBECDBFDF91CF910895CF93DF932F
:103A600080E00E940621CEEFD3E08F8781E00E94A4
:103A70000621888B82E00E940621898B8FE58A8B44
:103A800087E00E9406218B8B88E00E9406218C8BA8
:103A900089E00E9406218D8B8AE00E9406218E8B90
:103AA0008EE28F8B83E6888F83E7898F86E78A8F04
:103AB0001B8EDF91CF9108950F931F93CF93DF93C8
:103AC000EC01462F50E060E070E02AE00E94EA132B
:103AD0008C01CE010E943314800F911FDF91CF9192
:103AE0001F910F91089562EF7FE08CE894E00E94AF
:103AF000B11380E00E940621682F8CE894E00E94B8
:103B00002A1281E00E940621682F8CE894E00E942E
:103B10002A1282E00E940621682F8CE894E00E941D
:103B20002A128CE894E00E94331463ED7FE08CE865
:103B300094E00E94B11384E00E940621682F8CE873
:103B400094E00E942A1285E00E940621682F8CE8EA
:103B500094E00E942A1286E00E940621682F8CE8D9
:103B600094E00E942A128CE894E00E94331464EBE3
:103B70007FE08CE894E00E94B11387E00E94062168
:103B8000682F8CE894E00E942A1288E00E940621A7
:103B9000682F8CE894E00E942A1289E00E94062196
:103BA000682F8CE894E00E942A128AE00E94062185
:103BB000682F8CE894E00E942A128CE894E00E941E
:103BC000331465E97FE08CE894E00E94B1138091A2
:103BD0000B04813329F0853331F46DE87FE005C0B3
:103BE00062E97FE002C065E87FE08CE894E00C9435
:103BF00037144F925F926F927F928F929F92AF9203
:103C0000BF92CF92DF92EF92FF926B017C01B42EB4
:103C10009B01AC010E941834882319F06AE971E015
:103C200027C026013701E89477F82FEF3FEF4FE7E1
:103C30005FE7C301B2010E94183481110DC02FEF5C
:103C40003FEF4FE75FE7C301B2010E944E32181603
:103C50001CF46EE971E00CC02FEF3FEF4FE75FE41B
:103C6000C701B6010E94A633181694F462EA71E007
:103C70008CE894E0FF90EF90DF90CF90BF90AF90F2
:103C80009F908F907F906F905F904F900C94D51382
:103C90002FEF3FEF4FE75FECC701B6010E944E32B6
:103CA00087FDE4CF20E030E0A901C701B6010E9402
:103CB0004E3287FF0BC06DE28CE894E00E94AA139D
:103CC0004C01F7FAF094F7F8F09402C0812C912C93
:103CD000A12C60E070E080E09FE3AB1441F020E0B5
:103CE00030E040E251E40E945332A394F6CF9B01AE
:103CF000AC01C701B6010E94E2312B013C010E94D8
:103D0000C5326B017C010E94F4329B01AC01C301FE
:103D1000B2010E94E1312B013C012AE0B701A6016A
:103D20008CE894E00E94EA137C01E80CF91CBB20AB
:103D300039F06EE28CE894E00E94AA13E80EF91EB6
:103D4000DB2CDD2031F120E030E040E251E4C30122
:103D5000B2010E94AB332B013C010E94C5324B01E2
:103D6000A12CB12C2AE0B501A4018CE894E00E94BA
:103D7000EA13E80EF91EC501B4010E94F4329B015A
:103D8000AC01C301B2010E94E1312B013C01DA9484
:103D9000D8CFC701FF90EF90DF90CF90BF90AF904A
:103DA0009F908F907F906F905F904F9008958F922B
:103DB0009F92AF92BF92CF92DF92EF92FF92CF93FA
:103DC000DF93C82F87E395E09093FD038093FC0376
:103DD000CC2369F1C53010F080E00DC140E060E017
:103DE00070E0CB010E9428168823B1F320E1C29F26
:103DF000C001112484519E4FFC01E254FE4F2081EA
:103E00002F7751F73C96408151816281738144360E
:103E100051056105710500F33497C080D180E280BF
:103E2000F380C114D104E104F10421F4D5CFC12CF5
:103E3000D12C760140E0C701B6010E9428168823E4
:103E400059F280910702909108028115924021F663
:103E5000A0910C02AA2309F4BFCF60910A027091CD
:103E60000B026115710509F4B7CF209109022223D5
:103E700009F4B2CFA09355052093470580E030E0C8
:103E8000E1E0F0E0C82FAF01082E02C0440F551F3B
:103E90000A94E2F72417350741F0982F8F5F983086
:103EA00089F789E08093500597CF80935005209142
:103EB0001202309113022115310519F040E050E053
:103EC00008C020912002309121024091220250919D
:103ED0002302209348053093490540934A055093A7
:103EE0004B0546015701860E971EA11CB11C8092FE
:103EF000560590925705A0925805B0925905E09149
:103F00000D02F0910E02F0935C05E0935B05B0E0CA
:103F10000E945334860E971EA81EB91E80925D051E
:103F200090925E05A0925F05B092600585E0EE0F6D
:103F3000FF1F8A95E1F7E150FE4FEF2FFF27E6952F
:103F40008E0E9F1EA11CB11C8092510590925205AD
:103F5000A0925305B092540520910F0230911002A7
:103F60002115310521F0A90160E070E008C0409101
:103F70001C0250911D0260911E0270911F02D70118
:103F8000C60188199909AA09BB09840F951FA61FA4
:103F9000B71F04C0B695A79597958795CA95D2F790
:103FA00080934C0590934D05A0934E05B0934F051B
:103FB000853F2FE09207A105B10510F48CE018C0F1
:103FC000853F9F4FA105B10510F480E111C080919C
:103FD000280290912902A0912A02B0912B0280938D
:103FE0005D0590935E05A0935F05B093600580E248
:103FF00080935A0581E0DF91CF91FF90EF90DF90A1
:10400000CF90BF90AF909F908F90089581E0809364
:104010000704089581E080930A040895E4E6F0E03F
:1040200080818D7F80838FE19EE40197F1F700C04E
:104030000000ECE8F4E0A089B18982E08C93A485CB
:10404000B5851C92A685B78587E68C93108EA489CA
:10405000B58986E08C93A289B3898C9180618C9319
:10406000A289B3898C9188608C93A289B3898C9141
:1040700080688C930288F389E02D80818F7D808316
:104080008FE19EE40197F1F700C000006BE171E160
:104090008CE894E00C94B113E4E6F0E08081806851
:1040A00080830895E4E6F0E080818F77808382E06A
:1040B0008A95F1F700C01092A9011092A801109200
:1040C0002204109244040E94CF1582E08A95F1F7F1
:1040D00000C00895EF92FF920F931F93CF93DF9349
:1040E000082FE92E142F81E0809321048EE1809324
:1040F0004304109222041092440489E295E00E9445
:104100002B130E94071A612F113208F060E28EE132
:104110000E94C3191092A9018093A801F02EC02F0C
:10412000DE2D8C2F8F19811730F489E295E00E94E3
:10413000DF128993F6CFDF91CF911F910F91FF90FE
:10414000EF900895EF92FF920F931F93CF93DF9319
:104150002223B1F0213071F5042FF92E182F20936E
:1041600021048EE1809343041092220410924404AF
:1041700089E295E00E942B13E12EC12FDF2D08C0AC
:10418000DF91CF911F910F91FF90EF900C946A20D7
:104190008C2F8E19801730F4699189E295E00E9486
:1041A0002B13F6CFDF91CF911F910F91FF90EF90DE
:1041B0000C94071ADF91CF911F910F91FF90EF9010
:1041C0000895CF938CE894E00E94D111C82F8A30D3
:1041D00029F0682F8CE894E00E94AA138C2FCF91CD
:1041E00008958CE894E00E94F31118161906CCF794
:1041F0000E94E1208A30A9F30895F999FECF90E05A
:1042000092BD81BD60BDFA9AF99A0895F999FECFE1
:1042100090E092BD81BDF89A80B508950F931F93E9
:10422000CF93DF9387E00E940621182F88E00E9439
:104230000621D82F89E00E940621C82F8AE00E941B
:104240000621412F50E04053510928EE33E0429FB0
:10425000B001439F700D529F700D11244D2F50E0FF
:104260004053510994E6949F9001959F300D11247D
:10427000260F371F6C2F70E0605371099AE0969FEC
:10428000A001979F500D1124240F351FA901480F3D
:10429000511DCA018F97CAE0D0E0BE010E941D34B3
:1042A0008B0160E3680F8AE00E94FD20C801BE0117
:1042B0000E941D348B0160E3680F89E00E94FD209D
:1042C000C801BE010E941D348B0160E3680F88E0C5
:1042D0000E94FD20C801BE010E941D3460E3680FEA
:1042E00087E0DF91CF911F910F910C94FD20CF9328
:1042F000DF930E94522081E08093210488E680931E
:104300004304109222041092440460E089E295E094
:104310000E942B130E94071A64E188E60E94C319C9
:104320001092A9018093A801C0E09091A80180910A
:10433000A901981741F189E295E00E94DF12D82F78
:1043400066EA70E18CE894E00E94B113CA3028F468
:1043500060E38CE894E00E94AA134C2F50E060E0E8
:1043600070E02AE08CE894E00E94EA1363EA70E1CE
:104370008CE894E00E94B1136D2F8CE894E00E94C9
:104380005C1DCF5FD2CFDF91CF910C944C200F9367
:104390001F93CF93DF931F92CDB7DEB7162F042F55
:1043A00089830E94522091E09093210498E6909393
:1043B000430410922204109244048981682F89E2F8
:1043C00095E00E942B13111105C0602F89E295E042
:1043D0000E942B130E94071A113069F461E088E6ED
:1043E0000E94C3191092A9018093A80189E295E067
:1043F0000E94DF12082F0E944C20802F0F90DF9127
:10440000CF911F910F910895CF93DF93EB012A81F4
:104410003B81FC01338322834C815D816E817F81EE
:104420004483558366837783488559856A857B8570
:1044300040875187628773872DE0FE013C96DC013F
:104440001C9601900D922A95E1F7298D3A8DFC0179
:10445000328F218FDF91CF9108959F92AF92BF92BB
:10446000CF92DF92EF92FF920F931F93CF93DF9340
:10447000CDB7DEB7C85BD1090FB6F894DEBF0FBE6B
:10448000CDBF0E949011CE018A589F4F0E944211C9
:1044900041E068E971E0CE0101960E94B11BBE01C6
:1044A0006F5F7F4FCE018A589F4F0E940422C157F1
:1044B000DF4FE881F981CF58D040309721F08581D6
:1044C000823008F02CC16BED70E18CE894E00E9422
:1044D000B11301E811E08EE2982E9BE5A92EB12CD4
:1044E000AC0EBD1E8CE0A80EB11CCE01855A9F4FAC
:1044F0000E944211C157DF4FE880F980CF58D04069
:10450000F7018581823008F473C0F70182859385B5
:10451000A485B5858F719927AA27BB27892B8A2B5C
:104520008B2B09F065C040E250E0BE016F5F7F4F0A
:10453000C7010E94ED0C803209F05AC0898188239E
:1045400009F456C0853E79F38E3269F38C8583FD7C
:10455000EACF22961FAE1EAE22971FAF0EAF249653
:104560001FAE2497FE01319680E090E02191203229
:1045700091F0983041F4ACEAB0E0AC0FBD1FA80F49
:10458000B11D9C928F5FACEAB0E0AC0FBD1FA80FCD
:10459000B11D2C938F5F9F5F9B3041F7ECEAF0E0F9
:1045A000EC0FFD1FE80FF11D1082C157DF4F68812E
:1045B0007981CF58D04021E0AE0144555F4FCE0104
:1045C000CE960E94090E882399F0BE01625C7F4F4F
:1045D000CE0181960E94DF10AE0144555F4FBE01AF
:1045E0006F5D7F4FCE018F569F4F0E94551105C0C2
:1045F000CE018F569F4F0E944211BE016F567F4FD2
:10460000CE01855A9F4F0E940422E696EEADFFAD83
:10461000E697309719F0858181111BC062EC70E13B
:104620008CE894E00E94B1130E948A11C854DF4FB5
:104630000FB6F894DEBF0FBECDBFDF91CF911F91B3
:104640000F91FF90EF90DF90CF90BF90AF909F9031
:104650000895B5018CE894E00E94D51366EA71E0F4
:104660008CE894E00E94D513E696EEADFFADE69798
:10467000309729F0638974898589968903C060E041
:1046800070E0CB010E94F4326B017C0120E030E04D
:1046900040E854E40E94A6331816C4F420E030E049
:1046A00040E859E4C701B6010E944E3287FF0EC0B0
:1046B00020E030E040E85AE3C701B6010E94AB3386
:1046C00041E00E94F91D6DEB70E11FC020E030E079
:1046D00040E859E4C701B6010E94A63387FD0EC029
:1046E00020E030E040E855E3C701B6010E94AB335B
:1046F00041E00E94F91D68EB70E107C040E0C7018E
:10470000B6010E94F91D60EB70E18CE894E00E9414
:10471000B113CE01855A9F4F0E943011E6CE16820A
:104720001782108611861286138614861586CBCEC4
:10473000CF92DF92EF92FF92CF93C1E061157105A6
:104740008105910509F0C0E02AE0C22ED12CE12CB0
:10475000F12C611571058105910541F0A7019601C4
:104760000E943134CA01B901CF5FF3CF8C2FCF91B2
:10477000FF90EF90DF90CF9008956F927F928F928D
:104780009F92AF92BF92CF92DF92EF92FF920F93E0
:104790001F93CF93DF93CDB7DEB7C754D1090FB6C0
:1047A000F894DEBF0FBECDBF6C015B0119A218A249
:1047B00081E891E09F8F8E8F1BA21C821B829A83BF
:1047C00089831E82812C912C7E018EE1E80EF11CE2
:1047D00001E615E0772473949401F601E80DF91DC4
:1047E00080818F3211F42F5F3F4FFE01FB9680E0F6
:1047F00090E0D601A20FB31F4C914F3249F04423F1
:1048000039F001962F5F3F4F41938C30910589F726
:10481000EBE3F0E0EC0FFD1FE80FF91F1082F6014B
:10482000E20FF31F80818F3211F42F5F3F4F490158
:10483000F601E20FF31F662463948081811101C0A9
:10484000612C20E030E0462D4725BE01655C7F4F9E
:10485000C801F5010995811109C0F5E001361F076E
:1048600019F0C8010E947F0A80E029C06620C1F0CB
:1048700021E0AE01455C5F4FB801C7010E94090EFF
:10488000682E85E001361807A1F0C8010E947F0A52
:10489000662051F3902F812F8701E92EF82E9CCFAF
:1048A000E5E001361E0719F0C8010E947F0A81E089
:1048B00006C06620C9F28E010F5F1F4FEBCFC95BA8
:1048C000DF4F0FB6F894DEBF0FBECDBFDF91CF91A3
:1048D0001F910F91FF90EF90DF90CF90BF90AF901E
:1048E0009F908F907F906F900895FF920F931F93EA
:1048F000CF93DF93C0911C04D0911D0400911E043E
:10490000F0901F04109120046AE471E18CE894E0B7
:104910000E94B1134F2D50E060E070E02AE08CE877
:1049200094E00E94EA136FE28CE894E00E94AA13DC
:10493000402F50E060E070E02AE08CE894E00E94B4
:10494000EA136FE28CE894E00E94AA13412F50E032
:1049500060E070E02AE08CE894E00E94EA1360E2F4
:104960008CE894E00E94AA134D2F50E060E070E0C4
:104970002AE08CE894E00E94EA136AE38CE894E071
:104980000E94AA13CA3028F460E38CE894E00E94E5
:10499000AA134C2F50E060E070E02AE08CE894E02D
:1049A000DF91CF911F910F91FF900C94EA13833008
:1049B00081F028F4813099F08230A1F00895873099
:1049C000A9F08830B9F08430D1F4809180008F7DD7
:1049D00003C0809180008F7780938000089584B514
:1049E0008F7702C084B58F7D84BD08958091B0001B
:1049F0008F7703C08091B0008F7D8093B0000895C1
:104A00001F93CF93DF93282F30E0F901E157FF4E3A
:104A10008491F901E558FF4ED491F901E959FF4E0F
:104A2000C491CC23C9F0162F81110E94D724EC2FFA
:104A3000F0E0EE0FFF1FE05CFE4EA591B4918FB742
:104A4000F894111105C09C91ED2FE095E92302C067
:104A5000EC91ED2BEC938FBFDF91CF911F910895D7
:104A6000CF93DF9390E0FC01E558FF4E2491FC01C9
:104A7000E959FF4E8491882361F190E0880F991FD6
:104A8000FC01EA5AFE4EC591D491FC01E05CFE4E59
:104A9000A591B491611109C09FB7F89488812095C0
:104AA00082238883EC912E230BC0623061F49FB780
:104AB000F8943881822F809583238883EC912E2B64
:104AC0002C939FBF06C08FB7F894E8812E2B2883C4
:104AD0008FBFDF91CF9108958F929F92AF92BF9237
:104AE000CF92DF92EF92FF92CF9380916605882359
:104AF00021F081E695E00E947F0A10924205109213
:104B0000400510923D0510923C058AE080933B05DC
:104B10000E9485266B017C0161E080913B050E942B
:104B2000302561E080913B050E940025CFB7F894C5
:104B300080919B05811127C0E1E7F0E18491E5E8D0
:104B4000F0E19491E82FF0E0EE0FFF1FEA5AFE4EDD
:104B5000A591B491EC91E92321F461E08AE00E94EF
:104B6000002561E08AE00E9430258CB580618CBD13
:104B70008CB580648CBD61E08DE00E94302561E0E1
:104B80008BE00E94302580919B058F5F80939B0571
:104B9000CFBF82E58093350581E080933605809113
:104BA0003505909136050E94DE0BCAE08FEF0E941A
:104BB0009F0BC150D9F787E395E00E94E10B20E0FD
:104BC00030E0A90160E087E395E00E94F70BC82F71
:104BD00080934105813049F00E9485266C197D093A
:104BE000613D774060F381E054C02AEA31E040E063
:104BF00050E068E087E395E00E94F70B82FF03C076
:104C0000C09342050EC0C4E00E94A60B80934105EC
:104C1000C150D1F78A3A11F082E03BC082E0809324
:104C2000420580914205823021F0812C912C540163
:104C300005C0812C912CA12C80E4B82E20E030E01E
:104C4000A90167E387E395E00E94F70BA5019401B2
:104C500069E287E395E00E94F70B80934105882382
:104C600049F00E9485266C197D09613D774030F33B
:104C700088E00FC080914205823001F520E030E0ED
:104C8000A9016AE387E395E00E94F70B882341F0CE
:104C900086E080933C0587E395E00E94940B29C051
:104CA0000E94A60B807C803C19F483E0809342052F
:104CB0000E94A60B0E94A60B0E94A60B87E395E01C
:104CC0000E94940B80E58093350581E08093360542
:104CD0000E94D71E882341F081E695E00E945D1B6B
:104CE00091E0811107C005C080E00E94D71E8111AC
:104CF000F3CF90E0892FCF91FF90EF90DF90CF908E
:104D0000BF90AF909F908F9008952FB7F8946091C7
:104D1000A1057091A2058091A3059091A4052FBFD4
:104D200008951F920F920FB60F9211242F933F9365
:104D30008F939F93AF93BF938091A1059091A2050C
:104D4000A091A305B091A4053091A00526E0230F02
:104D50002D3720F40296A11DB11D05C029E8230FAF
:104D60000396A11DB11D2093A0058093A1059093EA
:104D7000A205A093A305B093A40580919C059091F2
:104D80009D05A0919E05B0919F050196A11DB11DA5
:104D900080939C0590939D05A0939E05B0939F05DD
:104DA000BF91AF919F918F913F912F910F900FBE27
:104DB0000F901F901895CF93DF93CDB7DEB76B9709
:104DC0000FB6F894DEBF0FBECDBF789484B5826075
:104DD00084BD84B5816084BD85B5826085BD85B59F
:104DE000816085BD80916E00816080936E0010921D
:104DF0008100809181008260809381008091810098
:104E00008160809381008091800081608093800028
:104E10008091B10084608093B1008091B000816086
:104E20008093B00080917A00846080937A008091B2
:104E30007A00826080937A0080917A008E7F8093DE
:104E40007A0080917A00806880937A001092C10085
:104E50001092FE031092FF031092010410920004BE
:104E600081E090E0A0E0B0E080930204909303041E
:104E7000A0930404B0930504109206041092070452
:104E8000109208041092090410920A0410920C0463
:104E900010921A0460E082E00E94302562E083E014
:104EA0000E94302560E085E00E94302561E084E0CA
:104EB0000E94302560E084E00E9400250E9452207C
:104EC0001092A9011092A801109222041092440499
:104ED0000E94CF1582E3898321E041E060E2CE01A8
:104EE00001961C010E94A22041E060E2C1010E94E3
:104EF0006A208981823361F5198221E041E062E212
:104F0000C1010E94A22041E062E2C1010E946A2028
:104F1000898181111DC084E0898321E041E063E241
:104F2000C1010E94A22041E063E2C1010E946A2007
:104F30008981843069F480E8898321E041E064E27A
:104F4000C1010E94A22041E064E2C1010E946A20E6
:104F50004AE360E08FE00E94C72142E060E080E128
:104F60000E94C72144E060E081E10E94C72142E045
:104F700060E081E00E94C72140E860E082E00E949A
:104F8000C7218AE090E29093010180930001809113
:104F90006900836080936900E89A86E090E29093CC
:104FA00003018093020180916900837F8860809370
:104FB0006900E99AE898E99A0E94641A80911E04AF
:104FC0008093AD0171011BE0812F0E940621D70162
:104FD0008D937D011F5F1F30B9F799818A81890FF9
:104FE0002B819C81920F9F3F59F48F3F49F481E0C0
:104FF00080930C0483E00E94062180930B0402C07E
:1050000010920C0410927A00809164008160809369
:1050100064008091640080628093640080916400E9
:105020008860809364008091640080648093640051
:105030008091640080688093640080916400826045
:1050400080936400809164008460809364000E9477
:105050009F19892B99F48091080481110FC081E078
:10506000809308040E940E2080910C04811106C0D8
:1050700068E670E08CE894E00E94B11301E02CE057
:10508000E22EE20C0E949F19892B91F48091080472
:1050900081110EC0009308040E940E2080910C0420
:1050A000811106C066E27FE08CE894E00E94B113B3
:1050B00080910804882309F41BC58CE894E00E94C1
:1050C000F311181619060CF013C50E94E120182FD1
:1050D0008A3009F40DC58CE894E00E943314173629
:1050E00009F444C044F5133509F4A5C3D4F41534C8
:1050F00009F4BBC1123509F0F5C46FEE7DE08CE810
:1051000094E00E94B113E99860E47AE08CE894E0BE
:105110000E94B1136CEF79E08CE894E00E94B11327
:1051200037C2143609F483C1153609F485C1133624
:1051300009F0D8C42EC1103709F425C26CF4193611
:1051400009F409C20CF4AAC11C3609F0CBC40E94B0
:105150002D2262E27EE0C8C4153709F485C31737F3
:1051600009F415C4133709F0BDC4EDC26EE472E052
:105170008CE894E00E94B1136DE072E08CE894E05A
:105180000E94B11380E00E940621682F8CE894E011
:105190000E942A1281E00E940621682F8CE894E088
:1051A0000E942A1282E00E940621682F8CE894E077
:1051B0000E942A128CE894E00E94331461E072E0AD
:1051C0008CE894E00E94B1130E94F120682F80E0E7
:1051D0000E94FD200E94F120682F81E00E94FD20A6
:1051E0000E94F120682F82E00E94FD206FEB71E0A9
:1051F0008CE894E00E94B11384E00E940621682F9D
:105200008CE894E00E942A1285E00E940621682F13
:105210008CE894E00E942A1286E00E940621682F02
:105220008CE894E00E942A128CE894E00E943314E7
:1052300063EB71E08CE894E00E94B1130E94F120CE
:10524000682F84E00E94FD200E94F120682F85E0F5
:105250000E94FD200E94F120682F86E00E94FD2020
:1052600069E971E08CE894E00E94B11366E871E0AE
:105270008CE894E00E94B11361E771E08CE894E05F
:105280000E94B11365E671E08CE894E00E94B113CE
:105290000E94F120182F813329F0853361F467E3F0
:1052A00071E002C06FE471E08CE894E00E94B113F9
:1052B00010930B0408C06BE071E08CE894E00E944E
:1052C000B11310920B0460910B0483E00E94FD2047
:1052D00063EC70E08CE894E00E94B11387E00E94D8
:1052E0000621682F8CE894E00E942A1288E00E9430
:1052F0000621682F8CE894E00E942A1289E00E941F
:105300000621682F8CE894E00E942A128AE00E940D
:105310000621682F8CE894E00E942A128CE894E021
:105320000E94331467EB70E08CE894E00E94B113A4
:105330000E94F120682F87E00E94FD200E94F1204A
:10534000682F88E00E94FD200E94F120682F89E0EC
:105350000E94FD200E94F120682F8AE00E94FD201B
:1053600065E98EE00E94FD206AE68DE00E94FD2046
:105370006DEB8CE00E94FD2062E48BE00E94FD203A
:105380008CE894E00E9433140E94731D60E77EE075
:10539000ABC380910904811103C062E073E040C097
:1053A0008091060481113AC01D860E942D2267EB70
:1053B00072E08CE894E00E94B11361010E94F12038
:1053C000F60181936F01EE12F9CF6AE772E08CE883
:1053D00094E00E94B113B1018CE894E00E94D513CF
:1053E00067E672E08CE894E00E94B1130E94F1201D
:1053F000893511F0893759F40E9490110E946C256B
:1054000068EC7FE0C1010E94BD230E948A118CE8F4
:1054100094E00E9433140E942D2206C063ED72E0D6
:105420008CE894E00E94B11363E67EE05DC30E94C5
:10543000752466E57EE058C30E94752466E273E039
:105440008CE894E00E94B11310920804FFEF29E663
:1054500088E1F15020408040E1F700C000008091D9
:10546000640082608093640043C3809106048823B3
:1054700019F06EE373E00BC080910904811103C041
:1054800061EB73E004C0109209046AE873E08CE8F1
:1054900094E00E94B11369E47EE026C361E276E005
:1054A0008CE894E00E94B11361E076E08CE894E02F
:1054B0000E94B11360EE75E08CE894E00E94B11395
:1054C00068EB75E08CE894E00E94B11368E975E040
:1054D0008CE894E00E94B1136DE675E08CE894E0EE
:1054E0000E94B1136EE475E08CE894E00E94B11361
:1054F00065E275E08CE894E00E94B11369EF74E016
:105500008CE894E00E94B1136EEC74E08CE894E0B7
:105510000E94B1136BEA74E08CE894E00E94B1132E
:105520006DE574E08CE894E00E94B1136AE374E0E6
:105530008CE894E00E94B11367E174E08CE894E099
:105540000E94B11365ED73E08CE894E00E94B11302
:105550006CE37EE0C9C20E9490110E946C258823F2
:1055600029F0009309046AE676E004C01092090469
:105570006FE376E08CE894E00E94B1130E948A11F8
:105580006FE27EE0B1C20E94731D65E17EE0ACC2B5
:105590006AEE79E08CE894E00E94B11364EC79E063
:1055A0008CE894E00E94B11364EA79E08CE894E01E
:1055B0000E94B11368E779E08CE894E00E94B1138F
:1055C0006DE579E08CE894E00E94B1136CE479E039
:1055D0008CE894E00E94B11360E479E08CE894E0F8
:1055E0000E94B1130E94F1208333B9F114F5813385
:1055F00031F1823309F08BC066EB78E08CE894E0FF
:105600000E94B1134AE360E08FE00E94C72142E0AC
:1056100060E080E10E94C72144E060E081E10E94F7
:10562000C72142E060E081E00E94C7216AE978E09A
:1056300070C08433A9F0853309F471C068C06EE08E
:1056400079E08CE894E00E94B11342E060E081E0F0
:105650000E94C7216EEE78E05CC062E178E050C045
:1056600062EC77E08CE894E00E94B11363E877E0A5
:105670008CE894E00E94B1130E94F120D82E0E9481
:10568000F12080539D2D990F9056D92EDD0CDD0C05
:105690009D0DD82ED90E62E377E08CE894E00E944D
:1056A000B1130E94F120182F0E94F120482F1734C7
:1056B0003CF411344CF490ED910F9A3038F009C05D
:1056C0008FE9810F863028F499EC910F9295907FA5
:1056D00001C090E0473434F4413444F440534A303C
:1056E00040F006C08FE9840F863010F4475301C0A4
:1056F00040E0490F60E08D2D0E94C72165EE76E005
:105700008CE894E00E94B1130E94772106C069E9F9
:1057100076E08CE894E00E94B11310E001C011E043
:1057200068E876E08CE894E00E94B113112309F454
:105730002FCF6FE776E08CE894E00E94B113E99AEE
:1057400062EE7DE0D1C180910904882309F46AC02A
:1057500080910604882319F063EC7AE065C00E940A
:105760002E1D0E94901163E170E18DE094E00E9493
:10577000BD23882329F00E940E210E942E1DF3CF05
:1057800060E97AE08CE894E00E94B113C12CD12C3E
:10579000F601E250FC4F67858CE894E00E94AA1362
:1057A0009FEFC91AD90AADE0CA16D10489F78CE86F
:1057B00094E00E9433140093060481E090E0A0E09E
:1057C000B0E08093020490930304A0930404B09388
:1057D00005041092FE031092FF0310920104109230
:1057E00000040E949F1C0E94522043E069E28AEA62
:1057F00091E00E946A206091AA01062E000C770BAE
:10580000880B990B0E94F63260930801709309018E
:1058100080930A0190930B010E944C20E89A63E761
:105820007AE002C06CE97AE08CE894E00E94B1135F
:1058300065ED7DE059C180910604882361F01092E6
:105840000604E8986FED7AE08CE894E00E94B113CA
:105850000E940E2106C06BEF7AE08CE894E00E9473
:10586000B11368EC7DE040C16EEE7BE08CE894E023
:105870000E94B1136CEC7BE08CE894E00E94B113C1
:105880000E94F120982E0E94F120182F6BEA7BE0F5
:105890008CE894E00E94B1130E94F120482E0E94EF
:1058A000F120A82E69E87BE08CE894E00E94B11317
:1058B0000E94F120582E0E94F120B82E68E57BE06E
:1058C0008CE894E00E94B1130E94F120682E0E949F
:1058D000F120C82E64E37BE08CE894E00E94B113D1
:1058E0000E94F120782E0E94F120D82E8CE894E0BE
:1058F0000E94331480ED8A0DA82E90E1499EA00CE1
:10590000112480ED8B0DB82EA0E15A9EB00C11240D
:1059100080ED8C0DC82EB0E16B9EC00C112480ED83
:105920008D0DD82EE0E17E9ED00C112490ED910FCC
:10593000492FF0E19F9E400D112460E088E00E9415
:10594000C7214A2D60E086E00E94C7214B2D60E010
:1059500089E00E94C7214C2D60E085E00E94C721AC
:105960004D2D60E084E00E94C72140E060E083E0CC
:105970000E94C7210E94641A0E94752463E17BE0A3
:105980008CE894E00E94B1136BEB7DE0ADC068E35E
:105990007DE08CE894E00E9437147090FF03C09083
:1059A0000004D090010480910B04813379F0853399
:1059B00049F492E7892E9AE8992E9EE0A92E9CE35D
:1059C000B92E0CC0812C912C540108C082E0882E85
:1059D0008BE2982E87E0A82E8DE3B82E6EE17DE055
:1059E0008CE894E00E94B113672D8CE894E00E944B
:1059F0005C1D20E030E0A901C501B4010E944E32D7
:105A0000882309F466C0672D70E080E090E00E9472
:105A1000F432A50194010E94AB332B013C0164E0F8
:105A20007DE08CE894E00E94B11342E0C301B20132
:105A30000E94F91D6EEF7CE08CE894E00E94B113A7
:105A400064EE7CE08CE894E00E94B11320E030E04A
:105A500040E752E4C301B2010E94AB3320E030E0E2
:105A600040E85EE30E94AB3342E00E94F91D69ED1D
:105A70007CE08CE894E00E94B1136BEA7CE08CE857
:105A800094E00E94B1132601612C712C2AE0B3012D
:105A9000A2018CE894E00E94EA138CE894E00E9452
:105AA00033146DE77CE08CE894E00E94B113C301ED
:105AB000B2010E94F432A50194010E94AB3342E08E
:105AC0000E94F91D67E77CE08CE894E00E94B11326
:105AD00006C064E17CE08CE894E00E9437146EEA32
